:1008E9004A44513D004B3D0057656C636F6D65206F
:1008F900746F2075736521004B67005765696768D8
:09090900743D0020202020200094
:10095C00011000041A000000000411000000000443
:0F096C001600000000010E00011500020B00E450
:0C0A5200C2AF53E71843E70143E78022DE
:090A750053E77FE4F5E6D2AF225D
:0B0A6A00120A5275E64675E6B900223C
:10099C00AD07AC06C2AF8CE3EDF5E453E5F843E5E7
:0C09AC0001120A6A120A75D2AFAFE222F3
:100A0500EE54FEFEF5E3E4F5E453E5F843E50312A1
:050A15000A6A020A75E7
:1009B800AB07AA06C2AF8AE3EBF5E453E5F843E5D3
:0C09C800028DE2120A6A120A75D2AF22F8
:1008C000E50BF508850C097F007E20120A05AD0AAC
:1008D0000F7E201209B8AD080F1209B8AD090F122A
:0908E00009B8AD0D7F600209B8F2
:100893007F017E2012099C8F0A7F0212099C8F0818
:1008A3007F0312099C8F097F6012099C8F0DE50855
:0D08B300FE7C00E42509F50CEC3EF50B225F
:1009D400120893E50D64C8600F750DC8750A327569
:0909E4000B00750CC81208C022BA
:10033B0020B22130B31E30B41B12093820B2153055
:10034B00B31230B40F20B20630B30320B4F7120A45
:10035B005E120A4420B36430B26130B45E120938C5
:10036B0020B35830B25530B45220B30630B203200C
:10037B00B4F7E50AC394C85002050A1208C0120A62
:10038B00447FC0120A1A7BFF7A0879E9120912E539
:10039B000A75F064842430FF120A2FE50A75F064A5
:1003AB0084E5F075F00A842430FF120A2FE50A75F4
:1003BB00F00A84E5F02430FF120A2F20B46430B227
:1003CB006130B35E12093820B45830B25530B35295
:1003DB0020B40630B20320B3F7E50AD394014002F0
:1003EB00150A1208C0120A447FC0120A1A7BFF7A40
:1003FB000879E9120912E50A75F064842430FF12BA
:10040B000A2FE50A75F06484E5F075F00A84243050
:10041B00FF120A2FE50A75F00A84E5F02430FF126B
:10042B000A2F30B2030204BA30B3030204BA7F19A5
:10043B007E0012093C20B27720B374E4F50FC2970B
:10044B007F19FE12093CD297C3E50C94E7E50B9498
:10045B00035008050CE50C7002050B1208C07FCB8E
:10046B00120A1A7BFF7A0879EE120912AE0BAF0C47
:10047B007C007D641201E1EF2430FF120A2FAE0BDA
:10048B00AF0C7C007D641201E17E007F0ACFCDCFE3
:10049B00CECCCE1201E1EF2430FF120A2FAE0BAF00
:1004AB000C7C007D0A1201E1ED2430FF120A2F3083
:1004BB00B20302054730B4030205477F197E0012D1
:1004CB00093C20B27720B474E4F50FC2977F19FE74
:1004DB0012093CD297D3E50C9401E50B940040082C
:1004EB00E50C150C7002150B1208C07FCB120A1A03
:1004FB007BFF7A0879EE120912AE0BAF0C7C007DF4
:10050B00641201E1EF2430FF120A2FAE0BAF0C7C0B
:10051B00007D641201E17E007F0ACFCDCFCECCCE21
:10052B001201E1EF2430FF120A2FAE0BAF0C7C004F
:0D053B007D0A1201E1ED2430FF120A2F228B
:100548001209ED1209D47F80120A1A7BFF7A087902
:10055800F1120912120A5E120A5E7FD07E07120992
:100568003C120A5E120A5E7F01120A1A7FC0120A42
:100578001A7BFF7A0879E9120912E50A75F0648492
:100588002430FF120A2FE50A75F06484E5F075F04F
:100598000A842430FF120A2FE50A75F00A84E5F070
:1005A8002430FF120A2F7BFF7A097901120912C23F
:1005B800977F197E0012093CD29712033B1207B2AB
:1005C8007F80120A1A7BFF7A0979041209127BA02C
:1005D8007A8679017800AF19AE18AD17AC161208F3
:1005E80012EF2430FF120A2F7BA07A867901780057
:1005F800AF19AE18AD17AC16120812AC00AD01AEAB
:1006080002AF03E47B107A27F9F8120812EF2430BE
:10061800FF120A2FE47B107A27F9F8AF19AE18AD4C
:1006280017AC16120812AC00AD01AE02AF03E47BA2
:10063800E87A03F9F8120812EF2430FF120A2F7F24
:100648002E120A2FE47BE87A03F9F8AF19AE18AD39
:1006580017AC16120812AC00AD01AE02AF03E47B72
:1006680064FAF9F8120812EF2430FF120A2FE47B1B
:1006780064FAF9F8AF19AE18AD17AC16120812AC37
:1006880000AD01AE02AF03E47B0AFAF9F8120812D2
:10069800EF2430FF120A2FE47B0AFAF9F8AF19AEFB
:1006A80018AD17AC16120812EB2430FF120A2F7B74
:1006B800FF7A097901120912E47BE87A03F9F8AFA5
:1006C80019AE18AD17AC16120812A804A905AA0687
:1006D800AB07AF0AE4FCFDFEC312024450167F408C
:1006E8007E0D7D037C00AB19AA18A917A816C312A2
:1006F80002444006C2B0C2978004D2B0D297050F18
:10070800E50FC3943250030205C2E4F50F7FCB1204
:0E0718000A1A7BFF7A09790C1209120205C237
:1007B2001208568F198E188D178C16C3E5199514C9
:1007C200F519E5189513F518E5179512F517E516BD
:1007D2009511F516AD17FC33402CAE0BAF0CAB07E1
:1007E200AA06E4F9F8AF19AE18120812EC120109C0
:1007F200E4FBFA792078411200031201478F198E27
:10080200188D178C1622E4F519F518F517F516222E
:0C0A5E001208568F148E138D128C11227A
:040938007F057E00B9
:10093C00E4FDFCC3ED9FEC9E5015E4FBFA0BBB00F1
:0F094C00010AEB647B4A70F50DBD00010C80E4DD
:01095B002279
:0E0A4400C2977F0A7E0012093CD29702093C3D
:10097C00E4FDFCC3ED9FEC9E5015E4FBFA0BBB00B1
:0F098C00010AEB647B4A70F50DBD00010C80E49D
:01099B002239
:100A1A00A907C2A57F017E0012097CD2A78980128C
:050A2A00097CC2A722B7
:100A2F00A907D2A57F017E0012097C8980D2A71267
:050A3F00097CC2A722A2
:100912008B1E8A1F8920AB1EAA1FA9201201C8FFA5
:10092200D394004010120A2F74012520F520E435DB
:060932001FF51F80E12209
:1009ED00C2A7C2A67F38120A1A7F0C120A1A7F06F6
:0809FD00120A1A7F01020A1A16
:030A7E0000002253
:10085600D2A1120A7EC2A07F007E007D007C00200D
:10086600A1FDE4FBD2A0780112025AC2A030A10D6C
:10087600EF2401FFE43EFEE43DFDE43CFC0BBB1827
:0C088600E3D2A0ED6480FD120A7EC2A047
:010892002243
:10000300EC4D6011E8497017ED33EC3304600DE4F7
:10001300FCFFFEFD22E933E8330470F80201B3125A
:10002300017E58046009E4CC24815006285009025B
:1000330001BD2840030201BAC0E0EB4A7044B98015
:1000430006D0E0FB0201A9EF4E701CBD8008EBFF58
:10005300EAFEE9FD80EBE98DF0A4FEE5F00200EC99
:10006300E9CDF9EAFEEBFFEF89F0A4FCE5F0CE89D8
:10007300F0A42EFFE435F0CD89F0A42DFEE435F095
:100083008067EF4E7005BD80D780C3EF8BF0A4ACC3
:10009300F0EE8BF0A42CFCE435F0F8EF8AF0A42CFE
:1000A300E5F038FCE433CB8DF0A42CFCE5F03BF811
:1000B300EE8AF0A42CFCE5F038F8E433CF89F0A401
:1000C3002CFCE5F038CF3400CE89F0A42FFFE5F007
:1000D3003EFEE433C98DF0A42EFEE5F039CD8AF05F
:1000E300A42FFFE5F03EFEE43DFD33D0E0FB5007D7
:1000F3000BBB000F0201BDEC2CFCEF33FFEE33FE14
:06010300ED33FD02019541
:1001090075F020800E75F010800575F0087D007E71
:10011900007F003392D530D503120236EC334010FC
:10012900EF33FFEE33FEED33FDEC33FCD5F0ED227A
:0E013900E5F0247EA2D513CC92E7CDCEFF22B6
:10014700EDD2E7CD33EC3392D524814006E4FFFEB0
:10015700FDFC22FCE4CFCECDCC24E0501174FF800F
:10016700EDC3CC13CCCD13CDCE13CECF13CF0470AC
:07017700F030D5DE02023674
:10017E00E9D2E7C933E833F892D5EDD2E7CD33ECC7
:07018E0033FC5002B2D52240
:10019500EC30E7100FBF000C0EBE00080DBD0004CB
:1001A5000BEB6014A2D5EB13FCED92E7FD2274FF77
:1001B500FCFDFEFF22E480F8A2D574FF13FC7D80D0
:0301C500E480EFE4
:03000000020726CE
:0C072600787FE4F6D8FD75812002076D95
:1001C800BB010689828A83E0225002E722BBFE0235
:0901D800E32289828A83E4932268
:1001E100BC000BBE0029EF8DF084FFADF022E4CC02
:1001F100F875F008EF2FFFEE33FEEC33FCEE9DECCB
:10020100984005FCEE9DFE0FD5F0E9E4CEFD22ED10
:10021100F8F5F0EE8420D21CFEADF075F008EF2F5A
:10022100FFED33FD4007985006D5F0F222C398FD4B
:050231000FD5F0EA22E8
:10081200C2D5E830E70FB2D5E4C39BFBE49AFAE411
:1008220099F9E498F8EC30E717B2D51208481202A9
:10083200A9E4C39BFBE49AFAE499F9E498F88003EB
:100842001202A930D50DE4C39FFFE49EFEE49DFD94
:04085200E49CFC2204
:0E023600C3E49FFFE49EFEE49DFDE49CFC22D9
:10024400EB9FF5F0EA9E42F0E99D42F0EC6480C831
:0602540064809845F022D1
:10025A00E8600FEFC333FFEE33FEED33FDEC33FC02
:03026A00D8F122A6
:10073200020548E493A3F8E493A34003F68001F290
:1007420008DFF48029E493A3F85407240CC8C333C8
:10075200C4540F4420C8834004F456800146F6DF97
:10076200E4800B010204081020408090095CE47EC2
:10077200019360BCA3FF543F30E509541FFEE4938C
:10078200A360010ECF54C025E060A840B8E493A353
:10079200FAE493A3F8E493A3C8C582C8CAC583CA7E
:1007A200F0A3C8C582C8CAC583CADFE9DEE780BE36
:01097B00007B
:10026D0075F008758200EF2FFFEE33FECD33CDCC48
:10027D0033CCC58233C5829BED9AEC99E5829840CB
:10028D000CF582EE9BFEED9AFDEC99FC0FD5F0D6A8
:10029D00E4CEFBE4CDFAE4CCF9A88222B800C1B9D2
:1002AD000059BA002DEC8BF084CFCECDFCE5F0CB10
:1002BD00F97818EF2FFFEE33FEED33FDEC33FCEB49
:1002CD0033FB10D703994004EB99FB0FD8E5E4F904
:1002DD00FA227818EF2FFFEE33FEED33FDEC33FCF1
:1002ED00C933C910D7059BE99A4007EC9BFCE99AE5
:1002FD00F90FD8E0E4C9FAE4CCFB2275F010EF2F2A
:10030D00FFEE33FEED33FDCC33CCC833C810D70729
:10031D009BEC9AE899400AED9BFDEC9AFCE899F864
:0E032D000FD5F0DAE4CDFBE4CCFAE4C8F922F7
:00000001FF
