:100860004A44513D004B3D0057656C636F6D6520F8
:10087000746F2075736521004B6700576569676861
:09088000743D002020202020001E
:1008D300011000041A0000000004110000000004CD
:0F08E3001600000000010E00011500020B006A54
:0C09C900C2AF53E71843E70143E7802268
:0909EC0053E77FE4F5E6D2AF22E7
:0B09E1001209C975E64675E6B9002250
:10091300AD07AC06C2AF8CE3EDF5E453E5F843E570
:0C092300011209E11209ECD2AFAFE22290
:10097C00EE54FEFEF5E3E4F5E453E5F843E503122B
:05098C0009E10209EC85
:10092F00AB07AA06C2AF8AE3EBF5E453E5F843E55C
:0C093F00028DE21209E11209ECD2AF2295
:10083700E50BF508850C097F007E2012097CAD0ABF
:100847000F7E2012092FAD080F12092FAD090F12C5
:09085700092FAD0D7F6002092F8D
:10080A007F017E201209138F0A7F021209138F08B3
:10081A007F031209138F097F601209138F0DE508F0
:0D082A00FE7C00E42509F50CEC3EF50B22E8
:10094B0012080AE50D6428600F750D28750A0A75E3
:09095B000B00750C6A120837222A
:1002D50020B22130B31E30B41B1208AF20B2153046
:1002E500B31230B40F20B20630B30320B4F71209AD
:1002F500D51209BB20B36430B26130B45E1208AFC9
:1003050020B35830B25530B45220B30630B2032072
:10031500B4F7E50AC394285002050A1208371209F2
:10032500BB7FC01209917BFF7A087960120889E5C5
:100335000A75F064842430FF1209A6E50A75F06495
:1003450084E5F075F00A842430FF1209A6E50A75E4
:10035500F00A84E5F02430FF1209A620B46430B217
:100365006130B35E1208AF20B45830B25530B35285
:1003750020B40630B20320B3F7E50AD39401400256
:10038500150A1208371209BB7FC01209917BFF7A43
:10039500087960120889E50A75F064842430FF1233
:1003A50009A6E50A75F06484E5F075F00A84243041
:1003B500FF1209A6E50A75F00A84E5F02430FF125C
:1003C50009A630B20302045430B3030204547F1962
:1003D5007E001208B320B27720B374E4F50FC297FC
:1003E5007F19FE1208B3D297C3E50C94E7E50B9489
:1003F500035008050CE50C7002050B1208377FCB7E
:100405001209917BFF7A087965120889AE0BAF0C4A
:100415007C007D6412017BEF2430FF1209A6AE0B30
:10042500AF0C7C007D6412017B7E007F0ACFCDCFAF
:10043500CECCCE12017BEF2430FF1209A6AE0BAF56
:100445000C7C007D0A12017BED2430FF1209A630D9
:10045500B2030204E130B4030204E17F197E001205
:1004650008B320B27720B474E4F50FC2977F19FE64
:100475001208B3D297D3E50C9401E50B940040081C
:10048500E50C150C7002150B1208377FCB1209917C
:100495007BFF7A087965120889AE0BAF0C7C007D6D
:1004A5006412017BEF2430FF1209A6AE0BAF0C7C62
:1004B500007D6412017B7E007F0ACFCDCFCECCCEEE
:1004C50012017BEF2430FF1209A6AE0BAF0C7C00A6
:0D04D5007D0A12017BED2430FF1209A622E2
:1004E20012096412094B7F801209917BFF7A087905
:1004F200681208891209D51209D57FD07E07120821
:10050200B31209D51209D57F011209917FC01209D0
:10051200917BFF7A087960120889E50A75F0648494
:100522002430FF1209A6E50A75F06484E5F075F03F
:100532000A842430FF1209A6E50A75F00A84E5F060
:100542002430FF1209A67BFF7A087978120889C243
:10055200977F197E001208B3D2971202D512071E96
:100562007F801209917BFF7A08797B120889E47BEC
:10057200107A27F9F8AF19AE18AD17AC1612078921
:10058200EF2430FF1209A6E47B107A27F9F8AF199D
:10059200AE18AD17AC16120789AC00AD01AE02AFB2
:1005A20003E47BE87A03F9F8120789EF2430FF129B
:1005B20009A67F2E1209A6E47BE87A03F9F8AF199F
:1005C200AE18AD17AC16120789AC00AD01AE02AF82
:1005D20003E47B64FAF9F8120789EF2430FF120969
:1005E200A6E47B64FAF9F8AF19AE18AD17AC16128F
:1005F2000789AC00AD01AE02AF03E47B0AFAF9F859
:10060200120789EF2430FF1209A6E47B0AFAF9F8EF
:10061200AF19AE18AD17AC16120789EB2430FF12D2
:1006220009A67BFF7A087978120889E47BE87A03C5
:10063200F9F8AF19AE18AD17AC16120789A804A9BC
:1006420005AA06AB07AF0AE4FCFDFEC31201DE50A9
:1006520015E47F407E9CFDFCAB19AA18A917A816C9
:10066200C31201DE4006C2B0C2978004D2B0D29754
:10067200050FE50FC39432500302055CE4F50F7FCA
:10068200CB1209917BFF7A08798312088902055CF3
:10071E001207CD8F198E188D178C16C3E5199514E7
:10072E00F519E5189513F518E5179512F517E51651
:10073E009511F516AF19AE18AD17FC334033EC1208
:10074E0000A3C004C005C006C007AC0BAD0CE4127C
:10075E0000A8A804A905AA06AB07D007D006D005A5
:10076E00D0041200061200E18F198E188D178C1608
:0B077E0022E4F519F518F517F5162216
:0C09D5001207CD8F148E138D128C11228E
:0408AF007F057E0043
:1008B300E4FDFCC3ED9FEC9E5015E4FBFA0BBB007B
:0F08C300010AEB647B4A70F50DBD00010C80E467
:0108D2002203
:0E09BB00C2977F0A7E001208B3D2970208B3DB
:1008F300E4FDFCC3ED9FEC9E5015E4FBFA0BBB003B
:0F090300010AEB647B4A70F50DBD00010C80E426
:0109120022C2
:10099100A907C2A57F017E001208F3D2A7898012A0
:0509A10008F3C2A722CB
:1009A600A907D2A57F017E001208F38980D2A7127B
:0509B60008F3C2A722B6
:100889008B1E8A1F8920AB1EAA1FA920120162FF95
:10089900D3940040101209A674012520F520E435EF
:0608A9001FF51F80E12293
:10096400C2A7C2A67F381209917F0C1209917F0693
:080974001209917F01020991B3
:0309F500000022DD
:1007CD00D2A11209F5C2A07F007E007D007C002021
:1007DD00A1FDE4FBD2A078011201F4C2A030A10D5D
:1007ED00EF2401FFE43EFEE43DFDE43CFC0BBB18B1
:0C07FD00E3D2A0ED6480FD1209F5C2A05B
:0108090022CC
:10000300020157EC5D046005E85904700302014DD9
:10001300120118580460F6EC4860F2EC7004FDFE1F
:10002300FF22C860DB2481C85009C39860025006D0
:100033000201549850CAF582E9294B4A7005AB82F4
:1000430002014375F0007C1A7880C3EF9BEE9AEDB2
:1000530099400DC3EF9BFFEE9AFEED99FDE842F048
:10006300DC23ACF0D0E0FFD0E0FED0E0FDAB82209B
:10007300E7101BEB60BAEC2CFCEF33FFEE33FEED25
:1000830033FD02012FE803F830E705C0F075F000F7
:10009300EF2FFFEE33FEED33FD40B830E7C280AA09
:1000A30075F020800E75F010800575F0087D007ED8
:1000B300007F003392D530D5031201D0EC334010CA
:1000C300EF33FFEE33FEED33FDEC33FCD5F0ED22E1
:0E00D300E5F0247EA2D513CC92E7CDCEFF221D
:1000E100EDD2E7CD33EC3392D524814006E4FFFE17
:1000F100FDFC22FCE4CFCECDCC24E0501174FF8076
:10010100EDC3CC13CCCD13CDCE13CECF13CF047012
:07011100F030D5DE0201D041
:10011800E9D2E7C933E833F892D5EDD2E7CD33EC2D
:0701280033FC5002B2D522A6
:10012F00EC30E7100FBF000C0EBE00080DBD000431
:10013F000BEB6014A2D5EB13FCED92E7FD2274FFDD
:10014F00FCFDFEFF22E480F8A2D574FF13FC7D8036
:03015F00E480EF4A
:0300000002069263
:0C069200787FE4F6D8FD7581200206D9BF
:10016200BB010689828A83E0225002E722BBFE029B
:09017200E32289828A83E49322CE
:10017B00BC000BBE0029EF8DF084FFADF022E4CC68
:10018B00F875F008EF2FFFEE33FEEC33FCEE9DEC31
:10019B00984005FCEE9DFE0FD5F0E9E4CEFD22ED77
:1001AB00F8F5F0EE8420D21CFEADF075F008EF2FC1
:1001BB00FFED33FD4007985006D5F0F222C398FDB2
:0501CB000FD5F0EA224F
:10078900C2D5E830E70FB2D5E4C39BFBE49AFAE49B
:1007990099F9E498F8EC30E717B2D51207BF1202BD
:1007A90043E4C39BFBE49AFAE499F9E498F88003DB
:1007B90012024330D50DE4C39FFFE49EFEE49DFD84
:0407C900E49CFC228E
:0E01D000C3E49FFFE49EFEE49DFDE49CFC2240
:1001DE00EB9FF5F0EA9E42F0E99D42F0EC6480C898
:0601EE0064809845F02238
:1001F400E8600FEFC333FFEE33FEED33FDEC33FC69
:03020400D8F1220C
:10069E000204E2E493A3F8E493A34003F68001F28C
:1006AE0008DFF48029E493A3F85407240CC8C3335D
:1006BE00C4540F4420C8834004F456800146F6DF2C
:1006CE00E4800B01020408102040809008D3E47EE1
:1006DE00019360BCA3FF543F30E509541FFEE49321
:1006EE00A360010ECF54C025E060A840B8E493A3E8
:1006FE00FAE493A3F8E493A3C8C582C8CAC583CA13
:10070E00F0A3C8C582C8CAC583CADFE9DEE780BECA
:0108F2000005
:1002070075F008758200EF2FFFEE33FECD33CDCCAE
:1002170033CCC58233C5829BED9AEC99E582984031
:100227000CF582EE9BFEED9AFDEC99FC0FD5F0D60E
:10023700E4CEFBE4CDFAE4CCF9A88222B800C1B938
:100247000059BA002DEC8BF084CFCECDFCE5F0CB76
:10025700F97818EF2FFFEE33FEED33FDEC33FCEBAF
:1002670033FB10D703994004EB99FB0FD8E5E4F96A
:10027700FA227818EF2FFFEE33FEED33FDEC33FC57
:10028700C933C910D7059BE99A4007EC9BFCE99A4B
:10029700F90FD8E0E4C9FAE4CCFB2275F010EF2F90
:1002A700FFEE33FEED33FDCC33CCC833C810D70790
:1002B7009BEC9AE899400AED9BFDEC9AFCE899F8CB
:0E02C7000FD5F0DAE4CDFBE4CCFAE4C8F9225E
:00000001FF
