:1005450057656C636F6D6520746F20757365210049
:0A0555004552524F5220002067006B
:10055F00041100000000040900000000040D000059
:07056F000000010800C100BB
:100280001205777F8012058F7BFF7A05794512046E
:10029000DF7FE87E031205051205CDC2AF1203DD34
:1002A000D2AF1205B93000127FC012058F7BFF7AE2
:1002B0000579551204DFC29780E1D2977FC01205FD
:1002C0008FE47BE87A03F9F8AF10AE0FAD0EAC0DFA
:1002D00012045AEF2430FF1205A4E47BE87A03F9F4
:1002E000F8AF10AE0FAD0EAC0D12045AAC00AD015C
:1002F000AE02AF03E47B64FAF9F812045AEF24303B
:10030000FF1205A4E47B64FAF9F8AF10AE0FAD0E4E
:10031000AC0D12045AAC00AD01AE02AF03E47B0A8F
:10032000FAF9F812045AEF2430FF1205A4E47B0A0C
:10033000FAF9F8AF10AE0FAD0EAC0D12045AEB2463
:1003400030FF1205A47BFF7A05795C1204DF0202FC
:010350009B11
:1005B90020B2107F057E0012050520B20630B2FD7B
:0405C9001205CD2228
:1003DD0012049E8F108E0F8D0E8C0DC3E510950C93
:1003ED00F510E50F950BF50FE50E950AF50EE50DDC
:1003FD009509F50DE4FFFEFDFCAB10AA0FA90EA8A3
:10040D000DD3120189403CAF10AE0FAD0EAC0DEC0B
:10041D001200A3E4FBFA79C878431200061200E13A
:10042D00E48F108E0FF50EF50D7F887E13FDFCAB5E
:10043D0010AA0FA90EA80DD31201894003D20022D4
:0D044D00C20022E4F510F50FF50EF50D22AA
:0C05CD0012049E8F0C8E0B8D0A8C0922EC
:10050500E4FDFCC3ED9FEC9E5015E4FBFA0BBB002C
:0F051500010AEB647B4A70F50DBD00010C80E418
:0105240022B4
:0305D900000022FD
:10049E00D2B11205D9C2B07F007E007D007C00D2A1
:1004AE00AF20B1FDC2AFE4FBD2B0780112019FC202
:1004BE00B030B10DEF2401FFE43EFEE43DFDE43C1F
:1004CE00FC0BBB18E3D2B0ED6480FD1205D9C2B0AF
:0104DE0022FB
:10052500E4FDFCC3ED9FEC9E5015E4FBFA0BBB000C
:0F053500010AEB647B4A70F50DBD00010C80E4F8
:010544002294
:10058F00A907C2A37F017E00120525D2A58980127B
:05059F000525C2A522A4
:1005A400A907D2A37F017E001205258980D2A51256
:0505B4000525C2A5228F
:1004DF008B158A168917AB15AA16A917120162FF79
:1004EF00D3940040101205A474012517F517E435B5
:0604FF0016F51680E12253
:10057700C2A5C2A47F3812058F7F0C12058F7F0694
:0805870012058F7F0102058FB0
:10000300020157EC5D046005E85904700302014DD9
:10001300120118580460F6EC4860F2EC7004FDFE1F
:10002300FF22C860DB2481C85009C39860025006D0
:100033000201549850CAF582E9294B4A7005AB82F4
:1000430002014375F0007C1A7880C3EF9BEE9AEDB2
:1000530099400DC3EF9BFFEE9AFEED99FDE842F048
:10006300DC23ACF0D0E0FFD0E0FED0E0FDAB82209B
:10007300E7101BEB60BAEC2CFCEF33FFEE33FEED25
:1000830033FD02012FE803F830E705C0F075F000F7
:10009300EF2FFFEE33FEED33FD40B830E7C280AA09
:1000A30075F020800E75F010800575F0087D007ED8
:1000B300007F003392D530D50312017BEC3340101F
:1000C300EF33FFEE33FEED33FDEC33FCD5F0ED22E1
:0E00D300E5F0247EA2D513CC92E7CDCEFF221D
:1000E100EDD2E7CD33EC3392D524814006E4FFFE17
:1000F100FDFC22FCE4CFCECDCC24E0501174FF8076
:10010100EDC3CC13CCCD13CDCE13CECF13CF047012
:07011100F030D5DE02017B96
:10011800E9D2E7C933E833F892D5EDD2E7CD33EC2D
:0701280033FC5002B2D522A6
:10012F00EC30E7100FBF000C0EBE00080DBD000431
:10013F000BEB6014A2D5EB13FCED92E7FD2274FFDD
:10014F00FCFDFEFF22E480F8A2D574FF13FC7D8036
:03015F00E480EF4A
:03000000020351A7
:0C035100787FE4F6D8FD75812002039847
:10016200BB010689828A83E0225002E722BBFE029B
:09017200E32289828A83E49322CE
:10045A00C2D5E830E70FB2D5E4C39BFBE49AFAE4CD
:10046A0099F9E498F8EC30E717B2D5120490120122
:10047A00EEE4C39BFBE49AFAE499F9E498F8800362
:10048A001201EE30D50DE4C39FFFE49EFEE49DFD0C
:04049A00E49CFC22C0
:0E017B00C3E49FFFE49EFEE49DFDE49CFC2295
:10018900EB9FF5F0EA9E42F0E99D42F0EC6480C8ED
:0601990064809845F0228D
:10019F00E8600FEFC333FFEE33FEED33FDEC33FCBE
:0301AF00D8F12262
:10035D00020280E493A3F8E493A34003F68001F234
:10036D0008DFF48029E493A3F85407240CC8C333A1
:10037D00C4540F4420C8834004F456800146F6DF70
:10038D00E4800B010204081020408090055FE47E9C
:10039D00019360BCA3FF543F30E509541FFEE49365
:1003AD00A360010ECF54C025E060A840B8E493A32C
:1003BD00FAE493A3F8E493A3C8C582C8CAC583CA57
:1003CD00F0A3C8C582C8CAC583CADFE9DEE780BE0F
:010576000084
:1001B20075F008758200EF2FFFEE33FECD33CDCC04
:1001C20033CCC58233C5829BED9AEC99E582984087
:1001D2000CF582EE9BFEED9AFDEC99FC0FD5F0D664
:1001E200E4CEFBE4CDFAE4CCF9A88222B800C1B98E
:1001F2000059BA002DEC8BF084CFCECDFCE5F0CBCC
:10020200F97818EF2FFFEE33FEED33FDEC33FCEB04
:1002120033FB10D703994004EB99FB0FD8E5E4F9BF
:10022200FA227818EF2FFFEE33FEED33FDEC33FCAC
:10023200C933C910D7059BE99A4007EC9BFCE99AA0
:10024200F90FD8E0E4C9FAE4CCFB2275F010EF2FE5
:10025200FFEE33FEED33FDCC33CCC833C810D707E5
:100262009BEC9AE899400AED9BFDEC9AFCE899F820
:0E0272000FD5F0DAE4CDFBE4CCFAE4C8F922B3
:00000001FF
