:020000040800F2
:1000000008950324AD020008E91510083720000800
:10001000D92400081F0010080B2E00080000000063
:10002000000000000000000000000000B31D1008E8
:10003000E102100800000000F9270008031F100863
:10004000C7020008C7020008C7020008C70200086C
:10005000C7020008C7020008C7020008C70200085C
:10006000C7020008C7020008C7020008C70200084C
:1000700081040008C7020008C7020008C702000880
:10008000C7020008C7020008C7020008C70200082C
:10009000C7020008C7020008C7020008C70200081C
:1000A000C7020008C7020008C7020008C70200080C
:1000B000C7020008AD2C0008C7020008C7020008EC
:1000C000C7020008C7020008C7020008C7020008EC
:1000D000C702000801251008C7020008C70200086F
:1000E000C7020008C702000800000000C70200089D
:1000F000C7020008C7020008C7020008C7020008BC
:10010000C7020008C7020008C7020008C7020008AB
:10011000C7020008C7020008C7020008C70200089B
:10012000C7020008C7020008C7020008C70200088B
:10013000C7020008C7020008C7020008C70200087B
:1001400000000000000000000000000000000000AF
:10015000C7020008C7020008C7020008C70200085B
:10016000C7020008C7020008C7020008C70200084B
:10017000C7020008C7020008C10110080000000003
:10018000C7020008C7020008C7020008C70200082B
:10019000C7020008C7020008C7020008C70200081B
:1001A000C7020008C7020008C7020008C70200080B
:1001B000C7020008C7020008C7020008C7020008FB
:1001C000C7020008C7020008C7020008C7020008EB
:1001D000C7020008C7020008C7020008C7020008DB
:1001E000C7020008C7020008C7020008C7020008CB
:1001F000C7020008C7020008C7020008C7020008BB
:10020000C7020008C7020008C7020008C7020008AA
:10021000C7020008C7020008C7020008C70200089A
:10022000C7020008C7020008C7020008000000005B
:10023000C7020008C702000800000000C70200084B
:10024000C7020008C7020008C7020008C70200086A
:10025000C7020008C7020008C7020008C70200085A
:10026000C7020008C7020008C7020008C70200084A
:10027000C7020008C7020008C7020008000000000B
:10028000C702000800000000C702000800000000CC
:1002900000000000C7020008DFF80CD000F05AF898
:1002A0000048004711261008089503240648804797
:1002B00006480047FEE7FEE7FEE7FEE7FEE7FEE74B
:1002C000FEE7FEE7FEE7FEE7292C0008990200089A
:1002D0002DE9F05F0546002092469B46884606467B
:1002E000814640241BE0284641464746224600F00E
:1002F00020F853465A46C01A914110D31146184669
:100300002246FFF07DFE2D1A67EB01084F4622467C
:1003100001200021FFF074FE17EB00094E41201E62
:10032000A4F10104DFDC484631462A464346BDE8D5
:10033000F09F202A04DB203A21FA02F000217047C6
:1003400021FA02F3D040C2F120029140084319463D
:1003500070470000064C074D06E0E06840F00103DE
:1003600094E8070098471034AC42F6D3FFF798FFA3
:10037000DC490008FC490008F0B5BFF34F8FBFF31C
:100380006F8F1D4900200860BFF34F8FBFF36F8F41
:100390001A4C216841F400312160BFF34F8FBFF345
:1003A0006F8F164970310860BFF34F8F081F0068C8
:1003B00043F6FF75104E1036C0F34E31C0F3C9033B
:1003C00005EA4112184642EA80773760401EFAD2A9
:1003D000491EF5D2BFF34F8F206840F48030206073
:1003E000BFF34F8FBFF36F8F03484C30016841F06C
:1003F00004010160F0BD000050EF00E014ED00E0EA
:10040000002310B504E011F8014B5B1C00F8014B10
:100410009342F8D310BD000070B50E4C20200C4E56
:1004200000252660C4E90150E5602046256165612C
:10043000A561FFF097FFF5602068C16841F00101F8
:10044000C1602068016841F48041016070BD000016
:1004500000000248E40100240748016821F001017E
:1004600001600168C907FCD104480068016821F0F7
:1004700001010160704700000000024834020024BE
:100480001F48F0B41F4C204E1F4A603C0068603E7D
:100490001C4BB83A1C4D984201D91C4903E0A042BC
:1004A00003D91849B439096809E0A84202D91549A5
:1004B000B839F8E7B04201D9516800E0116811F489
:1004C000006F1AD098424FF4006102D90F48001D06
:1004D00008E0A04202D90B48AC3803E0A84203D997
:1004E0000848B038016004E0B04201D9D16000E0B2
:1004F000916007484068F0BC0047F0BC70470000BE
:1005000034020024B8040240B800024000540258EB
:100510002800002401681823CAB2103AB2FBF3F293
:10052000054B6FF30901032A9B5CC36500D9091DC4
:1005300081650846704700001828100810B5124958
:100540000123026854188C2CD1B20AD8142208391D
:10055000B1FBF2F10D4A02EB810202660B4A8032D6
:100560000EE018241039B1FBF4F1094C2244A82AFA
:1005700000D80831074A02EB81020266054A803240
:100580008B40C0E9192310BDF8ABFDA700580258F5
:10059000F0FBFDBF0008024010B5017903684A1E58
:1005A000072A14D80A4C23448C2B06D8094B03EB9A
:1005B0008101C1660749443105E0074B03EB810126
:1005C000C16605494431016701219140416710BD71
:1005D000F8ABFDA7FC580258FC08024010B501F129
:1005E000E9FF0748022100F0D6F906490878401CC7
:1005F000087005480068C16841F00101C16010BD84
:100600000000025828000024E40100242DE9F041F4
:100610000446006805694FF00406234F69070BD5AF
:100620004661E06C40F00200E06484F83560A06C44
:100630000765A06CFFF04CFFA8070DD521680220CC
:100640004861E06C40F00100E06484F83560A06C23
:100650000765A06CFFF03CFFE80605D52168102077
:100660004861204600F022F8280705D521680820B7
:1006700048612046FFF0D2FEE80712D020680168EA
:10068000890703D5C16821F01E01C1602068C168D7
:1006900021F00101C1602168012048612046FFF777
:1006A0009DFFBDE8F0810000BD001008704700000C
:1006B000324800B587B0016841F00101016000686F
:1006C00000F0010005902D48001D016841F0010176
:1006D0000160016801F001010591016841F002012A
:1006E0000160016801F002010591016841F0040117
:1006F0000160016801F004010591016841F0080101
:100700000160016801F008010591016841F01001E4
:1007100001600068694600F01000059050200090CC
:100720000220019001200290032003900D200490EC
:10073000134800F037F8802000901248694600F016
:1007400031F8C02000901048694600F02BF80820CE
:1007500000900E48694600F025F8732000900C4880
:10076000694600F01FF8032202214E2000F084F9B0
:100770004E2000F178F807B000BD0000DC440258BC
:10078000000002580004025800080258000C0258E9
:10079000001002580248016841F0010101607047F1
:1007A000200400582DE9F84F6C4C00224FF0B04A5D
:1007B0004FF0010B4FF0030E4FF00F090B680BFACF
:1007C00002F73B40BB4270D14D68022D01D0122D83
:1007D00012D1D50800EB850CDCF820605507ED0E32
:1007E00009FA05F826EA0806D1F8108008FA05F893
:1007F00048EA0608CCF82080D0F80080560091F82E
:1008000004C00EFA06F50CF0030C28EA05080CFAF1
:1008100006FC4CEA080CC0F800C0D1F804C0BCF1DA
:10082000010F08D0BCF1020F05D0BCF1110F02D0AE
:10083000BCF1120F16D1D0F808C0D1F80C802CEA08
:10084000050C08FA06F848EA0C08C0F80880D0F849
:1008500004C02CEA070C0F79C7F30017974047EA4A
:100860000C074760C768AF438D68B5403D43C5601E
:100870004D68ED006BD53A4D2E6846F002062E60AD
:100880002D6822F0030606F1B04605F0020500953A
:10089000D6F808C495072F0F09FA07F52CEA050CBE
:1008A000304DA84202D100252EE050E02E4DA84246
:1008B00001D1012528E02D4DA84201D1022523E0D8
:1008C0002B4DA84201D103251EE02A4DA84201D19B
:1008D000042519E0284DA84201D1052514E0274D33
:1008E000A84201D106250FE0254DA84201D10725D8
:1008F0000AE0244DA84201D1082505E0224DA84276
:1009000001D1092500E00A25BD4045EA0C05C6F8DD
:10091000085425684E689D43F60300D51D432560A5
:1009200065684E689D43B60300D51D436560DAF8DF
:10093000005056464F689D43FF0200D51D43356069
:1009400075684F689D43BF0200D51D437560521CFA
:10095000102AFFF433AFBDE8F88F00008000005884
:10096000F4440258000002580004025800080258DB
:10097000000C0258001002580014025800180258C7
:10098000001C025800200258002402580069084048
:1009900000D00120704742694A4042617047000020
:1009A000014880687047000018000024032010B53B
:1009B00000F082F80F2000F007F808B1012010BD08
:1009C000FFF050FF002010BD70B50D4D04464FF4F0
:1009D0007A712878B1FBF0F00A490968B1FBF0F0B0
:1009E00001F076F948B9102C07D200222146501E9A
:1009F00000F042F800206C6070BD012070BD000066
:100A00001800002404000024134A41781160111DCD
:100A100003780A1DE3B143680B60017BC37A0907C1
:100A200041EA0361837A41EAC341437B41EA83415E
:100A3000837B41EA4341C37B41EA0341437A41EA74
:100A40000321037A007841EA4301014311607047B2
:100A5000002008601060704798ED00E0BFF35F8FE2
:100A60000448016821F4803101600249002070319E
:100A70000860704724ED00E00E4BF0B41B68C3F330
:100A80000223C3F10704042C00D904241D1D072DE3
:100A900001D2002300E0DB1E012606FA04F56D1EDC
:100AA0000D409D409E40761E164045EA0601F0BC72
:100AB00002F0ACB90CED00E0064A00F00701106846
:100AC0004FF6FF03184040EA012003490843106035
:100AD000704700000CED00E00000FA0510B500F0D2
:100AE000D5FD07490968102292FAA2F201F07001BF
:100AF000B2FA82F2D140034A515CC84010BD0000F6
:100B00002044025808281008364930B50A68096898
:100B100012F00302344BC1F305311B68334C03F070
:100B200010032468DFED320AB7EE001AC4F3CC04D8
:100B300014FB03F300EE103A2E4BB8EE400A07D038
:100B40002D4C012A01D0022A4AD0B4FBF1F10BE06E
:100B5000244C283C22689506284A03D52468C4F30F
:100B6000C104E240B2FBF1F101EE901A1968B8EE4F
:100B7000612AC1F3080101EE901A1968F8EE611AB2
:100B800040EE201A31EE810A22EE000AC1F346211E
:100B9000491C00EE901AF8EE600A80EE201AFCEE76
:100BA000C10AC0ED000A1968C1F30641491C00EEF4
:100BB000901AF8EE600A80EE201AFCEEC10AC0ED31
:100BC000010A1968C1F30661491C00EE901AF8EE9B
:100BD000600A80EE201ABCEEC10A80ED020A30BD28
:100BE000074ABFE7284402582C4402583C440258A4
:100BF000000000393844025800093D000090D0033D
:100C000040787D012DE9F84F0446006800252E4606
:100C1000010104F12400FE4FDFF8F88300901DD598
:100C2000606E50B1B0F5801F0CD0B0F5001F0ED033
:100C3000B0F5401F1DD001250FE0386840F40030AA
:100C4000386016E00221201D00F162FE03E00098EA
:100C5000022101F0D3FD05000BD02E462088C005EF
:100C600023D5606D05281ED2DFE800F00C11161B9D
:100C70001B00D8F80010626E21F440111143C8F82F
:100C80000010EBE7386840F40030386009E00021DC
:100C9000201D00F13DFE03E00098002101F0AEFDB3
:100CA00005466DB100E001252E432088800528D53A
:100CB000A06D80281ED00CDC90B140280ED114E02D
:100CC000D8F80010626D21F007011143C8F8001038
:100CD000EBE7C02813D0B0F5807F10D001250FE0DE
:100CE000386840F40030386009E00021201D00F130
:100CF0000FFE03E00098002101F080FD054685B15C
:100D00002E432088DFF8109340052CD5D4F8A4009A
:100D1000B0F5800F20D00DDCA0B1B0F5001F0FD1D1
:100D200015E0D8F80010A26D21F4E0711143C8F865
:100D30000010E6E7B0F5C00F13D0B0F5000F10D0EB
:100D400001250FE0386840F40030386009E00021E8
:100D5000201D00F1DDFD03E00098002101F04EFDB3
:100D6000054675B12E43208800052DD5D4F8A8007E
:100D7000B0F1007F21D00EDCA8B1B0F1807F10D19E
:100D800016E0D9F80010D4F8A42021F46001114332
:100D9000C9F80010E7E7B0F1407F13D0B0F1806FE1
:100DA00010D001250FE0386840F40030386009E0C9
:100DB0000021201D00F1ACFD03E00098002101F0AE
:100DC0001DFD05466DB12E43206880011FD5A06C26
:100DD000D8B110280FD0202812D0302815D00125E6
:100DE00014E0D9F80010D4F8A82021F0E0611143F4
:100DF000C9F80010E8E7386840F40030386004E0D3
:100E00000221201D00F184FD05466DB12E4320888E
:100E1000C0042BD5E06DB0F5005F20D00DDCA0B193
:100E2000B0F5805F0FD115E07A48001F0168A26C11
:100E300021F0300111430160E9E7B0F5405F13D0C4
:100E4000B0F5804F10D001250FE0386840F4003035
:100E5000386009E00021201D00F15AFD03E00098F0
:100E6000002101F0CBFC054685B12E43208880048B
:100E700029D5206EB0F5403F23D010DC08B3B0F583
:100E8000803F14D0B0F5003F0FD115E0D8F8001026
:100E9000E26D21F4E0411143C8F80010E6E7B0F537
:100EA000802F0ED0B0F5A02F0BD001250AE0012134
:100EB000201D00F12DFD03E00098012101F09EFCB2
:100EC00005468DB12E43208840042AD5D4F8AC00C5
:100ED000B0F1405F23D010DC08B3B0F1805F14D0D4
:100EE000B0F1005F0FD115E0D8F80010226E21F4A8
:100EF000E0211143C8F80010E5E7B0F1804F0ED0B3
:100F0000B0F1A04F0BD001250AE00121201D00F116
:100F1000FFFC03E00098012101F070FC05466DB173
:100F20002E43208800041FD5E06ED8B1B0F1805F59
:100F30000ED0B0F1005F10D0012514E0D9F80010F8
:100F4000D4F8AC2021F0E0411143C9F80010E8E7E3
:100F5000386840F40030386004E00121201D00F1C1
:100F6000D7FC05466DB12E432068C0011ED5606CCC
:100F7000D0B101280ED0022811D0032814D00125A9
:100F800013E0D8F80010E26E21F040511143C8F888
:100F90000010E9E7386840F40030386004E00221CE
:100FA000201D00F1B5FC054675B12E432068DFF821
:100FB0006CB040025AD51A48016841F48071016052
:100FC000FFF7EEFC82460EE01248001F0168626CDB
:100FD00021F0030111430160E8E7FFF7E1FCA0EB1A
:100FE0000A0064283AD80E480068C005F5D5B5BB9C
:100FF000094818300068B4F8B01000F4407001F4EB
:101000004071884219D00448183001680AE0000095
:101010002C44025850440258584402581044025874
:1010200000480258026821F4407142F480320260A4
:10103000026822F4803202600160D4F8B000B0F59A
:10104000807F22D1FFF7ACFC824609E0FFF7A8FCC5
:10105000A0EB0A0141F28830814201D9032504E066
:10106000FE4800688007F1D57DB12E432078DFF877
:10107000F0A3C0073CD0A06F182837D025DC78B388
:10108000082828D0102824D12BE0D4F8B000C0F3D1
:10109000012103290ED0DBF8001021F47C51CBF89C
:1010A0000010EE480168B4F8B020C2F30B021143FF
:1010B0000160DBE7DBF80020EA4B22F47C5203EA14
:1010C00010100243CBF80020EBE720280ED0282890
:1010D0000CD001250BE00121201D00F119FC04E0DA
:1010E00004E00098012101F089FB05465DB12E4323
:1010F000207880071ED5606F062819D2DFE800F03F
:10110000160C11161616DAF80010A26F21F038012D
:101110001143CAF80010EBE70121201D00F1F8FB94
:1011200003E00098012101F069FB054675B100E07C
:1011300001252E43207840071FD5D4F890000628BB
:1011400019D2DFE800F0160C11161616DAF80010A6
:10115000626F21F007011143CAF80010EAE701218C
:10116000201D00F1D5FB03E00098012101F046FBB2
:1011700005469DB100E001252E43207880062BD541
:10118000D4F88C00B0F1405F24D011DC10B3B0F182
:10119000805F15D0B0F1005F10D116E0D9F80010D3
:1011A000D4F8902021F007011143C9F80010E4E7BA
:1011B000B0F1804F0ED0B0F1A04F0BD001250AE066
:1011C0000021201D00F1A4FB03E00098022101F0A2
:1011D00015FB05468DB12E43207840062BD5D4F85B
:1011E0009800B0F5406F24D011DC10B3B0F5806FDB
:1011F00015D0B0F5006F10D116E0DAF80010D4F871
:101200008C2021F0E0411143CAF80010E4E7B0F56A
:10121000805F0ED0B0F5A05F0BD001250AE0002161
:10122000201D00F175FB03E00098022101F0E6FAB1
:1012300005468DB12E43207800062BD5D4F89C00AE
:10124000B0F5C04F24D011DC10B3B0F5005F15D05D
:10125000B0F5804F10D116E0D9F80010D4F89820DE
:1012600021F4E0511143C9F80010E4E7B0F5004F54
:101270000ED0B0F5204F0BD001250AE00021201D33
:1012800000F146FB03E00098022101F0B7FA0546A1
:1012900065B32E43207800070BD5D4F88000B0F555
:1012A000805F2DD0DAF8002022F440520243CAF8C1
:1012B00000202078C0060BD5D4F89400B0F5807FCC
:1012C00024D0D9F8002022F440720243C9F800204B
:1012D000206800032CD5D4F8A000E8B1B0F5803F19
:1012E0001FD0B0F5003F21D0012520E0D9F8001033
:1012F000D4F89C2021F460411143C9F80010C9E7DB
:101300000098022101F07AFA0643D2E70098022100
:1013100001F074FA0643DBE70021201D00F1F8FA22
:1013200003E00098022101F069FA054685B12E43D9
:101330002068400322D5D4F88400B0F5801F11D076
:10134000B0F5001F13D0B0F5401F15D0012514E0F3
:10135000D9F80010D4F8A02021F440311143C9F885
:101360000010E5E7386840F40030386004E0009889
:10137000012101F043FA054655B12E432068C00310
:101380001CD5E06C70B1B0F5803F10D0012514E0A1
:10139000DAF80010D4F8842021F440111143CAF87F
:1013A0000010EBE7386840F40030386004E00221B8
:1013B000201D00F1ADFA0546C5B12E43206880001E
:1013C00004D50098022101F019FA06432068800331
:1013D0001BD5E06FB8B1B0F5807F10D0B0F5007FBD
:1013E00011D0B0F5407F0ED001250DE01C48083823
:1013F0000168E26C21F4803111430160DEE7386856
:1014000040F40030386045B32E432068C00207D551
:10141000D8F80000226F20F000401043C8F8000008
:101420002068C00008D5DBF80010D4F8B42021F4FF
:1014300080411143CBF800102068800207D5D8F80E
:101440000010A26E21F080711143C8F800102068CE
:10145000400014D5DBF8001006E01EE0704402588E
:1014600054440258CFFFFF0021F40041CBF8001094
:10147000DBF80010D4F8B8201143CBF80010206836
:10148000002806DA0A480168226D21F04051114314
:1014900001605EB10120BDE8F88FDAF80010E26F5C
:1014A00021F440711143CAF80010AEE70020F2E7C2
:1014B0004C4402582DE9F047DFF8BC9104460E4633
:1014C000D9F8000000F00700B0420CD2D9F80010A3
:1014D00021F007013143C9F80010D9F8000000F0ED
:1014E0000700B0427ED12078DFF89081800707D5D1
:1014F000D8F80010E26821F00F011143C8F800107D
:101500002078C00762D0D8F80010A26821F470617A
:101510001143C8F8001059496068183902281CD0D6
:1015200003281DD0096801281DD04907002960DA69
:10153000524F083F396821F0070101433960FFF736
:101540002FFA0546606841F28831022813D003283B
:101550001ED001288A4627D034E009688903E5E7D0
:1015600009688901E2E7C905E0E7FFF719FA411BBD
:10157000514501D923E08A463868C0F3C2000228E9
:10158000F3D123E0FFF70CFA411B514501D916E0D6
:101590008A463868C0F3C2000328F3D116E0FFF78B
:1015A000FFF9411B51450AD83868C0F3C200012831
:1015B000F5D10BE0FFF7F4F9411B514502D90320A7
:1015C000BDE8F087386810F0380FF3D1D9F8001073
:1015D000484601F00701B1420DD9016821F0070129
:1015E000314300E005E00160006800F00700B04210
:1015F00001D00120E4E72078400707D5D8F8001093
:10160000226921F070011143C8F800102078010709
:101610001B4805D50168626921F070011143016022
:101620002178C90605D50168A26921F4E06111435A
:1016300001602078800607D51149091D0868E26914
:1016400020F070001043086000F03AF8D8F800105D
:101650004FF4807292FAA2F201F47061B2FA82F24F
:10166000D140084A515CC840074908600F20FFF785
:10167000ABF90020A4E700000020005218440258F3
:101680001C440258082810080400002410B5FFF07C
:10169000F7F808490968012292FAA2F201F00F0155
:1016A000B2FA82F2D140044A515CC8400349086052
:1016B00010BD000018440258082810080800002433
:1016C0003548F0B50068364D10F03801334809D080
:1016D0000411082904D0334E10290BD018290BD03F
:1016E0002046F0BD29688906FBD52968C1F3C101F0
:1016F000C840F0BD3046F0BD274918310A68096876
:1017000012F00302284BC1F305111B68274F03F0A9
:1017100001033F68DFED260AB7EE001AC7F3CC07D6
:1017200017FB03F300EE103A224BB8EE400A06D046
:10173000012A01D0022A2BD0B4FBF1F008E02A687C
:10174000920603D52A68C2F3C102D040B0FBF1F083
:1017500001EE900A1868B8EE612AC0F3080001EEA5
:10176000900A1868F8EE611A40EE201A31EE810AEC
:1017700022EE000AC0F34620401C00EE900AF8EE6C
:10178000600A80EE201ABCEEC10A10EE100AF0BD0D
:10179000B6FBF1F0DCE70000104402580090D003E3
:1017A0000044025840787D012C44025834440258C9
:1017B00000000039304402582DE9F05F04460078FB
:1017C000DFF8FC8341F28839DFF8F8A3FE4DC0074B
:1017D0004ED0D8F800104046C1F3C20102291AD0F9
:1017E0000068C0F3C200032805D1DAF8000000F059
:1017F000030002280FD06068B0F5803F12D010B10E
:10180000B0F5A02F19D0286820F48030286028680F
:1018100020F4802009E02868800329D5606800282A
:1018200074D025E0286840F480302860606890B16A
:10183000FFF7B6F806464F4609E0286840F48020D6
:101840002860EFE7FFF7ACF8801BB8427DD8286826
:101850008003F7D50CE0FFF7A3F806464F4604E0F7
:10186000FFF79EF8801BB842F0D828688003F7D4B1
:101870002078D64F80075AD5D8F8001040464FF44C
:101880007C3B11F0380F13D00068C0F3C20003286E
:1018900003D1DAF8000080070AD0E068A8B329680D
:1018A00021F0190101432960FFF77AF806461DE08F
:1018B0002868400702D5E0680028B1D02868E168B0
:1018C00020F0190008432860FFF76AF8064604E094
:1018D000FFF766F8801B0228B8D828684007F7D5BC
:1018E00007E0FFF75DF8801B0228AFD828684007A3
:1018F000F7D538689BFAABF220F47C312069B2FA54
:1019000082F290400143396011E000E0AEE02868C7
:1019100020F001002860FFF743F8064604E0FFF7D7
:101920003FF8801B022891D828684007F7D4207818
:10193000C00655D5D8F8001040464FF0F84BC1F31B
:10194000C201012917D0006800E0EDE0C0F3C20039
:10195000032805D1DAF8000000F0030001280AD0BE
:10196000E069002828682CD040F080002860FFF74C
:1019700017F8064616E02868C00502D5E0698028F9
:1019800074D138689BFAABF220F0F841206AB2FAC1
:1019900082F290400143396022E0FFF701F8801B9A
:1019A000022899D82868C005F7D538689BFAABF2A9
:1019B000216AB2FA82F220F0F84091400843386080
:1019C0000EE020F080002860FEF7EAFF064604E003
:1019D000FEF7E6FF801B022887D82868C005F7D4E9
:1019E0002078000724D5774F60694C370028386885
:1019F0000FD040F001003860FEF7D2FF064604E049
:101A0000FEF7CEFF801B02288DD838688007F7D5F7
:101A10000EE020F001003860FEF7C2FF064604E049
:101A2000FEF7BEFF801B02287ED838688007F7D4F7
:101A30002078800623D5A069002828680FD040F4BC
:101A400080502860FEF7ACFF064604E0FEF7A8FFD2
:101A5000801B022868D828688004F7D50FE020F49E
:101A600080502860FEF79CFF064605E0D6E0FEF7B2
:101A700097FF801B022857D828688004F7D4207865
:101A8000400744D5524F386840F480703860FEF704
:101A900087FF064604E0FEF783FF801B642843D8D7
:101AA0003868C005F7D5474FA068483701280AD0E5
:101AB00008B1052811D0386820F001003860386876
:101AC00020F0040002E0386840F001003860A068AF
:101AD00088B1FEF765FF064609E0386840F004006B
:101AE0003860F0E7FEF75CFF811B49451CD8386879
:101AF0008007F7D50BE0FEF753FF064604E0FEF73C
:101B00004FFF811B49450FD838688007F7D4606ABA
:101B1000F0B3D8F80010C1F3C20103297ED0022827
:101B2000286820F0807000E079E0286003D0FEF79C
:101B300037FF044687E0FEF733FF064604E0FEF772
:101B40002FFF801B02287BD828688001F7D4DAF8A1
:101B5000001040F2F3329143E26A41EA0211A26AB4
:101B60001143CAF8001094F834004FF4FE02218E9D
:101B70004002491EA0F5007080B2C1F3080108437D
:101B8000218F491E02EA0141084394F83C1000E00D
:101B90005CE0491E120202EA01610843094908316A
:101BA00008600B1D19684FF6F872A06C914392FA09
:101BB000A2F2B2FA82F2904001431960014809E0B2
:101BC0001044025828440258004402580444025861
:101BD00000480258001D0168226C21F00C011143DD
:101BE00001600168626C21F002011143016001682B
:101BF00041F480310160016841F400310160016805
:101C000041F480210160016841F001010160286810
:101C100040F080702860FEF7C3FE01E018E00FE09E
:101C2000044604E0FEF7BCFE001B022808D8286822
:101C30008001F7D50AE0FEF7B3FE001B022802D9A7
:101C40000320BDE8F09F28688001F4D40020F8E765
:101C50000120F6E7164800B5B5B0016841F0020171
:101C60000160006800F002003490114808300168FB
:101C700041F480410160006800F4804034904FF4EA
:101C800080500090002017906846FEF7BBFF4FF48D
:101C900060402F900220309001203190032032903C
:101CA0000520339003482FA9FEF77CFD35B000BD19
:101CB000E0440258000402584FF0E021042808696B
:101CC00003D020F004000861704740F00400FAE7F8
:101CD000401EB0F1807F10B501D3012010BD4FF040
:101CE000E02460610F21601701F090F80020A061EE
:101CF00007202061002010BD704770B504460068C1
:101D000001694FF00005C943890715D4C168C9436B
:101D1000890711D4E91E01610120207720688069BC
:101D20008007204602D0FFF0ECF804E000F0A5F8B0
:101D30002046FFF0E7F8257720680169C943490785
:101D400017D4C168C943490713D46FF00401016176
:101D5000022020772068806910F4407F204602D05E
:101D6000FFF0CFF804E000F088F82046FFF0CAF852
:101D7000257720680169C943090716D4C168C9439A
:101D8000090712D46FF00801016104202077206850
:101D9000C0698007204602D0FFF0B3F804E000F0ED
:101DA0006CF82046FFF0AEF8257720680169C9433A
:101DB000C90617D4C168C943C90613D46FF010010E
:101DC0000161082020772068C06910F4407F204618
:101DD00002D0FFF096F804E000F04FF82046FFF044
:101DE00091F8257720680169C943C90708D1C168FE
:101DF000C943C90704D1891E0161204600F03EF89D
:101E0000206801696FF08005C943090607D4C168DD
:101E1000C943090603D405612046FFF071F8206824
:101E20000169C943C90507D4C168C943090603D478
:101E300005612046FFF064F820680169C94349063E
:101E400009D4C168C943490605D46FF04001016156
:101E5000204600F01FF820680169C94389060BD4A9
:101E6000C168C943890607D46FF02001016120468B
:101E7000BDE87040FFF740BF70BD7047034988421E
:101E800003D103480221FEF786BD7047AC0200244F
:101E90000000025870477047704790F8791090F82A
:101EA0007A000843704710B5040003D094F8790015
:101EB00010B107E0012010BD002084F87800204612
:101EC00000F026F8242084F879002068016821F0C9
:101ED00001010160204600F153F80128EBD0606B4E
:101EE00010B1204600F0E8FE2068416821F49041DE
:101EF00041602068816821F02A01816020680168C2
:101F000041F0010101602046BDE81040FFF0FBBF39
:101F100010B5006886B01B49884230D11A48016864
:101F200041F001010160006800F0010005901648D1
:101F30001030016841F01001016000680121134C6C
:101F400000F0100005904FF4007000900220CDE9E1
:101F5000010103900720694604902046FEF722FC09
:101F60004FF48061204600916946FEF71BFC252056
:101F7000FEF079FC032225201146FEF77DFD06B018
:101F800010BD000000100140E0440258000002585B
:101F900090F87A30202B4CD1B9B1B2B190F87830AA
:101FA000012B46D0012380F878304166A0F86820E4
:101FB000A0F86A20FF228168B1F5805F07D07F23F7
:101FC00051B1B1F1805F0CD010E001207047016980
:101FD00021B940F2FF1107E0016909BBA0F86C20AC
:101FE00004E00169E1B13F21A0F86C100021C16754
:101FF000222280F87A2080F8781001688A6842F0FE
:1020000001028A6001680A6892000CD50A6842F4ED
:1020100080720A600068816841F08051816006E04A
:10202000A0F86C30E2E7086840F490700860002087
:10203000704702207047FEE72DE9F0410D4F002464
:102040000646214620467B883A8800F051F93D88B3
:10205000002178884543084600F036F9FFF070FA11
:1020600003E0304600F0CCF9641CAC42F9D3BDE883
:10207000F0810000F49003242DE9F0410B4C16464A
:102080000F460546608900F0D9F9284600F0B8F9F6
:10209000A08900F0D3F9384600F0B2F9208900F0A9
:1020A000CDF93046BDE8F04100F0AAB9F490032420
:1020B0001A4810B586B0016841F00201016000685D
:1020C0006946174C00F00200059041F203000090B1
:1020D000012001900290032003902046FEF762FB4E
:1020E000012220461146FEF09EFB012220460221DD
:1020F000FEF099FB012220461103FEF094FB00F054
:10210000E9FC002000F024FDFFF0CCF9012220467C
:102110001146FEF088FB06B010BD0000E0440258F6
:102120000004025810B5FFF7C3FFFFF0E4F93220B6
:1021300001F0C2F8362000F081F90020FFF0E4F948
:102140003A2000F07BF90520FFF0DEF9B22000F024
:1021500075F90C20FFF0D8F90C20FFF0D5F900201C
:10216000FFF0D2F93320FFF0CFF93320FFF0CCF9A4
:10217000B72000F063F93520FFF0C6F9BB2000F06E
:102180005DF91920FFF0C0F9C02000F057F92C20AC
:10219000FFF0BAF9C22000F051F90120FFF0B4F9C4
:1021A000C32000F04BF91220FFF0AEF9C42000F07C
:1021B00045F92020FFF0A8F9C62000F03FF90F20D4
:1021C000FFF0A2F9D02000F039F9A420FFF09CF92B
:1021D000A120FFF099F9E02000F030F9D020FFF0C5
:1021E00093F90420FFF090F90D20FFF08DF91120F4
:1021F000FFF08AF91320FFF087F92B20FFF084F914
:102200003F20FFF081F95420FFF07EF94C20FFF0D1
:102210007BF91820FFF078F90D20FFF075F90B20FD
:10222000FFF072F91F20FFF06FF92320FFF06CF927
:10223000E12000F003F9D020FFF066F90420FFF060
:1022400063F90C20FFF060F91120FFF05DF9132015
:10225000FFF05AF92C20FFF057F93F20FFF054F916
:102260004420FFF051F95120FFF04EF92F20FFF0EC
:102270004BF91F20FFF048F91F20FFF045F92020FF
:10228000FFF042F92320FFF03FF9212000F0D6F8BB
:10229000112000F0D3F8782001F00EF8292000F08A
:1022A000CDF8C82001F008F80020FFF09BF80122CB
:1022B00004481146FEF0B7FABDE810404FF6FF7033
:1022C000FFF7BABE0004025870B5084C0D4606462A
:1022D000608900F0B3F8304600F092F8A08900F071
:1022E000ADF82846BDE8704000F08AB8F4900324A9
:1022F0002DE9F04104460E4F10448846401E86B238
:10230000C818401E85B2788900F098F8204600F081
:1023100077F8304600F074F8B88900F08FF840463E
:1023200000F06EF82846BDE8F04100F069B8000002
:10233000F49003242DE9F84F1F460C4682468B4645
:10234000580700D00120790800EBD700203A10FB95
:1023500001F0002602F0FF09C0B2009040E00C2F0F
:102360000FD0102F11D0182F3DD1204909EBC900F3
:1023700001EB80004FF00008855D280609D50A9A18
:102380000BE01B4909EB4900F2E71A4901EB091080
:10239000F0E70B9828B91848428821465046FFF7C5
:1023A0006BFE6806641C050E1448A4B24088A04267
:1023B00019D9A4EB0B00B84209D10AF101005C461F
:1023C0001FFA80FA0D48018851450CD906E008F142
:1023D000010000F0FF08B8F1080FCED3761CF6B26A
:1023E00000988642BBD3BDE8F88F0000443900084E
:1023F000763D10085433000878000024F49003243C
:1024000070B50D4E4FF480550022044629463046E3
:10241000FEF009FA012230460221FEF004FA200AF9
:1024200000F086FBE0B200F083FB29463046BDE8B1
:1024300070400122FEF0F7B90004025870B50C4E4E
:102440004FF480550022044629463046FEF0EBF951
:10245000002230460221FEF0E6F9E0B200F068FB0F
:1024600029463046BDE870400122FEF0DCB900008C
:102470000004025810B50C46FFF7E0FFE0B2BDE8DB
:102480001040FFF041B83EB5002501241021009412
:10249000032322464806CDE90145FFF079F81221D1
:1024A0000094032302224806CDE90145FFF070F8AD
:1024B0000323009412211A461807CDE90145FFF0C5
:1024C00067F80094032304220F21CDE901454FF062
:1024D0006050FFF05DF83EBD0F4800220221FEF083
:1024E000A2F90EA000F12EF84FF47A74204600F005
:1024F000E3FE10A000F126F8204600F0DDFEBFF359
:102500004F8F11480168114A01F4E06111430160E5
:10251000BFF34F8F00BFFDE7000002584D656D20EF
:10252000416363657373204572726F7221210D0AD6
:1025300000000000536F6674205265736574696E05
:10254000672E2E2E0D0A00000CED00E00400FA05A7
:1025500070B50428044602D2C4F1040000E0201F34
:1025600043F21226C5B23046032100F027F92807AE
:10257000010E45F2875000F021F9042C45F28850F5
:1025800001D2092100E0012100F018F913213046A1
:1025900000F014F93046BDE87040A32100F00EB9F8
:1025A0002DE9F04143F2122705460321384600F099
:1025B00005F91C2145F2813000F000F95A2145F25D
:1025C000823000F0FBF8062145F2833000F0F6F887
:1025D000114905EB4500002445F2843601EB400526
:1025E000A019295D00F0EAF8641CE4B2062CF7D3C8
:1025F000982145F28B3000F0E1F8012145F28A3054
:1026000000F0DCF81321384600F0D8F83846BDE871
:10261000F041A32100F0D2B8063D100870B50025A6
:102620002024072814D2DFE800F0040609130B0E5B
:102630001100142400E01824254609E01C24FBE7BF
:102640001025242404E01825282401E01C252C242E
:1026500043F212260321304600F0B0F8294645F235
:10266000855000F0ABF8214645F2865000F0A6F800
:102670001321304600F0A2F83046BDE87040A32197
:1026800000F09CB8044B20B1012218462021FEF036
:10269000CAB80022F9E70000000002582DE9F04115
:1026A0004FF44058202140464FF4004500F086F892
:1026B000274E002440F6ED772846315D00F07EF885
:1026C0006D1C641CA4B2ADB2BC42F5D3002143F230
:1026D000220000F073F8002143F2230000F06EF8AE
:1026E000002143F2240000F069F8002143F22500A4
:1026F00000F064F8002143F2260000F05FF80021AA
:1027000043F2270000F05AF8002143F2280000F0BD
:1027100055F843F229067F21304600F04FF800219A
:10272000404600F04BF800244FF47A753046FFF035
:1027300099F80746052000F0BFFD641CA4B2AC4226
:1027400002D90120BDE8F081702FEFD10020F9E718
:10275000CC2C100870B543F21226054603213046F2
:1027600000F02CF80B490024C5EBC500451804F512
:102770005050295D00F022F8641CE4B2072CF6D317
:102780001321304600F01AF83046BDE87040A3210E
:1027900000F014B8E33C100870B5074D002405EBB9
:1027A0008400817835F8240000F008F8641CA4B295
:1027B0002D2CF4D370BD0000DC28100870B5002467
:1027C0000E460546FFF0DAF97820FFF019FA00B15D
:1027D0000124280AFFF014FA00B10124E8B2FFF046
:1027E0000FFA00B101243046FFF00AFA00B10124CB
:1027F000FFF0E6F9204670BD704700002DE9F04774
:10280000DFF8E48004460F464FF00009D8F80000D6
:10281000C043800709D0344D283D286820F08050FF
:102820002860FEF7BDF8064607E00120BDE8F08706
:10283000FEF7B6F8801B02284ED828688000F7D42F
:10284000D8F80010228821F07C7141EA0251C8F8C2
:102850000010207A4FF4FE02A1884002491EA0F524
:10286000007080B2C1F308010843A189491E02EA41
:1028700001410843217C1202491E02EA016108431A
:102880001949183108601848001D0168626921F46F
:102890004061114301600168A26921F40071114394
:1028A00001606FB10168012F0ED041F080710160AD
:1028B000286840F080502860FEF772F804460DE06A
:1028C000016841F48001F2E741F40001EFE7FEF70F
:1028D00067F8001B022801D90320A7E728688000B9
:1028E000F5D54846A2E70000284402584FF6FF708D
:1028F00008B5FFF7A1FB1F2232211E2042A3FDF0E5
:10290000F1FC1F2246211E2042A3FDF0EBFCFFF745
:1029100043FFFFF7C3FE0020FFF71CFF0320FFF774
:102920003FFE0420FFF714FE0320FFF777FE21206F
:10293000FEF0B5FFFEF059FEFDF76EFD3B494FF48A
:1029400000533B4C384808604FF48060009020886A
:1029500038494208A1F57070FDF0C0FB512143F2E7
:102960003500FFF72BFF6388002122880420FEF04A
:102970002DFFFDF02BFC0020FFF75EFB2E4E002507
:102980002E4C4FF448770020FEF0EAFC012830700E
:1029900002D0022825D02FE0A078401CC0B2A07041
:1029A000032801D3A57027E0012802D002280CD00B
:1029B00022E01F2232211E2021A3FDF093FC384685
:1029C00000F07AFCFDF748FD16E01F2232211E20A0
:1029D00020A3FDF087FC384600F06EFCFDF0F6FB0E
:1029E0000AE01F2232211E201FA3FDF07BFC384687
:1029F00000F062FCFEF032FEA0880028C3D0A58063
:102A0000FEF0FEFFBFE700002053544D333248373D
:102A1000353000004F563536343020524742353677
:102A200035204D6F64650000093300082C00002438
:102A3000F4900324AC8C0324000000243400002410
:102A40004F56353634303A2044434D495F53746F06
:102A5000700000004F56353634303A2044434D491B
:102A60005F537461727400004F56353634303A202B
:102A7000466F6375730000002DE9F0410024FFF0FC
:102A800057F80825124E4FF40068EF01052000F0BA
:102A900021FC012239463046FDF0C5FE6006414664
:102AA000040E3046FDF772FF08B1641CE4B2052045
:102AB00000F010FC002239463046FDF0B4FE6D1ED9
:102AC00015F0FF05E2D1FFF047F82046BDE8F081A0
:102AD0000004025810B5154C072113484FF000723E
:102AE00004F1080320604FF480006060002083E858
:102AF0000700521062619200A261CA0760636265BA
:102B00000A07C4E907206062C4E90A012046FDF013
:102B10007BFF2068016841F001010160BDE81040C1
:102B2000FF2000F005B80000003800406C9003243E
:102B300001B582B04FF47A700123009001AA0348D6
:102B400002A9FEF051F89DF804000EBD6C9003241C
:102B50000A4A11680B6823F001030B6011688B6847
:102B600023F0E0438B6011688B6803438B6010682F
:102B7000016841F001010160704700006C9003247E
:102B800070B5274C9CB0256825F004052560244CC1
:102B900000260C34256845F440452560256805F479
:102BA00040451B952568AD04FCD5012400940CAD6F
:102BB00003962404019402240994CDE90A4107965E
:102BC000082485E80D00CDE910466846FEF7F4FDBF
:102BD00000B1FEE73F2013900320CDE9140640200A
:102BE0000101CDE91640CDE9180150201A900221CB
:102BF00013A8FEF75FFC00B1FEE70A48016841F048
:102C0000800101600748F430016841F00201016071
:102C1000006800F002001B90FDF7BCFD1CB070BD09
:102C20000C480258004402581C48016841F47001E5
:102C300001601B49086840F001000860184A002044
:102C4000103210600A68174B1A400A60144A183292
:102C50001060121D1060121D1060114A28321060A1
:102C6000121D1060121D1060121D1060121D1060E8
:102C7000121D1060121D1060121D10600A6822F4EF
:102C800080220A6006496031086001200649C1F8C7
:102C90000801C006014980390860704788ED00E0EE
:102CA000004402587FEDF6EA008000510148FFF72A
:102CB00024B80000AC02002490F83410C90706D0F4
:102CC00001684A68836B22F400321A434A6090F824
:102CD0003410890706D501684A68C36B22F4803234
:102CE0001A434A6090F83410490706D501684A68CB
:102CF000036C22F480221A434A6090F834100907CA
:102D000006D501684A68436C22F400421A434A60BF
:102D100090F83410C90606D501688A68836C22F4DD
:102D200080521A438A6090F83410890606D50168EB
:102D30008A68C36C22F400521A438A6090F83410F7
:102D4000490611D501684A68036D22F480121A43BE
:102D50004A60016DB1F5801F06D101684A68436D74
:102D600022F4C0021A434A6090F83410090606D5CE
:102D700001684A68806D22F4002202434A6070476D
:102D800010B5806B0021A0F86A10A0F86210FFF760
:102D900083F810BD10B5B0F86C2090F87A30016857
:102DA000222B05D0088B40F008000883022010BDBC
:102DB000898C8368B3F5805F01D103696BB11140E1
:102DC000426E531C43661170B0F86A10491E090424
:102DD000090CA0F86A1007D015E0436E1140198065
:102DE000416E891C4166EFE701680A6822F490721F
:102DF0000A6001688A6822F001028A60202180F856
:102E00007A10FEF041F9002010BDFEE70907090E17
:102E1000002804DB00F1E02080F80014704700F087
:102E20000F0000F1E02080F8141D704702E008C890
:102E3000121F08C1002AFAD170477047002001E034
:102E400001C1121F002AFBD1704700002DE9FF4F7E
:102E50008DB00F460546002606E025280BD0DDE99B
:102E60000F1290476D1C761C28780028F5D111B000
:102E70003046BDE8F08F0024A246A1460122EC496D
:102E800000E0044315F8013F203B02FA03F008423A
:102E9000F7D128782A2810D06FF02F022878A0F1D7
:102EA0003001092914D80AEB8A0102EB410144F0F0
:102EB000020400EB010A6D1CF0E701CF5FEA000A93
:102EC00003D544F40054CAF1000A44F002046D1C16
:102ED00028782E2817D115F8010F44F004042A2869
:102EE0000ED06FF02F022878A0F1300109290AD8FE
:102EF00009EB890102EB410100EB01096D1CF2E7CE
:102F000057F8049B6D1C28786C280FD006DC4C28E1
:102F100017D068280DD06A2814D104E0742810D086
:102F20007A280FD10DE044F400140AE044F4801430
:102F300001E044F440146978814202D104F5801420
:102F40006D1C6D1C2A786E2A1FD00CDC632A31D0D0
:102F500004DC002A8BD0582A11D1A3E0642A68D05F
:102F6000692A0CD165E0732A2ED004DC6F2A73D055
:102F7000702A04D19BE0752A6FD0782A6ED0104653
:102F8000DDE90F129047761C50E1C4F3025002288D
:102F900006D0032809D0042801CF09D0066045E1F6
:102FA00001CFF117C0E9006140E101CF06803DE1AA
:102FB00006703BE117F8040B8DF8000000208DF837
:102FC0000100EB46012003E057F804BB4FF0FF304F
:102FD00061074FF0000102D40DE008F101018846BD
:102FE00049450FDA8045F8DB1BF808100029F4D1B9
:102FF00008E008F1010188468142FADB1BF808105D
:103000000029F6D1DDE90F23AAEB0800814621460D
:1030100000F036F9304400EB080604E0DDE90F1259
:103020001BF8010B9047B8F10108F7D2214648463A
:10303000F7E00A21C4F302534FF0000B0891022B72
:1030400004D001CFC117032B09D00AE0FF1D27F0E0
:103050000707F7E8020108E032E01FE020E000B2D5
:10306000C117042B01D140B2C117031E71F1000337
:1030700007DA4FF0000CD0EB0C006CEB01012D23B4
:1030800002E0230504D52B238DF82430012303E02F
:10309000E30701D02023F7E7984658E00A2110E023
:1030A00010210EE010204FF0000B08900CE01021D2
:1030B0004FF0000B44F004044FF00809089103E0BE
:1030C00008214FF0000B0891C4F30253022B04D0E7
:1030D00001CF0021032B06D006E0FF1D27F00707D4
:1030E000F7E8020103E080B2042B00D1C0B24FF038
:1030F000000823072BD5702A07D0DDF820C08CF0FC
:10310000100C5CEA0B0C05D00EE040238DF8243047
:10311000012308E050EA010306D030238DF8243063
:103120008DF8252002239846DDF820C08CF0080C8D
:103130005CEA0B0C0BD150EA010301D1630706D501
:1031400030238DF824304FF00108A9F10109582AE5
:1031500004D038A20B9208AA0A920BE03AA2F9E72F
:103160005B46089AFDF7B4F80B9B9B5C0A9A521ECB
:103170000A92137050EA0102F2D10A98ADEB0000F6
:1031800000F1200B600702D524F4803401E04FF0F9
:103190000109D94502DDA9EB0B0000E0002000EB9E
:1031A0000B0141440890AAEB010AE00306D4DDE9D3
:1031B0000F232146504600F063F806444FF0000903
:1031C00008E009A911F80900DDE90F12904709F19B
:1031D0000109761CC145F4DBE0030CD5DDE90F23C2
:1031E0002146504600F04CF8064404E0DDE90F1299
:1031F00030209047761C0899481E08900029F5DC7D
:1032000008E00A980A990078491C0A91DDE90F1232
:103210009047761CBBF10001ABF1010BF1DC2146BC
:103220005046DDE90F2300F019F806446D1C1BE63B
:10323000092801003031323334353637383961628C
:103240006364656600000000303132333435363750
:103250003839414243444546000000002DE9F04121
:10326000044600251E461746880404D405E0394666
:103270002020B0476D1C641EF9D52846BDE8F081BA
:103280002DE9F041044600251E469046C80301D5AD
:10329000302700E02027880404D505E04146384661
:1032A000B0476D1C641EF9D52846BDE8F0810A6858
:1032B000531C0B601070704770B5002405464FF426
:1032C0007A7603E0304600F005F8641CAC42F9D38E
:1032D00070BD000070B54FF0E02500216C69094A0F
:1032E000AB6912685043AA699A42FCD002D2A3EBA0
:1032F000020302E0A4EB0206334419441346814260
:10330000F1D370BD0C0000240D4870B5806A0D4DDE
:103310000E4C0D4900032A88E088C0EB001001EB39
:1033200040100B4901D401F57071FCF0BBFE6888B8
:10333000E188884202D9E088401CE08070BD00002E
:1033400000000240F4900324EC0200243400002426
:10335000EC880324000000000000000000000000D2
:10336000000000000000000000001FCC000C000066
:10337000000000000000080030006000080030007D
:1033800060000000022003FC1E20022003FC1E201F
:103390000220000000000E1811043FFF10840C787A
:1033A000000000000F0010840F3800C00778188458
:1033B0000078000000780F8410C411240E9800E4F7
:1033C0000084000808006800700000000000000091
:1033D0000000000000000000000007E018182004B2
:1033E00040020000000040022004181807E000001E
:1033F000000000000240024001800FF00180024006
:10340000024000000080008000800FF800800080F3
:10341000008000000001000D000E00000000000010
:10342000000000000000008000800080008000801C
:10343000008000800000000C000C00000000000074
:103440000000000000000006001800600180060077
:1034500018002000000007F00808100410040808F5
:1034600007F000000000080408041FFC000400042A
:103470000000000000000E0C1014102410441184F1
:103480000E0C000000000C18100411041104128826
:103490000C700000000000E00320042408241FFC3E
:1034A0000024000000001F981084110411041088EB
:1034B00010700000000007F008881104110418883B
:1034C0000070000000001C00100010FC13001C0025
:1034D0001000000000000E381144108410841144C4
:1034E0000E38000000000700088C104410440888C3
:1034F00007F00000000000000000030C030C0000B7
:1035000000000000000000000001010600000000B3
:1035100000000000000000800140022004100808A4
:1035200010040000022002200220022002200220BB
:1035300002200000000010040808041002200140CE
:103540000080000000000E001200100C106C1080B3
:103550000F00000003E00C1813E4142417C408281B
:1035600007D000000004003C03C41C40074000E4F6
:10357000001C000410041FFC1104110411040E8827
:103580000070000003E00C18100410041004100870
:103590001C10000010041FFC100410041004080884
:1035A00007F0000010041FFC1104110417C41004DC
:1035B0000818000010041FFC1104110017C01000AF
:1035C0000800000003E00C181004100410441C78DC
:1035D0000040000010041FFC108400800080108454
:1035E0001FFC10040000100410041FFC1004100441
:1035F0000000000000030001100110011FFE100078
:103600001000000010041FFC110403801464181C37
:103610001004000010041FFC100400040004000447
:10362000000C000010041FFC1F0000FC1F001FFC0A
:103630001004000010041FFC0C04030000E010182C
:103640001FFC100007F008081004100410040808FC
:1036500007F0000010041FFC108410801080108000
:103660000F00000007F0081810241024101C080A8E
:1036700007F2000010041FFC1104110011C01130EA
:103680000E0C000400000E1C110410841084104461
:103690001C3800001800100010041FFC100410005B
:1036A0001800000010001FF81004000400041004AB
:1036B0001FF8100010001E0011E0001C00701380A5
:1036C0001C0010001FC0103C00E01F0000E0103C78
:1036D0001FC000001004180C163401C001C01634BD
:1036E000180C100410001C00130400FC13041C0030
:1036F000100000000804101C1064108413041C0443
:10370000101800000000000000007FFE4002400290
:1037100040020000000030000C0003800060001C2C
:103720000003000000004002400240027FFE000053
:1037300000000000000000002000400040004000A9
:103740002000000000010001000100010001000153
:1037500000010001000040004000200000000000C7
:1037600000000000000000980124014401440144CD
:1037700000FC000410001FFC008801040104008804
:1037800000700000000000700088010401040104C2
:103790000088000000000070008801040104110886
:1037A0001FFC0004000000F80144014401440144EE
:1037B00000C800000000010401040FFC1104110402
:1037C00011001800000000D601290129012901C9B2
:1037D0000106000010041FFC008401000100010428
:1037E00000FC000400000104190419FC000400049A
:1037F000000000000000000300010101190119FE92
:103800000000000010041FFC0024004001B4010C63
:10381000010400000000100410041FFC0004000458
:1038200000000000010401FC0104010001FC01048E
:10383000010000FC010401FC0084010001000104FE
:1038400000FC0004000000F801040104010401046C
:1038500000F80000010101FF008501040104008857
:1038600000700000000000700088010401040105E0
:1038700001FF00010104010401FC008401040100B6
:1038800001800000000000CC012401240124012457
:103890000198000000000100010007F80104010484
:1038A00000000000010001F8000400040004010809
:1038B00001FC0004010001800170000C0010016097
:1038C0000180010001F0010C003001C00030010C4A
:1038D00001F0010000000104018C00740170018CF2
:1038E00001040000010101810171000E0018016056
:1038F0000180010000000184010C013401440184B5
:10390000010C0000000000000000000001003EFC6F
:10391000400240020000000000000000FFFF000025
:10392000000000000000400240023EFC01000000D8
:1039300000000000000060008000800040004000A7
:103940002000200000000000000000000000000037
:103950000000000000000000000000000000000067
:103960000000000000000000000000000000000057
:10397000000000000000000F80380FFE380F803874
:103980000000000000000000000000000000000037
:1039900000000100000600000C00003800003100AB
:1039A000000600000C00003800003000000000009D
:1039B0000000000061800067F807F9800061800066
:1039C00061800061800061800067F807F980006114
:1039D0008000000000000000000001C0E003E0F0F3
:1039E0000630080418081FFFFE040E080787F003BE
:1039F00081E000000000000001F000060C0004045B
:103A000008060C7001F9C0000E00003BE000EC1845
:103A1000070808040C180003E00000000001E000A3
:103A200007F003F818041C0804170807E1D003C0C6
:103A3000E00023B0003C0800200800001000000057
:103A40000000000100003100003200001C000000F6
:103A50000000000000000000000000000000000066
:103A60000000000000000000000000000000000056
:103A7000000000007F0001FFC00780F00C0018105C
:103A800000042000020000000000002000021000DE
:103A9000040C00180780F001FFC0007F0000000048
:103AA0000000000000000000000000000000000016
:103AB0004200006600006600003C0000180003FFA2
:103AC000C0001800003C00006600006600004200D4
:103AD00000000000080000080000080000080000C6
:103AE000080001FFC00008000008000008000008EE
:103AF000000008000000000000010000310000325A
:103B000000001C0000000000000000000000000099
:103B10000000000000000000000000000800000895
:103B2000000008000008000008000008000008006D
:103B3000000800000800000800000000000000006D
:103B400000000000380000380000380000000000CD
:103B50000000000000000000000000000000000065
:103B600000000000000600001C0000700001800042
:103B70000E0000380000C0000700001C00003000EC
:103B800000000000000000007F8001FFE003807063
:103B900006001804000804000806001803807001DD
:103BA000FFE0007F80000000000000000000010036
:103BB0000801000801000803FFF807FFF8000008EB
:103BC00000000800000800000000000000000001E4
:103BD000C03802C0580400980401180402180404F4
:103BE00018061C1803F81801E0F800000000000097
:103BF00000000001C0E003C0F0040008040808044D
:103C0000080806180803F41801E7F00001E00000B6
:103C100000000000000000000300000D0000110083
:103C200000610000810803010807FFF80FFFF8009A
:103C300001080001080000000000000000E007FC8F
:103C4000D0060808061008061008061008061838DE
:103C5000060FF00607C00000000000000000000092
:103C60003F8001FFE00384300208180410080410AC
:103C700008041008071810030FF00007C000000028
:103C800000000000000003C000070000060000065E
:103C900000F80607F806180006E000070000060016
:103CA0000000000000000001E1E003F7F00634101E
:103CB000041808041808040C08040C080616180355
:103CC000F3F001C1E000000000000000F80003FC78
:103CD0003003063804020804020804020804041031
:103CE0000308F001FFC0007F00000000000000009A
:103CF00000000000000000000000000070380070AC
:103D000038007038000000000000000000000000D3
:103D100000000000000000000000000000000000A3
:103D2000301A00301C0000000000000000000000FD
:103D30000000000000000000000000080000140067
:103D400000220000410000808001004002002004A9
:103D50000010080008000000000000002100002101
:103D600000002100002100002100002100002100AE
:103D700000210000210000210000000000000000E0
:103D8000000008000804001002002001004000802C
:103D90008000410000220000140000080000000024
:103DA00000000003C00004C0000400000800380840
:103DB0000F380808380810000C300007E00003C076
:103DC00000000000000000003F8000FFE003807062
:103DD000020F1006708804C088048308047F8802DC
:103DE000C09003012000FE40000008000018000100
:103DF000F8003E0801C20007020007E20000FE00D2
:103E0000001FC80001F8000038000008040008077F
:103E1000FFF807FFF8040808040808040808040865
:103E20000806180803F41801E7F00001E00000009C
:103E3000000000003F8001FFE003807002001804D2
:103E40000008040008040008040010060020078091
:103E5000C000000004000807FFF807FFF80400088E
:103E60000400080400080400180200100380700118
:103E7000FFE0007F8000000004000807FFF807FF54
:103E8000F8040808040808040808040808043E08A0
:103E90000400080600180100600000000400080784
:103EA000FFF807FFF80408080408000408000408E5
:103EB00000043E0006000006000001800000000033
:103EC000000000003F8001FFE0038070060018043E
:103ED00000080402080402080203F00783F000024D
:103EE0000000020004000807FFF807FFF8040808B4
:103EF0000008000008000008000008000408080787
:103F0000FFF807FFF80400080000000000000400AC
:103F10000804000804000807FFF807FFF804000879
:103F20000400080400080000000000000000000079
:103F30000006000007000001040001040001040065
:103F40000307FFFE07FFFC0400000400000400005C
:103F500004000807FFF807FFF8040C080018000029
:103F60003E0004C7800503C80600F80400380400BA
:103F70001800000804000807FFF807FFF80400080D
:103F80000000080000080000080000080000080009
:103F9000001800006000000004000807FFF8078018
:103FA0000807FC00007FC00003F80007C00078008D
:103FB00007800807FFF807FFF80400080400080757
:103FC000FFF807000803C00000E000003800001EF2
:103FD000000007000001C00400F007FFF804000023
:103FE000000000007F8001FFE003807006001804DD
:103FF000000804000806001803003001FFE0007FFD
:104000008000000004000807FFF807FFF804040818
:10401000040400040400040400040400060C00036B
:10402000F80001F000000000000000007F8001FFA8
:10403000E00380700600880400880400C806003C85
:1040400003003E01FFE6007F840000000400080733
:10405000FFF807FFF8040808040800040C00040F28
:1040600000040BC00610F003F03801E0080000085F
:1040700000000001E0F803F03006301004180804D6
:104080001808040C08040C080206180207F007813F
:10409000E0000000018000060000040000040000B1
:1040A00004000807FFF807FFF804000804000004F4
:1040B000000006000001800004000007FFE007FF89
:1040C000F0040018000008000008000008000008C4
:1040D00000000804001007FFE004000004000006D0
:1040E000000007E00007FE00041FE00001F80000E8
:1040F000380001E0043E0007C00006000004000094
:1041000004000007E00007FFC0041FF80007C00715
:10411000F80007FF80043FF80007C004F80007001C
:104120000004000000000004000806001807C07822
:1041300005F1C8003E00001F800463E80780F80610
:1041400000180400080000000400000600000780BA
:104150000007E008047C08001FF80007F8001808B2
:1041600004E0080700000600000400000000000151
:1041700000080600380400F80403E8040F08047C73
:104180000805F00807C008070018040060000000D8
:104190000000000000000000000000000000003FE0
:1041A000FFFE20000220000220000220000220006A
:1041B00002000000000000000000080000070000EE
:1041C00000C0000038000006000001C00000300000
:1041D000000E0000010000000000000000002000B0
:1041E000022000022000022000022000023FFFFE09
:1041F00000000000000000000000000000000000BF
:104200000000000000080000100000300000200046
:104210000030000010000008000000000000000056
:104220000000010000010000010000010000010089
:104230000001000001000001000001000001000079
:10424000010000010000000000000000002000004C
:10425000200000100000100000000000000000001E
:1042600000000000000000000000000000F0001945
:10427000F8001B180022080026080024080024105B
:10428000003FF8001FF800000800001800000004BC
:10429000000007FFF80FFFF00018180010080020BA
:1042A00008002008003018001FF0000FC0000000B8
:1042B0000000000007C0001FF000183000200800B8
:1042C0002008002008003C08001C100000600000CE
:1042D000000000000000000007C0001FF0003818B8
:1042E00000200800200800200804101007FFF80F25
:1042F000FFF00000100000000000000000000007B8
:10430000C0001FF00012300022180022080022080E
:10431000003208001E10000E200000000000000007
:10432000200000200800200801FFF803FFF8062005
:1043300008042008042008072000030000000000F3
:1043400000000000000E000E6E001FF30031B100EF
:1043500020B10020B1003191001F13002E1E00205B
:104360000E00300000000004000807FFF80FFFF8FF
:10437000001008002000002000002008003FF80086
:104380001FF80000080000000000000000000020EE
:1043900008002008002008063FF8063FF800000843
:1043A00000000800000800000000000000000000FD
:1043B0000000000003000003002001002001002095
:1043C00003063FFE063FFC00000000000000000066
:1043D00000000004000807FFF80FFFF80001880044
:1043E0000300002FC00038F800203800200800002B
:1043F000080000000000000000000400080400089D
:1044000004000807FFF80FFFF8000008000008008C
:104410000008000000000000002008003FF8003FF6
:10442000F8001008002000003FF8003FF8001008D6
:10443000002000003FF8003FF800000800000000E6
:104440002008003FF8003FF800100800100000208E
:1044500000002008003FF8001FF8000008000000DE
:104460000000000007C0000FF00018300030080006
:104470002008002008003008001830000FF0000766
:10448000C0000000000000002001003FFF003FFFCF
:10449000001011002009002008002008003038001A
:1044A0001FF0000FC00000000000000007C0001F48
:1044B000F000381800200800200800200900101122
:1044C000001FFF003FFF0000010000000020080067
:1044D0002008002008003FF8003FF80008080010FE
:1044E000080020080020000030000030000000001C
:1044F000000000000000000C78001E1800330800C7
:1045000023080021080021880021980030F000389D
:1045100060000000000000002000002000002000DB
:1045200000FFF003FFF8002008002008002008002A
:104530000030000000000000000000002000003FEC
:10454000F0007FF8000018000008000008002010AC
:10455000003FF8007FF000001000000000000000A5
:104560002000003000003C00003F800023F00000ED
:1045700078000070002380003C0000300000200024
:10458000002000003C00003FE00023F80000E000B5
:104590002700003E00003FE00021F80001E0003E5F
:1045A000000020000000000020080020080038382B
:1045B000003E680027800003C8002CF8003838004F
:1045C000201800200800000000000000200000303B
:1045D00003003C01003F830023EC000070002380B7
:1045E000003C00002000002000000000000000004F
:1045F00000000038080020380020F80023E8002FD1
:1046000088003E08003808002018000070000000F4
:10461000000000000000000000000000000000009A
:1046200008000014001FF7FC300006200002000004
:10463000000000000000000000000000000000007A
:10464000000000000000FFFFFF000000000000006D
:10465000000000000000000000000000000020003A
:10466000023000061FF7FC001400000800000000E4
:104670000000000000000000000000000000001822
:10468000000060000040000040000020000010001A
:10469000000800000400000400000C0000100000EE
:1046A000B4F300000000000000180000100000102B
:1046B0000000100000100000100C3FFFFE00100072
:1046C0000018000018000034000034000022000030
:1046D000620000410000C1800080C001006006004F
:1046E0003808001C300000000000D4BD00000000AD
:1046F00000000300C00200B00200980260881F881A
:104700008C020FF0020C80022C887FDC88030C9056
:104710001B0CD01B0C6013EE60131E64130CF413FF
:10472000019C1B020C27040421D800407FFC400799
:10473000F8000000B4B4000000000000038008038B
:10474000000C02E00C06300C04198C08088C0800E0
:104750008C18208C2FF08C48208C08208C08208C02
:1047600008208C08608C09C10C08080C08080C088B
:10477000080C0C0C0C07FC78000010000000D0C2E4
:1047800000000000000002000801003C0133C03EB0
:10479000C200086200044200048200049A0C3FFF39
:1047A000FE0102300102300112301FE230010230FE
:1047B0000D423019363011143021143021083047A1
:1047C0001030022030000000D2BA000000000000CB
:1047D0000006001803000C020C04FDF00119800112
:1047E00011004233083222F812421812651004E414
:1047F00090056AB0056A200A71200861403860C0DF
:104800001860C018616018623018641E08780000D3
:104810000000BEA700000000000001004001FFC032
:1048200001004001004001FFC001004001004001C3
:10483000FFC00100400000001064081FE7F81046A8
:10484000081046081046081FC7F81046081046080A
:104850001046081FC7F8104608000000C6C1000037
:10486000000000000800000FFFF80C00180C0018F2
:104870000FFFF80C40900C30C00C10800C11100D84
:10488000FFF808308008308008308808309C1FFF0F
:10489000E0102080102080206080204080408080B8
:1048A000030080000000B2E20000000000001100E0
:1048B0000C09FE080D860805864801A64841B64841
:1048C00033B64813B64815B64805B64805B6480588
:1048D000B64809A64809A64839A4481820481858D7
:1048E0000818440818860819023806001800000045
:1048F000CAD40000000000000001A01001D8080088
:10490000880C008804008400FFFE00008000008006
:104910000400803C0280047DC00408C004084004F8
:104920000840044860048822050F3407381406E064
:104930001C04000E00000600000000000000000043
:104940000000000000000000000000000000000067
:104950000000000000000000000000000000000057
:104960000000000000000000000000000000000047
:104970000000000000000000000000000000000037
:1049800000000000575847412B0000005151564786
:104990004100000051564741000000005356474176
:1049A00000000000564741005158474100000000F8
:1049B000535847410000000055584741000000008F
:1049C0005758474100000000584741003130383007
:1049D000500000003530305700000000FC4900084E
:1049E000000000247C0000002C2E0008784A0008FB
:1049F0007C0000248C9403003C2E00080000000082
:104A00000090D0030090D0030000000000000000E0
:104A10000000000001000000100000000000000085
:104A20000100000000000000000000000000000085
:104A30000000000000000000000000000000000076
:104A4000000000008C49000894490008A4490008AF
:104A50009C490008C8490008C0490008844900086A
:104A6000B0490008B8490008CC490008A849000826
:084A7000D44900080000FFFF1B
:020000040810E2
:10000000202A04DB203A00FA02F1002070479140D8
:10001000C2F1200320FA03F3194390407047FEE732
:100020002DE9F0430D4F00241D46164688468146B3
:1000300004EB041017F81010B14209D107EB40018E
:100040004878A84204D1891C4246484600F7D8F9AE
:10005000641CA4B2382CEBD3BDE8F083EA4110084D
:100060002DE9F0430E4F00241D4616468846814672
:1000700004EB840000EB441017F81010B14209D1D2
:1000800007EB40014878A84204D1891C4246484603
:1000900000F7B6F9641CA4B2092CE9D3BDE8F083DB
:1000A000A0460008002310B505E031F8024B5B1CA8
:1000B0009BB220F8024B9342F7D310BD10B5806B72
:1000C000816C496D022906D0012180F83510C16C80
:1000D00041F04001C16400F044F910BD2DE9F84F32
:1000E00082463248904689460A99026842F00102E7
:1000F000026000684FF495672D4C00F001000090FD
:10010000A4F150002B4E8464A06320688219BA4287
:10011000026802D822F0100201E022F0020202601E
:100120000025254820604B20C4E901054FF480508C
:10013000E560C4E904100011C4E906304002206201
:10014000042060620120C4E90A051948256300F013
:1001500009FA174800F06AFA1849B9F1000F84F853
:1001600034500ED012484B465246CDF8008000F075
:1001700057F920688119B94201680AD841F0100185
:1001800009E001B0434652460948BDE8F04F00F08F
:1001900017BB41F00201016002220C20114600F75A
:1001A0006BFCBDE8F84F0C2000F05DBBD844025852
:1001B00034020024F0FFFDBF28000240280002485E
:1001C000014800F723BA0000E4010024064807496B
:1001D00000680144016841F00101016004480168C0
:1001E00041F001010160704734020024F0FFFDBFBF
:1001F00000000248014610B500208B694FF0C07422
:100200008A6A53B1B3F5005F15D072B1012A0CD0E0
:10021000022A0AD0032A09D104E01AB1012A06D021
:10022000022A03D1C96AC90100D5012010BDC96ADB
:10023000A142FAD010BD002AF7D0012AF2D0022A3A
:10024000F3D0032AF3D010BD10B50468636083684F
:10025000402B036803D099600068C26010BD9A60AB
:100260000068C16010BD0000F0B5D0E91964856D6B
:100270007460C46E14B1D0E91C466660154E046803
:100280002644B6F5956F11D890F85C603F24B440D1
:10029000AC600468256825F4802512E09A60006847
:1002A000C160F0BD99600068C260F0BD0A4D2C4489
:1002B0008C2CFAD8094C2568012690F85C70BE4059
:1002C00035432560046863608368402B0368E9D187
:1002D000E4E70000F0FFFDBFF8ABFDA704540258AF
:1002E000704700002DE9FF411C46084B16460027C9
:1002F00010251A885B88121A5B1A8DE8F00092B2FA
:100300009BB201F0A3FDBDE8FF810000F49003243F
:1003100070B4164602781D464378812A0C4610D3E5
:10032000402B0ED3FF2B0CD0FF2A0AD00C2D11D05E
:10033000102D11D0182D0DD13146204670BCFFF77D
:100340008FBE0021084603E0491C04F8010BC9B226
:10035000B142F9D370BC70473146204670BCFFF7FC
:100360005FBE704710B5040003D094F8350010B19B
:1003700004E0012010BD204600F79AF9022084F81D
:10038000350020680168244A114001606168606995
:100390000143D4E9030210430143A0680143A0696B
:1003A0000143206A0143606A0143A06A0143E06A95
:1003B0000143206B014320680268114301606068BB
:1003C00010281DD14FF47F42617F207F4FF07F4383
:1003D00092FAA2F293FAA3F3B2FA82F2B3FA83F397
:1003E00091404FF47F020843A17F92FAA2F2B2FA41
:1003F00082F29140E27F9A4011430843216888616C
:100400002068C16841F01E01C1600020E064012045
:1004100084F83500002010BD07F0E0FF70470000B1
:100420002DE9F041294E044600680025DDF818C08A
:100430004FF4956700EB060EBE4519D8D4F808E0D6
:10044000BEF1800F14D094F834E0BEF1010F12D049
:100450004FF0010E84F834E094F835E0BEF1010F5E
:100460000BD04FF40060606501252846BDE8F0819F
:100470004FF48070F7E70220F8E74FF0020E84F89F
:1004800035E04FF0000EC4F854E0D0F800E04EF430
:10049000802EC0F800E02068036163462046FFF725
:1004A000D3FE94F85C203F21A06D91408160D4E997
:1004B00019014160E06E10B1D4E91C01416020686F
:1004C0008119016841F001010160CEE7F0FFFDBF35
:1004D00010B528B190F83510022903D0802141656C
:1004E000012010BD1D4A4FF4956301688C189C4291
:1004F00007D8042280F83520086820F00100086041
:1005000029E00C6824F00E040C6001680A440A68B3
:1005100022F001020A60016E0A6822F480720A6009
:1005200090F85C30012202FA03F10D4B1960D0E91A
:1005300019134B60C16E31B10B6823F480730B60EB
:10054000D0E91C134B60002180F8341080F835206E
:10055000016D01B18847002010BD0000F0FFFDBF14
:100560000454025870B5040024D094F835000228D1
:1005700022D020682A49036823F001030360206821
:1005800000250144B1F5956F1AD8056020684560D3
:10059000206885602068C560206805612120216889
:1005A00048612046FFF6B6FF94F85C203F21914059
:1005B000816016E0012070BD4FF400606065F9E7CE
:1005C000184901448C290CD80560206845602068D2
:1005D00085602068C560012094F85C10884012494D
:1005E00008602046FFF6AAFF206E18B10560D4E926
:1005F000190141606068401E072807D82046FFF6B1
:10060000CBFFE06E0560D4E91C014160E56625671B
:100610006567656584F83550002084F8345070BDF6
:10062000F0FFFDBFF8ABFDA7045402582DE9F047D9
:10063000044600F7B5F90646BCB15E49202720689C
:1006400000254FF0010A4FF0030842184FF040090F
:100650000221B2F5956F50D884F8345084F83510E3
:10066000016821F00101016009E00120BDE8F08787
:1006700000F796F9801B052801D9676579E02068A5
:100680000068C007F4D121680A684B480240D4E9E9
:1006900002031843D4E9043633431843A3691843CB
:1006A000E3691843236A18431043626A042A03D19A
:1006B000D4E90B231A43104308602068406920F0F6
:1006C0000701606A042840EA01060BD1A06A0643CC
:1006D000E06A38B12046FFF78DFD18B1C4F8549098
:1006E000504647E0206846612046FFF613FF94F825
:1006F0005C203F21914081602DE0304BC2188C2A54
:1007000035D884F8345084F83510026847F6F07113
:100710008A43A168402925D0802925D00021E66898
:1007200041EAD601266941EAD601666941EAD60165
:10073000A66941EAD601E66907EAD6063143266A88
:1007400041EA161111430160206814211844B0FBDE
:10075000F1F08000E0652046FFF6F0FEA0688028FA
:100760000BD00BE01021DAE74FF48041D7E7C4F853
:100770005490404684F8350077E76560216E207913
:100780000860D4E9190141606068401E072808D854
:100790002046FFF601FFE06E0560D4E91C014160D0
:1007A00002E0E56625676567656584F835A0002089
:1007B0005CE70000F0FFFDBF3F8010FEF8ABFDA737
:1007C0002DE9F04104004FF0000514D094F83400F6
:1007D000012812D0012084F8340094F835600020FC
:1007E000012E0CD084F834004FF4006060650125C0
:1007F0002846BDE8F0810120FBE70220F9E7022648
:1008000084F8356060652068D0F800C02CF0010CD9
:10081000C0F800C02046FFF727FD2068016841F0BE
:1008200001010160E4E70AB1018370474183704729
:1008300002488168027811448160704718000024E2
:10084000074940F00100086005487038016841F42C
:1008500080310160BFF34F8FBFF36F8F704700008F
:1008600094ED00E07047002809DB012100F01F0231
:1008700091404009800000F1E020C0F8001170476D
:1008800010B500F71DFF084909684FF4807292FA0D
:10089000A2F201F47061B2FA82F2D140034A515CD3
:1008A000C8400349086010BD1844025808281008C1
:1008B00004000024364930B50A68096812F00302C2
:1008C000344BC1F305511B68334C03F48073246827
:1008D000DFED320AB7EE001AC4F3CC0414FB03F3C5
:1008E00000EE103A2E4BB8EE400A07D02D4C012AEC
:1008F00001D0022A4AD0B4FBF1F10BE0244C283C91
:1009000022689506284A03D52468C4F3C104E2404E
:10091000B2FBF1F101EE901A1968B8EE612AC1F349
:10092000080101EE901A1968F8EE611A40EE201ADB
:1009300031EE810A22EE000AC1F34621491C00EE85
:10094000901AF8EE600A80EE201AFCEEC10AC0EDA3
:10095000000A1968C1F30641491C00EE901AF8EE2E
:10096000600A80EE201AFCEEC10AC0ED010A196887
:10097000C1F30661491C00EE901AF8EE600A80EEA1
:10098000201ABCEEC10A80ED020A30BD074ABFE75B
:10099000284402582C4402584444025800000039AC
:1009A0004044025800093D000090D00340787D018A
:1009B00010B500F76BFE07490968102292FAA2F2FF
:1009C00001F07001B2FA82F2D140034A515CC84092
:1009D00010BD00001C4402580828100810B500F78C
:1009E00055FE074909684FF4807292FAA2F201F4A9
:1009F000E061B2FA82F2D140024A515CC84010BDB7
:100A00001C440258082810082DE9F05F04004FF03C
:100A100000053DD0DFF8C4812068714E714F40451C
:100A2000A36A06D0B04204D0B84202D0E1680F29D0
:100A30002ED8E26B4FF0010B0BEB521CE26802F177
:100A40000801C908404501FB0CF105D0B04203D0B4
:100A5000B84201D008291BD8404503D0B04201D08C
:100A6000B84201D1102913D84FF480094B4512D157
:100A7000404507D0B04205D0B84203D0206BB0F556
:100A8000702F05D8256B05B91504B2EB154F02D9A7
:100A90000120BDE8F09F94F881004FF0000A20B9D2
:100AA000204684F880A001F7D5F8022084F8810060
:100AB0002068016821F001010160A069B0F1806F38
:100AC00009D16068484506D1A06B20B9206801684B
:100AD00041F480510160A16AE0690843E16B294358
:100AE0000843E168084321688860616A606BA26915
:100AF0000843A16B11430843216908436169084316
:100B0000216A084361680843E16C0843A16808430F
:100B1000A16C0843A16D08432168C860A06A4845DC
:100B200029D1206C01282068016827D021F40041D8
:100B30000160606C01282068016822D021F48041A6
:100B400001602068404506D0B04204D0B84202D0CF
:100B5000B5F5702F18D0404503D0B04201D0B8424F
:100B600002D1B5F5F81F0FD0016821F400510160E2
:100B70002168E06A0864606850B119E041F40041FE
:100B8000D6E741F48041DBE7016841F40051EEE72C
:100B9000A06A30B92068816821F4C05141F4006135
:100BA00081602068816821F4C06141F480618160C6
:100BB0002068016D21F0010101656068400206D5E1
:100BC0002068C168626D21F000411143C160C4F822
:100BD00084A084F881B000205BE700000030014071
:100BE00000380040003C00402DE9F84F044690F8E2
:100BF00080001F4692460A9D01288B4613D04FF075
:100C0000010984F88090FFF6CBFE94F88120064617
:100C10000020012A4FF480010ED062688A4209D177
:100C2000A2683AB902E00220BDE8F88F94F881206A
:100C3000042A01D0022136E0BBF1000F32D0BAF114
:100C4000000F2FD077B394F88120042A02D0052218
:100C500084F881208046C4F88400C4F864A0A4F815
:100C60006A70A4F86870C4F85CB0A4F86270A4F864
:100C7000607020676067206842686FF30F023A4334
:100C800042602068026842F00102026060688842A7
:100C900004D12068016841F400710160E0680F2808
:100CA00040D848E0012184F880000846BCE7B4F849
:100CB000620070B12068416989070AD5E16D096851
:100CC0000162E06D001DE065B4F86200401EA4F80A
:100CD0006200B4F86A0080B12068416948F20802F5
:100CE00011420AD0006B616E0860606E001D606684
:100CF000B4F86A00401EA4F86A00681C12D0FFF61F
:100D00004FFE801BA8420DD3204600F0C3FF84F89D
:100D10008080D4F8840040F48070C4F8840084F8A3
:100D20008190EBE0B4F862000028C0D1B4F86A000A
:100D30000028BCD1C8E0072849D8BDE0B4F862005B
:100D4000F0B12068416989071AD5B4F86210012909
:100D50000BD9E16B49B1E16D09680162E06D001DDD
:100D6000E065B4F86200801E08E0E16D0988018446
:100D7000E06D801CE065B4F86200401EA4F86200DB
:100D8000B4F86A00E0B12068416911F4604F17D0EF
:100D90004169090409D5006B616E0860606E001D31
:100DA0006066B4F86A00801E08E0008E616E0880FC
:100DB000606E801C6066B4F86A00401EA4F86A0089
:100DC000681C04D0FFF6ECFD801BA8429CD2B4F84E
:100DD00062000028B2D1B4F86A000028AED173E0F6
:100DE000B4F8620080B32068416989072CD5B4F853
:100DF000621003290CD9E16B402909D9E16D09681A
:100E00000162E06D001DE065B4F86200001F19E0AA
:100E1000B4F8621001290BD9E16B49B1E16D098881
:100E20000184E06D801CE065B4F86200801E09E07A
:100E3000E16D097880F82010E06D401CE065B4F8A1
:100E40006200401EA4F86200B4F86A0068B320682B
:100E5000416911F4604F28D04169090409D5006B3C
:100E6000616E0860606E001D6066B4F86A00001F65
:100E700019E0416901F4C041B1F5005F09D9008E64
:100E8000616E0880606E801C6066B4F86A00801E27
:100E900009E090F83000616E0870606E401C60667A
:100EA000B4F86A00401EA4F86A00681C04D0FFF67B
:100EB00077FD801BA84289D2B4F8620000288FD148
:100EC000B4F86A0000288BD100223346082120465E
:100ED000009500F04EFF28B1D4F8840040F02000C7
:100EE000C4F88400204600F0D5FE84F8808084F8A1
:100EF0008190D4F8840000283FF4D8AE012093E616
:100F0000704770477047000070B502680446D069AA
:100F10001368916810F00F0F64D0594D03F4907668
:100F20000D40354376D0C50707D0DD0505D5012531
:100F30001562E26F42F00102E267820708D5CA0734
:100F400006D0256802222A62E26F42F00402E267BC
:100F5000420708D5CA0706D0256804222A62E26F34
:100F600042F00202E26702070ED503F0200201F010
:100F700080552A4352EAC17206D0256808222A62A7
:100F8000E26F42F00802E267E26F002A3AD0800680
:100F900008D503F0200001F08051084302D020461C
:100FA00001F7F8FEE06F000703D420688068400670
:100FB0002AD5204600F0D5FF2068816849061ED555
:100FC000816821F040018160606FC0B12D490165E9
:100FD000606FFFF77DFA002814D0606F016DBDE8E7
:100FE00070400847850615D503F0200501F08056AE
:100FF00035430FD02046BDE8704001F7CBBE2046F8
:1010000000F74AFF70BD05E0204600F745FF0020CD
:10101000E067F7E7C6024FF020050CD54E020AD56F
:10102000E803106284F8795084F87A502046BDE8CD
:10103000704000F730BF06060AD503F0800601F4C1
:1010400000010E4304D02046BDE8704001F0ECB929
:1010500041060BD5590609D51168204621F04001FB
