:020000040800F2
:10000000E04C00249903000809880008934900087F
:10001000A5030008150A0008EDA60008000000006E
:1000200000000000000000000000000089960008A9
:100030002510000800000000798F0008859700084F
:10004000B3030008B3030008B3030008B3030008B8
:10005000B3030008B3030008B3030008B3030008A8
:10006000B3030008B3030008B3030008B303000898
:10007000C10C0008B3030008B3030008B303000871
:10008000B3030008B3030008B3030008B303000878
:10009000B3030008B3030008B3030008B303000868
:1000A000B3030008B3030008B3030008B303000858
:1000B000B3030008219800085D980008B303000806
:1000C000B3030008B3030008B3030008B303000838
:1000D000B30300089DA60008B3030008B30300089B
:1000E000B3030008B303000800000000B3030008D6
:1000F000B3030008B3030008B3030008B303000808
:10010000B3030008B3030008B3030008B3030008F7
:10011000B3030008B3030008B3030008B3030008E7
:10012000B3030008B3030008B3030008B3030008D7
:10013000B3030008B3030008B3030008B3030008C7
:1001400000000000000000000000000000000000AF
:10015000B3030008B3030008B3030008B3030008A7
:10016000B3030008B3030008B3030008B303000897
:10017000B3030008B3030008990B00080000000057
:10018000B3030008B3030008B3030008B303000877
:10019000B3030008B3030008B3030008B303000867
:1001A000B3030008B3030008B3030008B303000857
:1001B000B3030008B3030008B3030008B303000847
:1001C000B3030008B3030008B3030008B303000837
:1001D000B3030008B3030008B3030008B303000827
:1001E000B3030008B3030008B3030008B303000817
:1001F000B3030008B3030008B3030008B303000807
:10020000B3030008B3030008B3030008B3030008F6
:10021000B3030008B3030008B3030008B3030008E6
:10022000B3030008B3030008B30300080000000094
:10023000B3030008B303000800000000B303000884
:10024000B3030008B3030008B3030008B3030008B6
:10025000B3030008B3030008B3030008B3030008A6
:10026000B3030008B3030008B3030008B303000896
:10027000B3030008B3030008B30300080000000044
:10028000B303000800000000B303000800000000F2
:1002900000000000B303000800F002F800F06DF861
:1002A0000AA090E8000C82448344AAF10107DA45D1
:1002B00001D100F062F8AFF2090EBAE80F0013F0B6
:1002C000010F18BFFB1A43F0010318472421010056
:1002D000442101000A444FF0000C10F8013B13F0D8
:1002E000070408BF10F8014B1D1108BF10F8015B8F
:1002F000641E05D010F8016B641E01F8016BF9D182
:1003000013F0080F1EBF10F8014BAD1C0C1B09D1D8
:100310006D1E58BF01F801CBFAD505E014F8016B4A
:1003200001F8016B6D1EF9D59142D6D370470000DC
:100330000023002400250026103A28BF78C1FBD8EE
:10034000520728BF30C148BF0B607047642900F0D6
:100350002B81752900F02881782900F061816329BB
:1003600000F00383732900F00883002070471FB555
:100370000CF0DAF81FBD10B510BD00F019FB1146E6
:10038000FFF7F5FF0AF008FD00F037FB03B4FFF7B5
:10039000F2FF03BC0AF0CFF909488047094800473B
:1003A000FEE7FEE7FEE7FEE7FEE7FEE7FEE7FEE725
:1003B000FEE7FEE704480549054A064B7047000082
:1003C0008D97000899020008E0460024E04C0024C4
:1003D000E0480024E048002453EA020C00F0698061
:1003E0002DE9F04B4FF00006002B1FBFB3FA83F549
:1003F00003FA05F424FA05F65E4012BF1643B2FA7A
:1004000082F502FA05F4C5F120051EBF22FA05FCAB
:1004100044EA0C04203556EA044C4FEA144418BF51
:10042000641C4FF000084FF00009904271EB030C80
:1004300039D3002919BFB1FA81F701FA07F6B0FAEA
:1004400080F700FA07F6C7F120071EBF20FA07FC65
:1004500046EA0C062037B6FBF4FCA7EB0507103F75
:1004600007F01F0BCBF120060CFA0BFB2CFA06F65B
:1004700044BFB3460026202FA4BF5E464FF0000BBA
:100480005BEA060C08BF4FF0010B19EB0B09ABFB45
:10049000027C48EB0608C01B06FB02CC0BFB03CC1E
:1004A00071EB0C01C1E70B46024641464846BDE8E8
:1004B000F08B13B54FF000004FF00001AFF3008058
:1004C000BDE81C40704700000FB4044910B503AAF2
:1004D000029800F057FA10BC5DF814FB6800002485
:1004E0000FB41CB5074B06AA7B44694600900598DB
:1004F00000F019FA0020694600F028FA1CBC5DF8EB
:1005000014FB00006104000070B5044685690068B2
:10051000C10601D5302600E02026C00707D070BDF7
:10052000D4E9012130469047206A401C20626D1EAC
:10053000F6D570BD70B5044685690078C00707D14F
:1005400070BDD4E9012120209047206A401C206220
:100550006D1EF6D570BD70B50C460546012A05D056
:100560002878800600D5EA69002302E0012305E02F
:100570005B1C934202D2E05C0028F9D1A869E6181E
:10058000C01AA861286A184428622846FFF7BCFFF1
:1005900004E0D5E9012114F8010B9047B442F8D3E7
:1005A0002846FFF7C7FF70BD2DE9F041064600243D
:1005B00010687529314616A510D0AFF300800028C9
:1005C00002DA404213A507E031688A0701D512A577
:1005D00002E0490704D511A5012401E0AFF3008032
:1005E00000210A2206F1240709E0B0FBF2FCB0FB6F
:1005F000F2F302FB1C00303078541846491C0028E6
:10060000F3D123462A463046BDE8F04100F02DB92B
:10061000000000002D0000002B0000002000000062
:1006200070B504460D4621461068AFF3008021885E
:10063000090502D50F4A7A4402E00E4A7A440E3286
:10064000002104F1240305E000F00F060009965D87
:100650005E54491C0028F7D120780023000704D5F8
:10066000702D02D009B1022311322046BDE870403E
:1006700000F0FBB8831C01002DE9F05F89460446B9
:100680004FF0000ADFF874B1FB44C0F820A0204608
:10069000E1688847002874D0252806D0D4E90121D4
:1006A0009047206A401C2062F1E700265F46204602
:1006B000E16888472028054607DB312D05D27819E7
:1006C00010F8200C08B10643F1E7B00701D526F079
:1006D0000406C4F81CA00027C4F818A02A2D09D0CD
:1006E00028460AF021F838B304EB8708303DC8F8F3
:1006F000185019E059F8041B204604EB8702916159
:10070000E1688847012F054618D1E069002820DA02
:1007100026F020061DE0D8F8180000EB800005EB5D
:1007200040003038C8F818002046E1688847054680
:1007300009F0FAFF0028EED1012F0AD02E2D08D1A2
:100740002046E16888477F1C0546022F46F02006B8
:10075000C4DBA069002803DA404246F00106A0612C
:10076000F00701D026F010066C2D0BD0682D09D0B3
:100770004C2D39D06A2D35D0742D35D07A2D33D00B
:1007800016E038E0E1682F4620468847B842054623
:1007900009D16C2F26D04FF48060E16806432046D3
:1007A0008847054604E06C2F1AD04FF4807006434A
:1007B0000DB3A5F14100192802D8203546F4006692
:1007C0004A462946204626604E46FFF7BFFD80B1C7
:1007D00001280BD0F61D26F0070000F1080956E7A6
:1007E0004020E4E78020D8E70020D6E706F104099E
:1007F0004DE7284652E7206ABDE8F09F591C0100EA
:1008000010B5203AC0F00B80B1E81850203AA0E8AB
:100810001850B1E81850A0E81850BFF4F5AF5FEADF
:10082000027C24BFB1E81850A0E8185044BF18C992
:1008300018C0BDE810405FEA827C24BF51F8043B39
:1008400040F8043B08BF7047D20728BF31F8023B8D
:1008500048BF11F8012B28BF20F8023B48BF00F821
:10086000012B70477047704770472DE9F0470D46E0
:1008700099469246044600F124080168880604D58A
:10088000E06921F01001216000E00120A84201DDB3
:10089000471B00E00027A1697A1902EB0900081A3A
:1008A000A0612078C00602D42046FFF72DFE002666
:1008B00008E0D4E901211AF806009047206A401C9C
:1008C000761C20624E45F4DB2078C0060AD520460F
:1008D000FFF71AFE06E0D4E9012130209047206A94
:1008E000401C2062381EA7F10107F4DC07E0D4E9C0
:1008F000012118F805009047206A401C2062281E3C
:10090000A5F10105F3DC2046FFF714FE2078000670
:1009100002D50220BDE8F0870120FBE701694A1CEF
:1009200002610878704700B58FB0CDE90131002130
:10093000059105497944CDE9031011466846FFF752
:100940009BFE0FB000BD0000E5FFFFFF0A6802F844
:10095000010B0A60704710B5436913B1AFF3008013
:1009600001E0FFF7F8FD012010BD127800F124012D
:100970000A7000224A700122EDE711684FF0FF3241
:10098000E9E70000074B70B50D467B44FFF7CBFF4E
:100990000446284600F008F810B14FF0FF3070BD53
:1009A000204670BD239E0000007B00F08000704751
:1009B000754600F02BF8AE4605006946534620F018
:1009C0000700854618B020B5FFF7F4FCBDE82040CD
:1009D0004FF000064FF000074FF000084FF0000BFB
:1009E00021F00701AC46ACE8C009ACE8C009ACE8AE
:1009F000C009ACE8C0098D46704710B50446AFF396
:100A000000802046BDE81040FFF7C0BC004870479A
:100A10007C46002400BFFEE710B508F06BFC08F030
:100A20001BFC0348006840F004000149086010BD49
:100A30009CEF00E070B50546AC6BA06C406D0228E1
:100A400006D0012084F83500E06C40F04000E064FE
:100A5000204600F01FFC70BD2DE9F84306460C4609
:100A600015461F46DDF8208000BF4548006840F06D
:100A70000100434908600846006800F0010000904A
:100A800000BF00BF00BF3F483F49886408463D495A
:100A9000886300BF084600683C4988420DD3394846
:100AA00000683B49884208D836480068006820F052
:100AB000100034490968086007E03248006800689F
:100AC00020F002002F4909680860304818302D498D
:100AD00008604B20486000212A488160C160C0F84E
:100AE00010804FF48051416187610911C161490251
:100AF000016204214162012181620021C16201631E
:100B000000F026FE1F4800F0B3FE00BF00201D4984
:100B100081F8340000BF34B92B4632461D491948CC
:100B200000F0AEFF29E0234632461A4915480095E9
:100B300000F01CFD13480068144988420DD3114889
:100B400000681349884208D80E480068006840F0E1
:100B500010000C490968086007E00A48006800684E
:100B600040F00200074909680860032202210C20B6
:100B700001F0B1FB0C2001F09EFBBDE8F883000002
:100B8000D844025804450024B44400241000024014
:100B9000B80402402800024810B5024800F098FB53
:100BA00010BD0000B444002410B51148114908607C
:100BB0000020486020210F4881600021C160016150
:100BC0004161816100F0DEFB00200949C8600948ED
:100BD0000068C06840F0010006490968C86005481F
:100BE0000068006840F4804002490968086010BD50
:100BF00000000248B444002410B50021084606F065
:100C000077FE06F0FBFF11480068114988420DD3BA
:100C10000E4800680F49884208D80C4800680068F0
:100C200040F0010009490968086007E007480068CA
:100C3000006840F00100054909680860064800683E
:100C400040F001000449086010BD00000445002484
:100C500010000240B8040240000002481448006836
:100C600020F001001249086000BF1148006800F040
:100C700001000028F9D10F4800680F4988420DD3C0
:100C80000C4800680D49884208D80A480068006886
:100C900020F0010007490968086007E0054800687E
:100CA000006820F0010003490968086070470000EF
:100CB000000002480445002410000240B80402402D
:100CC00010B5334800683349884204D93248006877
:100CD00000F4006027E02E4800682E496039884201
:100CE00005D92C48B438006800F400601BE028489F
:100CF00000682A49884205D92648B838006800F4B7
:100D0000006010E02248006824496039884205D913
:100D10002248B838406800F4006004E01F48B83842
:100D2000006800F4006088B31948006819498842D7
:100D300004D9C8141849091D086024E01448006843
:100D400014496039884204D9C8141249AC39086082
:100D500019E00F4800681149884204D9C8140D49A8
:100D6000B03908600FE00A4800680C4960398842D1
:100D700004D9C8140949B839C86004E04FF40060C8
:100D80000649B839886006480068804710BD0000F1
:100D900004450024B804024000540258B800024040
:100DA000900000240146087810381823B0FBF3F2B5
:100DB0000848805CC865032A05D908686FF30900F4
:100DC000001D886503E008686FF309008865886D79
:100DD0007047000002C6000810B500210268174BDA
:100DE0009A4213D8154B8C3B9A420FD30378083B99
:100DF0001424B3FBF4F1124B03EB81030366104B95
:100E00008033436601238B40836616E00378103BF2
:100E10001824B3FBF4F10B4B9A4204D8094BA83BBE
:100E20009A4200D30831084B03EB81030366064B5B
:100E30008033436601238B40836610BD945402586F
:100E400000580258B80402400008024010B5026879
:100E50000179E9B108291BD80E4B9A420CD80D4BE9
:100E60008C3B9A4208D34B1E0B4C04EB8303C366A6
:100E7000094B4033036707E04B1E084C04EB830328
:100E8000C366064B403303674B1E01249C404467F6
:100E900010BD000094540258005902580009024045
:100EA000014600208A69D2B98A6A32B1012A0DD07E
:100EB000022A03D0032A10D10EE000BFCA6A02F052
:100EC0008072B2F1807F00D1012007E0CA6AB2F1DE
:100ED000C07F00D1012001E000E000BF36E08A6958
:100EE000B2F5005F1BD18A6A32B1012A07D0022A0B
:100EF00003D0032A11D10AE000BF01200EE0CA6A24
:100F000002F08072B2F1807F00D1012006E0CA6A4F
:100F1000B2F1C07F00D1012000E000BF16E08A6A74
:100F200032B1012A05D0022A04D0032A0CD103E0F1
:100F300000BF00BF012008E0CA6A02F08072B2F16F
:100F4000807F00D1012000E000BF00BF704710B5D6
:100F5000046863608468402C04D10468A26004685B
:100F6000E16003E00468A1600468E26010BD000075
:100F7000F0B5846DD0E919657560C56E15B1D0E91D
:100F80001C657560244E0568B54205D3234E05687F
:100F9000B54201D8012500E00025CDB190F85C6094
:100FA0003F25B540A56005682D6825F480250668B5
:100FB000356005686B608568402D04D10568AA60BE
:100FC0000568E96026E00568A9600568EA6021E037
:100FD000134E0568B5421DD3114E8C360568B542D7
:100FE00018D80F4D2D1F2D6890F85C700126BE405B
:100FF00035430B4E361F356005686B608568402DA4
:1010000004D10568AA600568E96003E00568A96085
:101010000568EA60F0BD000010000240B80402401C
:10102000085402587047000070B504461D4600235E
:10103000B5F5804F13D154F822300C480340D1E964
:10104000000640EA06108E6840EA06208E8940EAD3
:1010500006408E693043034344F8223003E06FF0CA
:10106000704044F82200002070BD00000000F0CF66
:1010700010B502460023086852F820301B48034090
:10108000D1E901042043CC6820430C6920434C691A
:1010900020438C692043CC6920430C6A20434C6A6E
:1010A00020438C6A2043CC6A20430C6B20438C6B1A
:1010B00020434C6B204303438868082801D143F048
:1010C0004003086842F82030086BB0F5801F05D156
:1010D000086818B110680C6B20431060086818B1DC
:1010E00010684C6B20431060002010BD8004C0FFCE
:1010F00030B5034614460022601C53F8202002F04D
:101100004042D1E9000540EA05108D6840EA05201B
:101110008D8940EA0545088A401E45EA0055087D4C
:10112000801E45EA00608D6928430243601C43F835
:101130002020186800F4801038B1586820F470023C
:10114000088A401E42EA00525A60002030BD30B585
:101150000246002300240868012816D013686FF3A4
:101160000E03D1E901052843CD6828430D692843C2
:101170004D6928438D692843CD6928430D6A28436A
:101180004D6A28430343136019E0136823F4F843BE
:10119000D1E9070528434D6A2843034354686FF398
:1011A0000E04D1E901052843CD6828430D69284381
:1011B0004D6928438D69284304431360546000201F
:1011C00030BD0246506940EA41005061002070473E
:1011D00018B5034600200090D1E9000420438C6834
:1011E000641E40EA4410CC6840EA44200090009815
:1011F0001861002018BD000070B503461546002296
:101200000024012D1FD09A6802F070420868401E29
:101210004E68761E40EA06168868401E46EA00269A
:10122000C868401E46EA0036088A401E46EA004664
:10123000888A401E46EA0056087E401E46EA006044
:1012400002439A6022E09A6811480240C868401E32
:101250000603888A401E46EA00500243DC6804F018
:1012600070440868401E4E68761E40EA061688687C
:10127000401E46EA0026088A401E46EA0046087ECE
:10128000401E46EA006004439A60DC60002070BDA6
:10129000FF0F0FFF7047000010B5044609F096FAE3
:1012A0000121084800F086FD07480078401C0649E7
:1012B000087006480068C06840F0010003490968EA
:1012C000C86010BD000402588C000024B4440024FF
:1012D00070B504462068056905F0040004280ED1A5
:1012E00021684861E06C40F00200E064042084F86A
:1012F00035002348A16C0865A06C00F0ADF905F03D
:10130000020002280ED121684861E06C40F0010023
:10131000E064042084F835001948A16C0865A06CCD
:1013200000F09AF905F01000102804D121684861F6
:10133000204600F085F805F00800082804D121684F
:101340004861204600F010F905F00100B8B12068AE
:10135000006800F00200022805D12068C06820F073
:101360001E002168C8602068C06820F00100216864
:10137000C8600120216848612046FFF78DFF70BDDD
:10138000350A000810B504460CB9012010BD94F8C8
:10139000350010B9204600F055F8022084F83500D9
:1013A0002068006825490840216808606169606814
:1013B0000843E168084321690843A1680843A1691B
:1013C0000843216A0843616A0843A16A0843E16A45
:1013D0000843216B084321680968084321680860B5
:1013E000606810281DD1217F607F4FF47F4292FA00
:1013F000A2F2B2FA82F290400843A17F4FF47F023A
:1014000092FAA2F2B2FA82F291400843E17F4FF0E1
:101410007F4292FAA2F2B2FA82F291400843216826
:1014200088612068C06840F01E002168C860002004
:10143000E064012084F835000020A7E707F0E0FF12
:101440007047000010B586B0044600BF40480068F1
:1014500040F001003E4908600846006800F00100C5
:10146000009000BF00BF00BF081D006840F00100F1
:10147000091D08600846006800F00100009000BFE8
:1014800000BF00BF0846006840F002000860084640
:10149000006800F00200009000BF00BF00BF0846D7
:1014A000006840F0040008600846006800F004008E
:1014B000009000BF00BF00BF0846006840F0080071
:1014C00008600846006800F00800009000BF00BFF8
:1014D00000BF0846006840F08000086008460068C9
:1014E00000F08000009000BF00BF4020019002206B
:1014F000029001200390032004900D20059001A983
:10150000144800F029FB4FF46070019001A91248C3
:1015100000F022FB4FF43C60019001A90F4800F05D
:101520001BFB0820019001A90D4800F015FB4FF4AA
:101530008070019001A90B4800F00EFB02221146B9
:101540004E2000F0C8FE4E2000F0B5FE06B010BDE3
:10155000DC440258000002580004025800080258F7
:10156000000C0258001C0258704700002DE9F0479B
:1015700004460E4617461D46DDF820804FF0000950
:10158000CA4633492068884205D3324920688842D8
:1015900001D8012000E0002010B1A068802805D10A
:1015A0004FF4807060654FF001094EE000BF94F881
:1015B0003400012802D10220BDE8F087012084F820
:1015C000340000BF94F83500012839D1022084F896
:1015D0003500002060652068006840F480202168A4
:1015E00008602068056143463A4631462046FFF7C9
:1015F000AEFCA06D00F1080A94F85C103F20884012
:10160000CAF80000D4E919104860E06E10B1D4E9BE
:101610001C1048600E49206888420AD30D49206892
:10162000884206D82068006840F001002168086000
:101630000BE02068006840F001002168086004E0C9
:101640004FF4006060654FF001094846B4E70000C0
:1016500010000240B804024010B504460CB9012045
:1016600010BD94F83500022803D080206065012069
:10167000F6E734492068884205D333492068884218
:1016800001D8012000E00020C0B1042084F835001A
:101690002C49206888420AD32B492068884206D802
:1016A0002068006820F001002168086048E0206898
:1016B000006820F001002168086041E020680068AF
:1016C00020F00E00216808601E49206888420AD375
:1016D0001D492068884206D82068006820F0010073
:1016E0002168086005E02068006820F0010021689A
:1016F0000860206E006820F48070216E086094F805
:101700005C100120884011490860D4E91910486034
:10171000E06E40B1E06E006820F48070E16E086019
:10172000D4E91C10486000BF002084F8340000BFDA
:10173000012084F83500206D10B12046216D8847C6
:1017400000208DE710000240B80402400454025803
:1017500070B5044600250CB9012070BD94F8350021
:10176000022803D1800260650120F6E73D49206828
:1017700088420AD33C492068884206D8206800681D
:1017800020F001002168086005E02068006820F072
:1017900001002168086033492068884205D3324936
:1017A0002068884201D8012000E00020B8B1002064
:1017B0002168086021684860216888602168C860E5
:1017C000216808612120216848612046FFF7EAFA74
:1017D000054694F85C103F208840A8601CE023492F
:1017E0002068884206D321498C312068884201D87C
:1017F000012000E0002078B1002021680860216805
:101800004860216888602168C86094F85C100120F5
:1018100088401649091F08602046FFF7DDFA206E50
:1018200028B10020216E0860D4E919104860606872
:1018300058B16068082808D82046FFF707FB002049
:10184000E16E0860D4E91C1048600020E066206763
:101850006067606584F8350000BF84F8340000BF1D
:1018600000BF7AE710000240B80402400854025852
:101870002DE9F0410446002500F0A6FA06460027AF
:1018800014B90120BDE8F08179492068884205D368
:1018900078492068884201D8012000E00020002813
:1018A00071D0606A00B100BF00BF002084F834002E
:1018B00000BF022084F835006D49206888420AD3B1
:1018C0006C492068884206D82068006820F0010032
:1018D0002168086005E02068006820F001002168A8
:1018E00008600BE000F070FA801B052806D9202064
:1018F0006065032084F835000120C3E72068006894
:1019000000F001000028EDD1206805685A48054024
:10191000D4E9020108432169084361690843A169C8
:101920000843E1690843216A08430543606A0428C3
:1019300003D1D4E90B010843054320680560206802
:10194000456925F00705606A0543606A04280DD1E2
:10195000A06A0543E06A48B12046FFF7A1FA28B122
:1019600040206065012084F835008BE720684561E0
:101970002046FFF717FA074694F85C103F2088408E
:10198000B8604DE0FFE73D492068884206D33B49F7
:101990008C312068884201D8012000E00020B8B3D3
:1019A00000BF002084F8340000BF022084F8350016
:1019B0002068056847F6F0708543A068402801D18B
:1019C000102105E0A068802801D1C10100E00021BC
:1019D000E06841EAD001206941EAD001606941EA4A
:1019E000D001A06941EAD0002022E16902EAD101D8
:1019F0000843216A40EA11100543206805601F4929
:101A00002068401A1421B0FBF1F08000E06507E087
:101A1000FFE740206065032084F83500012031E7AE
:101A20002046FFF7D9F9A068802801D10020606026
:101A30002079216E0860D4E919104860606860B1AF
:101A40006068082809D82046FFF700FA0020E16EF8
:101A50000860D4E91C10486003E00020E0662067BD
:101A6000606700206065012084F83500002009E7E8
:101A700010000240B80402403F8010FE0854025893
:101A80002DE9F04104460D4616461F464FF000086A
:101A900014B90120BDE8F08100BF94F8340001289A
:101AA00001D10220F6E7012084F8340000BF94F849
:101AB0003500012835D1022084F83500002060650A
:101AC0001E49206888420AD31D492068884206D8EA
:101AD0002068006820F001002168086005E02068A7
:101AE000006820F00100216808603B463246294624
:101AF0002046FFF73DFA1149206888420AD3104971
:101B00002068884206D82068006840F001002168FB
:101B1000086010E02068006840F00100216808605B
:101B200009E000BF002084F8340000BF4FF40060DB
:101B300060654FF001084046ACE70000100002402D
:101B4000B80402400348006840F001000149086001
:101B50007047000020040058F8B502460B460021EB
:101B6000002600240020824D00BFFCE0012707FA78
:101B700001F61F6807EA0604B4427CD15F68022FB1
:101B800002D05F68122F1AD14FEAD10C02F1200760
:101B900057F82C004F074FEAD76C0F2707FA0CF7BE
:101BA000B8434FEA417C4FEADC6C1F6907FA0CF737
:101BB00038434FEAD10C02F1200747F82C00106897
:101BC0004FEA410C032707FA0CF7B8431F7907F0D7
:101BD00003074FEA410C07FA0CF7384310605F68BF
:101BE000012F08D05F68022F05D05F68112F02D047
:101BF0005F68122F17D190684FEA410C032707FA4C
:101C00000CF7B8434FEA410CDF6807FA0CF738438A
:101C10009060506801278F40B8431F79C7F30017C1
:101C20008F4038435060D0684FEA410C032707FAD1
:101C30000CF7B8434FEA410C9F6807FA0CF738439A
:101C4000D0605F6807F08057B7F1805F95D100BF23
:101C5000484F3F6847F00207DFF818C1CCF8007022
:101C600067463F6807F00207009700BF00BF424F7A
:101C70004FEA910C00E075E057F82C008F074FEA0F
:101C8000177C0F2707FA0CF7B8433C4FBA4201D133
:101C900000272DE03A4FBA4201D1012728E0394F01
:101CA000BA4201D1022723E0374FBA4201D10327BC
:101CB0001EE0364FBA4201D1042719E0344FBA4230
:101CC00001D1052714E0334FBA4201D106270FE0B6
:101CD000314FBA4201D107270AE0304FBA4201D151
:101CE000082705E02E4FBA4201D1092700E00A2754
:101CF0004FEA817C4FEA1C7C07FA0CF738431E4FF1
:101D00004FEA910C47F82C002868A0435F6807F45D
:101D10008037B7F5803F00D1204328606868A04332
:101D20005F6807F40037B7F5003F00D120436860D3
:101D30004FF0B0473868A0435F6807F48017B7F5E5
:101D4000801F00D120434FF0B04738607868A0432F
:101D50005F6807F40017B7F5001F00D120434FF06C
:101D6000B0477860491C1029FFF400AFF8BD0000AF
:101D700080000058F444025808040058000002583B
:101D80000004025800080258000C025800100258C3
:101D90000014025800180258001C02580020025873
:101DA00000240258024613690B400BB1012000E0E9
:101DB0000020704742694A40426170470AB101837E
:101DC00000E0418370470000014800687047000050
:101DD0007000002403480068034909780844014959
:101DE00008607047700000247800002410B50320BC
:101DF00000F0AEFA0F2000F007F808B1012010BD86
:101E000000F058FA0020FAE770B504460E48007852
:101E10004FF47A71B1FBF0F00C490968B1FBF0F5B1
:101E2000284602F023FA08B1012070BD102C07D219
:101E300000222146501E00F04EFA0548046001E0E1
:101E40000120F2E70020F0E7780000245C00002485
:101E50007400002470B504460E46154600BF94F881
:101E6000A000012801D1022070BD012084F8A0004B
:101E700000BF022084F8A10005EB850101EBC5023B
:101E800004F1380101EB820034223146FEF7B8FC40
:101E90002A463146204606F067FB01202168486249
:101EA00084F8A10000BF002084F8A00000BF00BF9C
:101EB000DAE7000070B50446002500260CB90120C1
:101EC00070BD94F8A10028B9002084F8A000204635
:101ED00000F07EF8022084F8A1002068806920F0DC
:101EE000704021688861D4E901010843E168084332
:101EF000216908432168896908432168886120684D
:101F000080683249084021688860A08A05042068FA
:101F10008068A16929430843216888602068C068F7
:101F20002A4908402168C860A08B05042068C06861
:101F3000216A294308432168C86020680069234951
:101F4000084021680861A08C050420680069A16A26
:101F50002943084321680861206840691B490840FB
:101F600021684861A08D050420684069216B2943E0
:101F700008432168486194F83500050294F836005A
:101F800006042068C06A00F07F402168C86246EA03
:101F9000050094F8341008432168C96A0843216891
:101FA000C8622068406B40F00600216848632068E2
:101FB000806940F00100216888610020C4F8A40015
:101FC000012084F8A10000207AE7000000F800F06A
:101FD00010B586B0044600BF4848006840F00800CD
:101FE000464908600846006800F00800009000BFFD
:101FF00000BF00BF41481038006840F010003F4962
:10200000103908600846006800F01000009000BF1A
:1020100000BF00BF3948001F006840F00200374988
:10202000091F08600846006800F00200009000BF29
:1020300000BF00BF0846006840F020000860084666
:10204000006800F02000009000BF00BF00BF0846FD
:10205000006840F0400008600846006800F040005A
:10206000009000BF00BF00BF0846006840F080003D
:1020700008600846006800F08000009000BF00BFC4
:1020800000BF0846006840F4807008600846006899
:1020900000F48070009000BF00BF2020019001205C
:1020A000029003900320049001A91548FFF754FD06
:1020B0004FF48060019002200290002003900320E2
:1020C00004900E20059001A90E48FFF745FD4FF43E
:1020D0000C60019001A90C48FFF73EFD4FF47E40D3
:1020E000019001A90948FFF737FD40F2F760019020
:1020F00001A90748FFF730FD06B010BDE4440258BF
:10210000000402580014025800180258001C02581B
:10211000002002582DE9F04104460E461746984625
:1021200000BF94F8A000012802D10220BDE8F08190
:10213000012084F8A00000BF022084F8A10008EB71
:10214000880000EBC80104F1380000EB81052E6027
:10215000A86A30446860AF60E86A3844E860424684
:102160002946204606F000FA01202168486284F8DA
:10217000A10000BF002084F8A00000BF00BFD5E789
:102180002DE9F04104460E461746984600BF94F8E4
:10219000A000012802D10220BDE8F081012084F8CE
:1021A000A00000BF022084F8A10008EB880000EB2B
:1021B000C80104F1380000EB8105286830446860EC
:1021C000A8683844E860AE62EF624246294620467D
:1021D00006F0CAF901202168486284F8A10000BF16
:1021E000002084F8A00000BF00BFD5E74178154A61
:1021F00011600178F9B1121D41681160017B090776
:10220000C27A41EA0261827A41EAC241427B41EAF2
:102210008241827B41EA4241C27B41EA0241427AE9
:1022200041EA0221027A41EA420102781143054A59
:102230000832116005E00021024A121D1160121DD2
:102240001160704798ED00E000BF00BF00BFBFF312
:102250005F8F00BF00BF00BF0548006820F48030DA
:10226000034908600020024970310860704700008F
:1022700024ED00E040F001010D4A11600C49703975
:10228000096841F480310A4A703A116000BF00BF0A
:1022900000BFBFF34F8F00BF00BF00BF00BF00BF34
:1022A00000BFBFF36F8F00BF00BF00BF70470000CB
:1022B00094ED00E0704701460846002809DB00F075
:1022C0001F0301229A4043099B0003F1E023C3F856
:1022D000002100BF70472DE9F05F80460D4616468D
:1022E00008F006FA074639462A46334601F0070049
:1022F000C0F1070ABAF1040F02D94FF0040A01E055
:10230000C0F1070AD14600F1040ABAF1070F02D260
:102310004FF0000A01E0A0F1030AD4464FF0010A91
:102320000AFA09FAAAF1010A0AEA020A0AFA0CFAF6
:102330004FF0010B0BFA0CFBABF1010B0BEA030B9B
:102340004AEA0B042146404608F0DAF9BDE8F09F5E
:1023500000BF00F00702064B19684FF6FF03194053
:10236000044B0B4343EA0221014B196000BF704745
:102370000CED00E00000FA0510B501F067F909491D
:10238000096801F470614FF4807292FAA2F2B2FA15
:1023900082F2D140044A515CC840044908600846B2
:1023A000006810BD18440258C2C500085C00002433
:1023B00010B501F003F90749096801F07001102216
:1023C00092FAA2F2B2FA82F2D140034A515CC840BA
:1023D00010BD000020440258C2C5000870B5014677
:1023E00000220120002300249FED811AB0EE410A53
:1023F0009FED7F1AF0EE410A7E4D2D6805F0030235
:102400007C4D2D68C5F305307A4D2D1D2D6805F0E6
:102410001003784D14352D68C5F3CC0515FB03F575
:1024200001EE105AB8EE411AB0EE410A22B1012A6B
:102430004DD0022A7DD169E06E4D283D2D68C5F34F
:1024400040152DB36B4D283D2D68C5F3C1066A4D6F
:1024500025FA06F4B4FBF0F501EE105AF8EE411A35
:102460009FED661A80EE012A624D10352D68C5F386
:10247000080501EE105AB8EE411A32EE011AB7EE15
:10248000002A31EE021A21EE811AF0EE410A1DE017
:10249000594DB5FBF0F501EE105AF8EE411A9FEDDB
:1024A000571A80EE012A534D10352D68C5F30805E3
:1024B00001EE105AB8EE411A32EE011AB7EE002AB8
:1024C00031EE021A21EE811AF0EE410A5EE04C4D27
:1024D000B5FBF0F501EE105AB8EE412A9FED471A10
:1024E000C0EE011A434D10352D68C5F3080501EE05
:1024F000105AB8EE411A31EE811AF7EE001A31EE99
:10250000211A22EE011AF0EE410A3FE03D4DB5FBE3
:10251000F0F501EE105AF8EE411A9FED381A80EEF0
:10252000012A344D10352D68C5F3080501EE105A07
:1025300000E00CE0B8EE411A32EE011AB7EE002AC4
:1025400031EE021A21EE811AF0EE410A1EE02C4D06
:10255000B5FBF0F501EE105AB8EE412A9FED271AAF
:10256000C0EE011A234D10352D68C5F3080501EEA4
:10257000105AB8EE411A31EE811AF7EE001A31EE18
:10258000211A22EE011AF0EE410A00BF00BF194DD8
:1025900010352D68C5F346256D1C01EE105AB8EEB6
:1025A000411AC0EE811ABCEEE11A81ED001A114DFC
:1025B00010352D68C5F306456D1C01EE105AB8EEB6
:1025C000411AC0EE811ABCEEE11A81ED011A094DE3
:1025D00010352D68C5F306656D1C01EE105AB8EE76
:1025E000411AC0EE811ABCEEE11A81ED021A70BDEB
:1025F00000000000284402580090D003000000466C
:1026000000093D0040787D0170B50146002201209F
:10261000002300249FED811AB0EE410A9FED7F1A3E
:10262000F0EE410A7E4D2D6805F003027C4D2D68C9
:10263000C5F305507A4D2D1D2D6805F48073784D36
:102640001C352D68C5F3CC0515FB03F501EE105ABA
:10265000B8EE411AB0EE410A22B1012A4DD0022A49
:102660007DD169E06E4D283D2D68C5F340152DB331
:102670006B4D283D2D68C5F3C1066A4D25FA06F459
:10268000B4FBF0F501EE105AF8EE411A9FED661A10
:1026900080EE012A624D18352D68C5F3080501EE5C
:1026A000105AB8EE411A32EE011AB7EE002A31EE96
:1026B000021A21EE811AF0EE410A1DE0594DB5FBD8
:1026C000F0F501EE105AF8EE411A9FED571A80EE20
:1026D000012A534D18352D68C5F3080501EE105A2F
:1026E000B8EE411A32EE011AB7EE002A31EE021AA4
:1026F00021EE811AF0EE410A5EE04C4DB5FBF0F59B
:1027000001EE105AB8EE412A9FED471AC0EE011AA9
:10271000434D18352D68C5F3080501EE105AB8EE83
:10272000411A31EE811AF7EE001A31EE211A22EE2B
:10273000011AF0EE410A3FE03D4DB5FBF0F501EE28
:10274000105AF8EE411A9FED381A80EE012A344DE6
:1027500018352D68C5F3080501EE105A00E00CE0AD
:10276000B8EE411A32EE011AB7EE002A31EE021A23
:1027700021EE811AF0EE410A1EE02C4DB5FBF0F57A
:1027800001EE105AB8EE412A9FED271AC0EE011A49
:10279000234D18352D68C5F3080501EE105AB8EE23
:1027A000411A31EE811AF7EE001A31EE211A22EEAB
:1027B000011AF0EE410A00BF00BF194D18352D680F
:1027C000C5F346256D1C01EE105AB8EE411AC0EE55
:1027D000811ABCEEE11A81ED001A114D18352D68F1
:1027E000C5F306456D1C01EE105AB8EE411AC0EE55
:1027F000811ABCEEE11A81ED011A094D18352D68D8
:10280000C5F306656D1C01EE105AB8EE411AC0EE14
:10281000811ABCEEE11A81ED021A70BD00000000C1
:10282000284402580090D0030000004600093D00F3
:1028300040787D012DE9F0410446002500262068FE
:1028400000F00060B0F1006F30D1606E48B1B0F5BB
:10285000801F0DD0B0F5001F10D0B0F5401F15D16E
:1028600013E0F948006840F40030F74908600FE0D1
:102870000221201D06F082FB054609E0022104F139
:10288000240006F013FC054602E001E0012500BF2C
:1028900000BF55B9EC482430006820F44010616E48
:1028A0000843E9492431086000E02E43208800F401
:1028B0008070B0F5807F2DD1606D05281AD2DFE8D9
:1028C00000F0030A10171800DF48006840F40030D9
:1028D000DD49086010E00021201D06F04FFB054691
:1028E0000AE0002104F1240006F0E0FB054603E0C5
:1028F00002E001E0012500BF00BF55B9D2482430F5
:10290000006820F00700616D0843CF49243108605A
:1029100000E02E43208800F40070B0F5007F33D132
:10292000A06D802817D003DC40B140281CD10CE0FA
:10293000C02817D0B0F5807F16D114E0C2480068D7
:1029400040F40030C049086010E00021201D06F06E
:1029500015FB05460AE0002104F1240006F0A6FB61
:10296000054603E002E001E0012500BF00BF55B9C4
:10297000B5482430006820F4E070A16D0843B249E6
:102980002431086000E02E43208800F48060B0F518
:10299000806F38D1D4F8A400B0F5800F19D004DCD2
:1029A00050B1B0F5001F1DD10DE0B0F5C00F17D02C
:1029B000B0F5000F16D114E0A348006840F40030D1
:1029C000A149086010E00021201D06F0D7FA054655
:1029D0000AE0002104F1240006F068FB054603E04C
:1029E00002E001E0012500BF00BF5DB996482C3030
:1029F000006820F46000D4F8A410084392492C31F8
:102A0000086000E02E43208800F40060B0F5006FFD
:102A100038D1D4F8A800B0F1007F19D004DC50B14F
:102A2000B0F1807F1DD10DE0B0F1407F17D0B0F143
:102A3000806F16D114E08448006840F40030824969
:102A4000086010E00021201D06F098FA05460AE013
:102A5000002104F1240006F029FB054603E002E012
:102A600001E0012500BF00BF5DB977482C30006848
:102A700020F0E060D4F8A810084373492C310860B6
:102A800000E02E43206800F00070B0F1007F27D1F5
:102A9000A06CA0B1102804D0202809D030280FD174
:102AA0000CE06948006840F400306749086009E0BC
:102AB0000221201D06F062FA054603E002E001E073
:102AC000012500BF00BF55B95F482030006820F0E5
:102AD0003000A16C08435C492031086000E02E43BF
:102AE000208800F48050B0F5805F36D1E06DB0F5FD
:102AF000005F19D004DC50B1B0F5805F1DD10DE04E
:102B0000B0F5405F17D0B0F5804F16D114E04E48B5
:102B1000006840F400304C49086010E00021201D9E
:102B200006F02CFA05460AE0002104F1240006F024
:102B3000BDFA054603E002E001E0012500BF00BF49
:102B400055B941482430006820F4E040E16D084365
:102B50003D492431086000E02E43208800F40050F5
:102B6000B0F5005F34D1206EB0F5403F1DD007DCDA
:102B700068B1B0F5803F0BD0B0F5003F18D10DE043
:102B8000B0F5802F12D0B0F5A02F11D10FE011E0D9
:102B90000121201D06F0F2F905460BE0012104F1A8
:102BA000240006F083FA054604E003E002E001E0B9
:102BB000012500BF00BF55B923482430006820F428
:102BC000E020216E084320492431086000E02E43B4
:102BD000208800F48040B0F5804F38D1D4F8AC00A4
:102BE000B0F1405F1DD007DC68B1B0F1805F0BD061
:102BF000B0F1005F18D10DE0B0F1804F12D0B0F10C
:102C0000A04F11D10FE011E00121201D06F0B6F90F
:102C100005460BE0012104F1240006F047FA0546C1
:102C200004E003E002E001E0012500BF00BF6DB950
:102C300005482C30006820F0E040D4F8AC10084380
:102C400001492C31086002E02C4402582E432088B0
:102C500000F40040B0F5004F26D1E06E98B1B0F11D
:102C6000805F03D0B0F1005F0ED106E0FA48006843
:102C700040F40030F849086008E00121201D06F00A
:102C80007DF9054602E001E0012500BF00BF55B90E
:102C9000F1482430006820F04050E16E0843EE49CE
:102CA0002431086000E02E43206800F08070B0F10D
:102CB000807F27D1606CA0B1012804D0022809D000
:102CC00003280FD10CE0E448006840F40030E249EA
:102CD000086009E00221201D06F050F9054603E0D6
:102CE00002E001E0012500BF00BF55B9DA482030FD
:102CF000006820F00300616C0843D7492031086068
:102D000000E02E43206800F48000B0F5800F7DD1F4
:102D1000D248006840F48070D0490860FFF754F84A
:102D2000074606E0FFF750F8C01B642801D90325C9
:102D300005E0CA48006800F480700028F2D000BFA7
:102D40008DBBC5484430006800F44070B4F8B01042
:102D500001F44071884214D0BF484430006820F428
:102D60004078BD484430006840F48030BA4944316E
:102D700008600846006820F4803008600846C0F803
:102D80000080D4F8B000B0F5807F15D1FFF71CF8B3
:102D9000074609E0FFF718F8C01B41F28831884266
:102DA00002D9032507E038E0AB4844300068C0F39F
:102DB00040000028EED000BF4DBB00BFB4F8B0000B
:102DC00000F44070B0F5407F0ED1A3481C38006875
:102DD00020F47C51A24AD4F8B000104041EA10100F
:102DE0009D491C39086007E09B481C38006820F4A6
:102DF0007C5099491C390860974844300068B4F801
:102E0000B010C1F30B010843934901E006E002E072
:102E10004431086002E02E4300E02E43207800F0A9
:102E2000010068B3A06F182819D005DC48B1082844
:102E300008D0102816D10BE0202811D0282811D155
:102E40000FE011E00121201D06F098F805460BE087
:102E5000012104F1240006F029F9054604E003E00D
:102E600002E001E0012500BF00BF55B97A482830D3
:102E7000006820F03800A16F0843774928310860C6
:102E800000E02E43207800F00200022828D1606F75
:102E9000062815D2DFE800F003040A11121311E02E
:102EA0000121201D06F06AF805460BE0012104F11E
:102EB000240006F0FBF8054604E003E002E001E030
:102EC000012500BF00BF55B963482830006820F0D5
:102ED0000700616F084360492831086000E02E4315
:102EE000207800F0040004282AD1D4F890000628A5
:102EF00015D2DFE800F003040A11121311E00121DA
:102F0000201D06F03BF805460BE0012104F12400EA
:102F100006F0CCF8054604E003E002E001E00125FC
:102F200000BF00BF5DB94C482C30006820F007009E
:102F3000D4F89010084348492C31086000E02E4333
:102F4000207800F02000202836D1D4F88C00B0F191
:102F5000405F1DD007DC68B1B0F1805F0BD0B0F1ED
:102F6000005F18D10DE0B0F1804F12D0B0F1A04F4A
:102F700011D10FE011E00021201D05F0FFFF0546F3
:102F80000BE0022104F1240006F090F8054604E06D
:102F900003E002E001E0012500BF00BF5DB92E485B
:102FA0002830006820F0E040D4F88C1008432A490B
:102FB0002831086000E02E43207800F040004028CF
:102FC00036D1D4F89800B0F5406F1DD007DC68B159
:102FD000B0F5806F0BD0B0F5006F18D10DE0B0F5F3
:102FE000805F12D0B0F5A05F11D10FE011E0002199
:102FF000201D05F0C3FF05460BE0022104F124006B
:1030000006F054F8054604E003E002E001E0012583
:1030100000BF00BF5DB910482C30006820F4E050BC
:10302000D4F8981008430C492C31086000E02E4376
:10303000207800F0800080283BD1D4F89C00B0F5C7
:10304000C04F24D00EDCA0B1B0F5005F12D0B0F5B7
:10305000804F1FD114E000002C4402580048025851
:10306000FFFCFF0FB0F5004F12D0B0F5204F11D18B
:103070000FE011E00021201D05F080FF05460BE068
:10308000022104F1240006F011F8054604E003E0F3
:1030900002E001E0012500BF00BF4DB9B248006861
:1030A00020F46040D4F89C100843AF49086000E069
:1030B0002E43207800F00800082816D1D4F88000AC
:1030C000B0F5805F06D1022104F1240005F0EEFF87
:1030D00006430AE0A448001F006820F44050D4F8DA
:1030E00080100843A049091F0860207800F01000F4
:1030F000102814D1D4F89400B0F5807F06D10221B5
:1031000004F1240005F0D2FF064308E09648006869
:1031100020F44070D4F89410084393490860206864
:1031200000F40020B0F5002F26D1D4F8A00030B173
:10313000B0F5803F09D0B0F5003F0ED10CE0002182
:10314000201D05F01BFF054609E0022104F12400C3
:1031500005F0ACFF054602E001E0012500BF00BF1D
:103160004DB98148006820F44030D4F8A0100843DD
:103170007D49086000E02E43206800F48020B0F50F
:10318000802F2DD1D4F88400B0F5801F06D0B0F583
:10319000001F0CD0B0F5401F11D10FE072482C3841
:1031A000006840F4003070492C39086009E00121C2
:1031B00004F1240005F07AFF054602E001E0012554
:1031C00000BF00BF5DB96848001F006820F44010D0
:1031D000D4F8841008436449091F086000E02E43B6
:1031E000206800F48030B0F5803F24D1E06C18B145
:1031F000B0F5803F0FD108E05B482C38006840F400
:10320000003059492C39086007E00221201D05F0E3
:10321000B5FE054601E0012500BF00BF55B9524883
:103220000C38006820F48030E16C08434E490C39BA
:10323000086000E02E43206800F00050B0F1005F0D
:1032400005D1022104F1240005F030FF0643206877
:1032500000F40030B0F5003F27D1E06FA0B1B0F529
:10326000807F06D0B0F5007F0CD0B0F5407F0CD148
:1032700009E03D482C38006840F400303A492C39C8
:10328000086004E003E002E001E0012500BF00BFA8
:1032900055B93548001F006820F44070E16F0843BD
:1032A0003149091F086000E02E43206800F48010B7
:1032B000B0F5801F09D12C480838006820F0004084
:1032C000216F0843284908390860206800F08050C1
:1032D000B0F1805F0AD124484838006820F480406B
:1032E000D4F8B4100843204948390860206800F435
:1032F0000010B0F5001F09D11B480838006820F005
:103300008070A16E0843184908390860206800F0F1
:103310008040B0F1804F11D100BF13484838006899
:1033200020F4004010494839086008460068D4F885
:10333000B81008430C494839086000BF206800F005
:103340000040B0F1004F09D107480C38006820F068
:103350004050216D084304490C39086016B900201B
:10336000BDE8F0810120FBE75844025870B50446DF
:103370000D4600268D48006800F00700A8420ED2D6
:103380008A48006820F007002843884908600846FA
:10339000006800F00700A84201D0012070BD20782D
:1033A00000F00200022807D18148006820F00F00D9
:1033B000E16808437E490860207800F00100002899
:1033C00051D07B48006820F47060A16808437849B8
:1033D00008606068022807D1754818380068C0F393
:1033E0004040F8B90120D9E76068032807D1704848
:1033F00018380068C0F34060A0B90120CEE76068CB
:10340000012807D16A4818380068C0F3002048B97D
:103410000120C3E7664818380068C0F3800008B987
:103420000120BBE762480838006820F007006168A7
:1034300008435F4908390860FEF7C6FC0646606825
:10344000022811D108E0FEF7BFFC801B41F2883151
:10345000884201D90320A1E755480838006800F0E8
:1034600038001028EFD13AE06068032811D108E055
:10347000FEF7AAFC801B41F28831884201D9032063
:103480008CE74B480838006800F038001828EFD166
:1034900025E06068012811D108E0FEF795FC801B4B
:1034A00041F28831884201D9032077E74048083843
:1034B000006800F038000828EFD110E008E0FEF7BF
:1034C00083FC801B41F28831884201D9032065E7E3
:1034D00037480838006800F038000028EFD133483A
:1034E000006800F00700A8420ED93048006820F0BC
:1034F000070028432D4908600846006800F00700CF
:10350000A84201D0012049E7207800F004000428F7
:1035100007D12748006820F070002169084324493A
:103520000860207800F00800082809D12048001D14
:10353000006820F07000616908431D49091D08609A
:10354000207800F01000102809D11948001D0068EB
:1035500020F4E060A16908431549091D086020783E
:1035600000F02000202809D111480830006820F020
:103570007000E16908430E490831086000F066F800
:103580000B49096801F470614FF4807292FAA2F25B
:10359000B2FA82F2D140074A515CC840064908603D
:1035A0000F20FEF731FC0020F8E60000002000525A
:1035B00018440258C2C500085C00002410B5FEF78C
:1035C000DBFE0949096801F00F01012292FAA2F21B
:1035D000B2FA82F2D140054A515CC8400449086001
:1035E0000846006810BD000018440258C2C5000813
:1035F0006000002410B5FFF7E1FF0749096801F0FA
:103600007001102292FAA2F2B2FA82F2D140034A79
:10361000515CC84010BD00001C440258C2C50008DF
:1036200010B5FFF7CBFF0749096801F4E0614FF4DB
:10363000807292FAA2F2B2FA82F2D140024A515C4E
:10364000C84010BD1C440258C2C5000870B5012511
:1036500000EE905A0022012100230024DFED861A9B
:10366000B0EE610ADFED841AB0EE611A0020834DDE
:103670002D6805F0380535B1082D15D0102D15D061
:10368000182D7CD114E07D4D103D2D68C5F34015FB
:1036900045B17A4D103D2D68C5F3C106784D25FA28
:1036A00006F000E07648E5E07648E3E07648E1E0C1
:1036B000724D18352D6805F00302704D18352D68D0
:1036C000C5F305116D4D1C352D6805F001036B4DDB
:1036D00024352D68C5F3CC0515FB03F501EE905A92
:1036E000F8EE611AB0EE610A22B1012A4FD0022A27
:1036F0007DD16BE0614D103D2D68C5F340152DB3B4
:103700005E4D103D2D68C5F3C1065D4D25FA06F4EA
:10371000B4FBF1F501EE905AB8EE612ADFED5B1AC9
:10372000C0EE212A554D20352D68C5F3080501EE60
:10373000905AF8EE611A72EEA11AF7EE002A71EEB5
:10374000A21A62EE211AB0EE611A1FE04C4DB5FBD1
:10375000F1F501EE905AB8EE612ADFED4C1AC0EE99
:10376000212A464D20352D68C5F3080501EE905AF3
:10377000F8EE611A72EEA11AF7EE002A00E077E087
:1037800071EEA21A62EE211AB0EE611A5EE03D4DB2
:10379000B5FBF1F501EE905AB8EE612ADFED3B1A68
:1037A000C0EE212A354D20352D68C5F3080501EE00
:1037B000905AF8EE611A72EEA11AF7EE002A71EE35
:1037C000A21A62EE211AB0EE611A3FE02E4DB5FB4F
:1037D000F1F501EE905AB8EE612ADFED2C1AC0EE39
:1037E000212A264D20352D68C5F3080500E00EE09E
:1037F00001EE905AF8EE611A72EEA11AF7EE002A65
:1038000071EEA21A62EE211AB0EE611A1EE01D4D91
:10381000B5FBF1F501EE905AF8EE612ADFED1B1AC7
:1038200080EE212A154D20352D68C5F3080501EEDF
:10383000905AF8EE611A72EE211AB7EE002A71EE74
:10384000821A62EEA11AB0EE611A00BF00BF0B4DE2
:1038500020352D68C5F346256D1C00EE905AF8EE14
:10386000601A81EE212AFCEEC21A11EE900A01E0E4
:10387000044800BF00BF70BD0000000010440258A3
:103880000090D00300093D0040787D010000004613
:1038900070B504460025207800F00100002872D0A1
:1038A000F948006800F0380010280CD0F64800688D
:1038B00000F03800182812D1F3481830006800F0E2
:1038C000030002280BD1F04810380068C0F34040D4
:1038D00000286DD0606800286AD1012070BD00BF4B
:1038E0006068B0F5803F08D1E7481038006840F4C0
:1038F0008030E549103908602EE0606868B9E24818
:103900001038006820F48030DF491039086008461C
:10391000006820F4802008601EE06068B0F5A02FE9
:103920000DD1D9481038006840F48020D6491039AC
:1039300008600846006840F4803008600CE0D24817
:103940001038006820F48030CF49103908600846EC
:10395000006820F48020086000BF6068A0B1FEF716
:1039600033FA054608E0FEF72FFA401B41F2883192
:10397000884201D90320B1E7C34810380068C0F37A
:1039800040400028EFD013E0FEF71EFA054608E09D
:10399000FEF71AFA401B41F28831884201D9032010
:1039A0009CE7B94810380068C0F340400028EFD1C8
:1039B000207800F00200022847D1B348006800F0E8
:1039C000380058B1B048006800F0380018283ED1DF
:1039D000AD481830006800F00300B8BBAA481038A2
:1039E0000068C0F3800018B1E06808B9012075E7ED
:1039F000A5481038006820F01900E1680843A24982
:103A000010390860FEF7E0F9054606E0FEF7DCF93C
:103A1000401B022801D9032060E79B48103800684A
:103A2000C0F380000028F1D097480C38006820F4DB
:103A30007C304FF47C3292FAA2F2B2FA82F221691F
:103A40009140084390490C3908604AE0FFE7E0687C
:103A500068B38D481038006820F01900E168084309
:103A6000894910390860FEF7AFF9054606E0FEF710
:103A7000ABF9401B022801D903202FE782481038F8
:103A80000068C0F380000028F1D07F480C3800683F
:103A900020F47C304FF47C3292FAA2F2B2FA82F235
:103AA00021699140084378490C39086019E076484B
:103AB0001038006820F00100734910390860FEF7E3
:103AC00083F9054606E0FEF77FF9401B022801D97D
:103AD000032003E76C4810380068C0F3800000281A
:103AE000F1D1207800F01000102877D166480068E6
:103AF00000F0380008280CD06348006800F0380057
:103B0000182823D160481830006800F0030001280D
:103B10001CD15D4810380068C0F3002020B1E06976
:103B2000802801D00120D9E657480C38006820F0E1
:103B3000F8404FF0F84292FAA2F2B2FA82F2216A09
:103B40009140084350490C39086047E0E06958B398
:103B50004D481038006840F080004B49103908602B
:103B6000FEF732F9054606E0FEF72EF9401B022863
:103B700001D90320B2E6444810380068C0F30020A1
:103B80000028F1D040480C38006820F0F8404FF091
:103B9000F84292FAA2F2B2FA82F2216A9140084304
:103BA00039490C39086019E037481038006820F0AE
:103BB0008000354910390860FEF706F9054606E031
:103BC000FEF702F9401B022801D9032086E62E48A1
:103BD00010380068C0F300200028F1D1207800F0F0
:103BE0000800082836D16069D0B1274864300068E1
:103BF00040F00100244964310860FEF7E5F805460D
:103C000006E0FEF7E1F8401B022801D9032065E633
:103C10001D4864300068C0F340000028F1D019E06E
:103C200019486430006820F00100174964310860C9
:103C3000FEF7CAF8054606E0FEF7C6F8401B022864
:103C400001D903204AE6104864300068C0F3400000
:103C50000028F1D1207800F02000202834D1A0697C
:103C6000D8B109481038006840F48050064910392E
:103C70000860FEF7A9F8054608E0FEF7A5F8401B26
:103C8000022803D9032029E610440258AF480068EF
:103C9000C0F340300028F0D016E0AC48006820F4B3
:103CA0008050AA490860FEF78FF8054606E0FEF747
:103CB0008BF8401B022801D903200FE6A3480068B7
:103CC000C0F340300028F2D1207800F0040004282E
:103CD0007DD19F48006840F480709D490860FEF7E0
:103CE00073F8054606E0FEF76FF8401B642801D91B
:103CF0000320F3E59648006800F480700028F2D0B5
:103D000000BFA068012808D190487030006840F0DA
:103D100001008E49703108602DE0A06868B98B48B9
:103D20007030006820F00100884970310860084652
:103D3000006820F0040008601DE0A06805280DD18F
:103D400082487030006840F004008049703108609B
:103D50000846006840F0010008600CE07B487030C5
:103D6000006820F001007949703108600846006859
:103D700020F00400086000BFA068A0B1FEF724F89E
:103D8000054608E0FEF720F8401B41F288318842E2
:103D900001D90320A2E56D4870300068C0F34000EF
:103DA0000028EFD013E0FEF70FF8054608E0FEF715
:103DB0000BF8401B41F28831884201D903208DE580
:103DC000624870300068C0F340000028EFD1606A9C
:103DD00000287CD05D481030006800F038001828BA
:103DE00076D0606A022874D15848006820F080704C
:103DF00056490860FDF7E8FF054606E0FDF7E4FFD9
:103E0000401B022801D9032068E550480068C0F330
:103E100040600028F2D100BFD4E90A1041EA001046
:103E20004A492831096840F2F3329143084347492F
:103E300028310860208E401EC0F30800616B491EC7
:103E40004FF47E4202EA41210843218F491ED201EC
:103E500002EA014108433C21095D491E120202EABF
:103E60000161084339493031086000BF081D00680E
:103E70004FF6F87188434FF6F87292FAA2F2B2FA4E
:103E800082F2A16C914008433049343108602F48D8
:103E90002C30006820F00C00216C08432B492C3199
:103EA00008600846006820F00200616C084327495A
:103EB0002C3108600846006840F4803008600846ED
:103EC000006840F4003008600846006802E03BE00B
:103ED00038E01FE040F4802008600846006840F0A9
:103EE000010008601948006840F0807017490860B8
:103EF000FDF76AFF054606E0FDF766FF401B022856
:103F000001D90320EAE411480068C0F340600028AA
:103F1000F2D019E00D48006820F080700B4908606D
:103F2000FDF752FF054606E0FDF74EFF401B022855
:103F300001D90320D2E405480068C0F3406000289E
:103F4000F2D101E00120C9E40020C7E40044025896
:103F50000048025870B504460D460CB9012070BDEA
:103F600094F82C0028B9002084F82D00204600F099
:103F700019F8022084F82C00211D2068FDF7E7F8CD
:103F80002946D4E90002FDF737F90548006840F0FA
:103F9000004003490860012084F82C000020DEE77F
:103FA0000040005210B586B0044600BF4648006885
:103FB00040F00200444908600846006800F0020032
:103FC000009000BF00BF00BF3F482038006840F4A9
:103FD00080503D49203908600846006800F4805050
:103FE000009000BF00BF00BF37481438006840F0A1
:103FF00004003549143908600846006800F00400E0
:10400000009000BF00BF00BF0846006840F00800F5
:1040100008600846006800F00800009000BF00BF7C
:1040200000BF0846006840F01000086008460068BD
:1040300000F01000009000BF00BF00BF08460068FD
:1040400040F0200008600846006800F02000009062
:1040500000BF00BF00BF0846006840F04000086095
:104060000846006800F04000009000BF00BF0D202F
:1040700001900220029001200390032004900C2064
:10408000059001A91148FDF767FD4CF203700190FE
:1040900001A90F48FDF760FD4FF68370019001A95B
:1040A0000C48FDF759FD4FF63F00019001A90A4861
:1040B000FDF752FD48F23710019001A90748FDF7BE
:1040C0004BFD06B010BD0000F44402580008025831
:1040D000000C025800100258001402580018025830
:1040E00070B504460D4694F82C00022800D170BD2E
:1040F000022084F82C0029462068FDF762F8012090
:1041000084F82C000020F2E770B504460D461646F0
:1041100094F82C00022800D170BD022084F82C00F5
:10412000324629462068FDF753F82868022803D153
:10413000052084F82C0002E0012084F82C000020E7
:10414000EAE7000070B504460E4615460CB901209A
:1041500070BD94F8450028B9002084F8440020463A
:1041600000F024F804F108012068FCF781FF3146D3
:10417000A2682068FCF7BCFF2946E36AD4E9010283
:10418000FCF752FFA168206850F8210040F00100C0
:10419000A268216841F822000348006840F000400E
:1041A000014908600020D3E70040005210B586B0F6
:1041B000044600BF2048006840F480501E49086053
:1041C0000846006800F48050009000BF00BF00BFA8
:1041D00019480C30006840F0080017490C3108609D
:1041E0000846006800F00800009000BF00BF00BF54
:1041F0000846006840F0100008600846006800F0BB
:104200001000009000BF00BF4EF2B370019002207A
:10421000029001200390032004900C20059001A936
:104220000648FDF799FC4FF68070019001A90448FB
:10423000FDF792FC06B010BDD4440258000C0258A1
:1042400000100258042808D14FF0E021096941F01C
:1042500004014FF0E022116107E04FF0E02109690D
:1042600021F004014FF0E0221161704770B504465F
:104270002546681EB0F1807F01D301200FE0681E43
:104280004FF0E02148610F214FF0FF3006F038FA7F
:1042900000204FF0E021886107200861002070BDF8
:1042A0007047704710B504460CB9012010BD94F852
:1042B0003D0028B9002084F83C00204600F00CF8AE
:1042C000022084F83D00211D206805F0E9FA012054
:1042D00084F83D000020E9E738B5044600BF0B48EC
:1042E000006840F00200094908600846006800F0D4
:1042F0000200009000BF00BF032201211D20FDF736
:10430000EAFF1D20FDF7D7FF38BD0000E844025842
:1043100001460868C06840F001000A68D06008687B
:10432000008840F001000A68108000207047704744
:1043300010B5044620680069C0F34000D8B1206879
:10434000C068C0F34000B0B16FF00200216808619E
:10435000012020772068806900F0030018B1204612
:10436000FFF7E5FF05E0204600F0BEF8204600F02C
:10437000BCF80020207720680069C0F38000D8B125
:104380002068C068C0F38000B0B16FF004002168FD
:104390000861022020772068806900F4407018B11D
:1043A0002046FFF7C4FF05E0204600F09DF82046B8
:1043B00000F09BF80020207720680069C0F3C0005F
:1043C000D8B12068C068C0F3C000B0B16FF0080079
:1043D00021680861042020772068C06900F003008C
:1043E00018B12046FFF7A3FF05E0204600F07CF857
:1043F000204600F07AF80020207720680069C0F39A
:104400000010D8B12068C068C0F30010B0B16FF0E0
:10441000100021680861082020772068C06900F436
:10442000407018B12046FFF782FF05E0204600F0FB
:104430005BF8204600F059F80020207720680069DA
:1044400000F0010058B12068C06800F0010030B1F0
:104450006FF0010021680861204600F047F82068ED
:104460000069C0F3C01058B12068C068C0F3C01024
:1044700030B16FF08000216808612046FFF710FF1F
:1044800020680069C0F3002058B12068C068C0F3FC
:10449000C01030B16FF08000216808612046FFF73E
:1044A000FFFE20680069C0F3801058B12068C06822
:1044B000C0F3801030B16FF04000216808612046E1
:1044C00000F03EF820680069C0F3401058B1206841
:1044D000C068C0F3401030B16FF02000216808615F
:1044E0002046FFF7DEFE10BD7047704710B504464A
:1044F000084884420CD10848017808A0FBF7E4FF83
:104500000948018809A0FBF7DFFF00200249087075
:1045100010BD0000FC4500248C0000246672616D13
:10452000653A25640D0A0000080000246A7065677A
:104530005F646174615F6C656E3A25640D0A00000A
:1045400070477047704701460022002391F8792098
:1045500091F87A3042EA0300704700002DE9F041FB
:1045600004462068C569206807682068866805F0E9
:104570000F08B8F1000F0DD105F0200050B107F081
:10458000200010B906F0805020B1204605F0F7FA5F
:10459000BDE8F081B8F1000F72D05D48304018B925
:1045A00007F4907000287AD005F0010048B107F4B4
:1045B000807030B1012021680862E06F40F0010096
:1045C000E06705F0020048B106F0010030B10220BA
:1045D00021680862E06F40F00400E06705F0040025
:1045E00048B106F0010030B1042021680862E06F94
:1045F00040F00200E06705F0080078B107F0200005
:1046000028B906F0805010B906F0010030B108203A
:1046100021680862E06F40F00800E067E06F70B367
:1046200005F0200040B107F0200010B906F08050DE
:1046300010B1204605F0A3FAE06F00F0080020B9A1
:104640002068806800F0400018B3204605F077FA33
:104650002068806800F04000B8B12068806820F0D1
:10466000400021688860606F58B12A48616F086512
:10467000606FFCF7F1FF10B1606F016D88470DE0CE
:104680000DE02046FFF75EFF08E02046FFF75AFFE7
:1046900004E02046FFF756FF0020E06778E705F4C6
:1046A000801078B106F4800060B14FF4801021686A
:1046B0000862202084F8790084F87A002046FFF709
:1046C00040FF65E705F0800048B107F0800010B9B1
:1046D00006F4000018B1204605F068FF58E705F021
:1046E000400030B107F0400018B1204605F037FA1D
:1046F0004EE705F4000040B107F0804028B1206883
:10470000006820F080402168086000BF40E700009A
:1047100001000010279B000810B504460CB90120C9
:1047200010BDA06900B100E000BF94F8790028B97D
:10473000002084F87800204600F02AF8242084F82D
:1047400079002068006820F0010021680860204698
:1047500005F05AFA012800D1E2E7606B10B120465B
:1047600005F032F92068406820F4904021684860E4
:104770002068806820F02A0021688860206800682E
:1047800040F0010021680860204605F092F9C7E773
:1047900010B586B004462149206888423BD100BF4D
:1047A0001F48006840F001001D4908600846006885
:1047B00000F00100009000BF00BF00BF184810309B
:1047C000006840F010001649103108600846006883
:1047D00000F01000009000BF00BF4FF40070019087
:1047E00002200290012003900220049007200590EF
:1047F00001A90C48FDF7B0F94FF48060019001A9C0
:104800000848FDF7A9F92520FDF755FD03221146BB
:104810002520FDF760FD06B010BD0000001001402E
:10482000E04402580000025810B5034693F87A009D
:10483000202867D101B10AB9012010BD00BF93F84B
:104840007800012801D10220F7E7012083F87800E1
:1048500000BF5966A3F86820A3F86A2000BF9868D3
:10486000B0F5805F0AD1186920B940F2FF10A3F8B3
:104870006C001CE0FF20A3F86C0018E0986848B9B1
:10488000186918B9FF20A3F86C0010E07F20A3F886
:104890006C000CE09868B0F1805F08D1186918B915
:1048A0007F20A3F86C0002E03F20A3F86C0000BF5B
:1048B0000020D867222083F87A0000BF002083F808
:1048C000780000BF1868806840F001001C68A06094
:1048D0001868006800F0005060B11868006840F483
:1048E00080701C6820601868806840F080501C68E8
:1048F000A06005E01868006840F490701C682060B3
:1049000000209AE7022098E71D4A0168914236D1BB
:104910001C49098801F4004189BB1A49098801F43E
:10492000804171B1184909780A2903D00021154A3C
:10493000118024E01349098841F40041114A118093
:104940001DE0114909780D2906D10E49098841F465
:1049500080410C4A118012E00B490978094A1288FB
:10496000C2F30D02094B995406490988491C054AAE
:10497000118011460988C72901DD00211180704787
:10498000001001406C0000246E000024B44100249B
:10499000704700BFFEE7000010B50022102112484A
:1049A000FDF70CFA1048006820F440600E490860DA
:1049B0000846006840F480600860002220210A4810
:1049C000FDF7FCF9022005F0CFFE01221021064878
:1049D000FDF7F4F9022005F0C7FE0022102102487D
:1049E000FDF7ECF910BD0000001C025800B587B0BF
:1049F00000BF1248006840F0800010490860084677
:104A0000006800F08000019000BF00BF30200290DD
:104A10000120039004900320059002A90848FDF7A7
:104A20009BF8012220210648FDF7C8F90122102138
:104A30000348FDF7C3F907B000BD0000E044025889
:104A4000001C025810B5002210211248FDF7B6F9DB
:104A50001048006820F440600E490860084600686D
:104A600040F480600860012220210A48FDF7A6F981
:104A7000022005F079FE012210210648FDF79EF97B
:104A8000022005F071FE002210210248FDF796F980
:104A900010BD0000001C025870B5054600241848DF
:104AA000006820F440601649086008460068086005
:104AB00000261AE0002210211148FDF77FF902209C
:104AC00005F052FE012210210D48FDF777F960062E
:104AD000040E20210A48FDF765F908B1601CC4B234
:104AE000012005F041FE701CC6B2082EE2DB15B9AC
:104AF000FFF7A8FF01E0FFF74FFF204670BD000061
:104B0000001C025870B504461C48006820F4406040
:104B10001A4908600846006840F480600860002276
:104B200010211648FDF74AF9002523E0E00928B1D5
:104B3000012220211148FDF741F904E00022202143
:104B40000E48FDF73BF96006040E022005F00CFE4E
:104B5000012210210948FDF731F9022005F004FE79
:104B6000002210210548FDF729F9022005F0FCFD7F
:104B7000681CC5B2082DD9DB70BD0000001C0258AE
:104B800010B51348006820F44060114908600846D9
:104B9000006840F480600860012220210C48FDF785
:104BA0000DF9012210210A48FDF708F9042005F04B
:104BB000DBFD002220210648FDF700F9042005F066
:104BC000D3FD002210210248FDF7F8F810BD0000C7
:104BD000001C025810B51348006820F440601149C9
:104BE00008600846006840F48060086000221021D8
:104BF0000C48FDF7E3F8002220210A48FDF7DEF813
:104C0000042005F0B1FD012210210648FDF7D6F879
:104C1000012220210348FDF7D1F8042005F0A4FD6E
:104C200010BD0000001C025810B500241748006891
:104C300020F44060154908600846006808600122B9
:104C400020211248FDF7BAF8012005F08DFD012260
:104C500010210E48FDF7B2F8012005F085FD07E0B0
:104C6000601CC4B2FA2C03DDFFF7B4FF012010BDB5
:104C700020210648FDF796F80028F1D100221021E6
:104C80000248FDF79BF80020F1E70000001C0258E5
:104C900000B587B000BF2448006840F001002249F9
:104CA00008600846006800F00100019000BF00BFE6
:104CB00000BF0846006840F004000860084600682D
:104CC00000F00400019000BF00BF00BF084600686C
:104CD00040F0800008600846006800F08000019005
:104CE00000BF00BF0120029000200390022004902A
:104CF0000320059002A90D48FCF72EFF4FF4005049
:104D0000029000200390012004900320059002A946
:104D10000748FCF721FF0C20029002A90548FCF788
:104D20001BFF07B000BD0000E0440258000002581D
:104D300000080258001C025810B50446012C01D18D
:104D40002D4908702C480078002839D008212B48BC
:104D5000FDF728F880B104212848FDF723F858B161
:104D60004FF400512648FDF71DF828B101212548D0
:104D7000FDF718F8012823D10A2005F0E9FC0020EE
:104D80001D49087008211D48FDF70CF808B90120DD
:104D900010BD04211948FDF705F808B90220F7E70E
:104DA0004FF400511648FCF7FDFF08B90320EFE768
:104DB00001211448FCF7F6FF01281BD10420E7E786
:104DC00008210E48FCF7EEFF012813D104210B48FF
:104DD000FCF7E8FF01280DD141030948FCF7E2FF89
:104DE000012807D101210748FCF7DCFF10B9012099
:104DF000014908700020CBE779000024001C02580C
:104E0000000802580000025870B5044600260D48FC
:104E100005880D48006818B1204602F02DFF0FE00C
:104E20000848408845430021084602F061FD02F031
:104E3000E5FE002602E005490C80761CAE42FAD35E
:104E400070BD00007C4300249444002400000860EE
:104E500010B504465C4884715C48006850B1204637
:104E600002F0DCFF5948C08A574908805748008B38
:104E7000488010BD002C51D1F020534908804FF4D8
:104E8000A07048800846808849F24131884205D0A8
:104E90004D48808845F21031884214D12C204A496F
:104EA00008812A2048812B2088810846808845F285
:104EB0001031884206D14FF4A070434908804FF466
:104EC000F07048807BE04048808845F2105188426D
:104ED00010D14FF430503C4908814FF4285048819C
:104EE0004FF42C5088814FF4F07008804FF44870D4
:104EF000488064E03448808841F6631188425ED17E
:104F00002C20314908812B2048812A2088814FF4A8
:104F1000F07008804FF44870488050E04FF4A07063
:104F200029490880F02048800846808849F24131AC
:104F3000884205D02448808845F21031884207D144
:104F40002C20214908812A2048812B20888129E0B2
:104F50001D48808845F21051884210D14FF43050DE
:104F6000194908814FF4285048814FF42C5088810A
:104F70004FF4487008804FF4F070488012E01248F7
:104F8000808841F6631188420CD12C200E4908819B
:104F90002A2048812B2088814FF4487008804FF4E4
:104FA000F07048800848808845F21031884206D168
:104FB0004FF4F070044908804FF4A070488000203E
:104FC00002F05CFB00BF54E77C43002494440024BF
:104FD00070B504460D4616464348006828B132466F
:104FE0002946204602F030FF70BD4048808849F2D3
:104FF0004131884205D03D48808845F210318842D1
:1050000014D13A49488902F0EDFD201202F0DEFD8C
:10501000E0B202F0DBFD3549888902F0E3FD281299
:1050200002F0D4FDE8B202F0D1FD54E02F488088B0
:1050300045F21051884220D12C49488902F0D2FD16
:10504000201202F0C3FD29494989491C88B202F0A7
:10505000C9FDE0B202F0BAFD2449888902F0C2FD20
:10506000281202F0B3FD21498989491C88B202F057
:10507000B9FDE8B202F0AAFD2DE01C48808841F697
:105080006311884227D11948807920B917480088D0
:10509000401E001B84B21549488902F0A3FD20126E
:1050A00002F094FDE0B202F091FD201202F08EFDBC
:1050B000E0B202F08BFD0D49888902F093FD2812C1
:1050C00002F084FDE8B202F081FD281202F07EFDBC
:1050D000E8B202F07BFD0548008905490880891C7B
:1050E0000E8000BF80E70000944400247C4300242D
:1050F000FEFF07602DE9F84F05460E461746984615
:10510000DDF828904FF0000B1448006840B143468A
:105110003A4631462846CDF8009002F0BDFE1BE02D
:10512000781B401C1FFA80FB344613E021462846BA
:1051300002F0DEFB02F062FD4FF0000A06E00849D3
:10514000A1F800900AF101001FFA80FADA45F6DBB7
:10515000601C84B24445E9DDBDE8F88F9444002426
:105160000000086000B595B003F08EF9FE49888014
:105170000846808818B102F033FF02F0E4B900BF9E
:10518000FA48006840F00200F849086008460068E4
:1051900000F00200019000BF00BF2020109001200D
:1051A000119012900320139010A9F148FCF7D4FC41
:1051B00002F00AFAEF48F0490860F0484860002021
:1051C00088600021EC48C16001611021416100212B
:1051D0008161C16101624FF48051416200218162AD
:1051E0004FF48041C1620021016341634FF480119B
:1051F00081631120099000200A9055200B90002017
:105200000F9015200290002003901520049000209C
:10521000089002AA09A9D848FEF794FF322005F0A9
:1052200097FAD32002F0DEFC02F0F6F9CE4988802E
:1052300002F0F2F9CC49888002F0EEF9CA49888080
:10524000084680884FF6FF7101EA0020C649888031
:1052500002F0E2F9C44989880843C34988800846B6
:10526000808849F24131884278D0D42002F0BAFCDB
:1052700002F0D2F9BC49888002F0CEF9BA498880A0
:1052800002F0CAF9B8498880084680884FF6FF7155
:1052900001EA0020B449888002F0BEF9B249898849
:1052A0000843B14988800846808845F21031884219
:1052B00054D04FF45A4002F095FC02F0ADF9AA49DF
:1052C00088804FF45B4002F08DFC02F0A5F9A649FE
:1052D0008880084680884FF6FF7101EA0020A249C5
:1052E00088804FF45C4002F07DFC02F095F99E4905
:1052F000898808439C49888008468088B0F5004F1B
:1053000002D145F2105088809748808845F21051AC
:10531000884223D0A12002F065FC02F07DF9924979
:10532000888002F079F990498880084680884FF695
:10533000FF7101EA00208C49888002F06DF98A49EA
:1053400089880843884988800846808845F26171C9
:10535000884203D141F6631083498880824880885F
:1053600049F2413188427CD1CF2002F03BFC002041
:1053700002F02CFCC12002F029FC302002F026FCB7
:10538000ED2002F02FFC642002F020FC032002F04C
:105390001DFC122002F01AFC812002F017FCE8200C
:1053A00002F020FC852002F011FC102002F00EFC1F
:1053B0007A2002F00BFCCB2002F014FC392002F022
:1053C00005FC2C2002F002FC002002F0FFFB342040
:1053D00002F0FCFB022002F0F9FBF72002F002FCD5
:1053E000202002F0F3FBEA2002F0FCFB002002F098
:1053F000EDFB002002F0EAFBC02002F0F3FB1B20D3
:1054000002F0E4FBC12002F0EDFB012002F0DEFB24
:10541000C52002F0E7FB302002F0D8FB302002F07C
:10542000D5FBC72002F0DEFBB72002F0CFFB362011
:1054300002F0D8FB482002F0C9FB3A2002F0D2FB70
:10544000552002F0C3FBB12002F0CCFB002002F09B
:10545000BDFB1A2002F0BAFBB62002F0C3FB0A2003
:1054600000E0A5E002F0B2FBA22002F0AFFBF220C8
:1054700002F0B8FB002002F0A9FB262002F0B2FBEC
:10548000012002F0A3FBE02002F0ACFB0F2002F0B1
:105490009DFB2A2002F09AFB282002F097FB0820AF
:1054A00002F094FB0E2002F091FB082002F08EFB2C
:1054B000542002F08BFBA92002F088FB432002F06D
:1054C00085FB0A2002F082FB0F2002F07FFB002008
:1054D00002F07CFB002002F079FB002002F076FB5A
:1054E000002002F073FBE12002F07CFB002002F0C0
:1054F0006DFB152002F06AFB172002F067FB072006
:1055000002F064FB112002F061FB062002F05EFB5A
:105510002B2002F05BFB562002F058FB3C2002F0EF
:1055200055FB052002F052FB102002F04FFB0F202C
:1055300002F04CFB3F2002F049FB3F2002F046FB0B
:105540000F2002F043FB2B2002F04CFB002002F066
:105550003DFB002002F03AFB012002F037FB3F2028
:1055600002F034FB2A200BE07C430024E044025884
:10557000000402580040005230430024044100520D
:1055800002F030FB002002F021FB002002F01EFBA5
:10559000002002F01BFBEF2002F018FB112002F0AC
:1055A00021FB782005F0D4F8292002F01BFBE4E56C
:1055B000FE48808845F21031884240F07C87ED201B
:1055C00002F010FB012002F001FBFE2002F0FEFAC7
:1055D000EE2002F007FBDE2002F0F8FA212002F0B4
:1055E000F5FAF12002F0FEFA012002F0EFFADF20D6
:1055F00002F0F8FA102002F0E9FAC42002F0F2FA00
:105600008F2002F0E3FAC62002F0ECFA002002F04C
:10561000DDFAE22002F0DAFAE22002F0D7FAE22024
:1056200002F0D4FABF2002F0DDFAAA2002F0CEFA8E
:10563000B02002F0D7FA0D2002F0C8FA002002F0E4
:10564000C5FA0D2002F0C2FA002002F0BFFA1120C4
:1056500002F0BCFA002002F0B9FA192002F0B6FA02
:10566000002002F0B3FA212002F0B0FA002002F08C
:10567000ADFA2D2002F0AAFA002002F0A7FA3D2090
:1056800002F0A4FA002002F0A1FA5D2002F09EFAD6
:10569000002002F09BFA5D2002F098FA002002F050
:1056A00095FAB12002F09EFA802002F08FFA0020D5
:1056B00002F08CFA8B2002F089FA002002F086FAC0
:1056C000962002F083FA002002F080FAB22002F065
:1056D00089FA002002F07AFA002002F077FA02201C
:1056E00002F074FA002002F071FA032002F06EFA60
:1056F000002002F06BFAB32002F074FA002002F0EE
:1057000065FA002002F062FA002002F05FFA002041
:1057100002F05CFA002002F059FA002002F056FA7A
:10572000002002F053FA002002F050FA002002F0AC
:105730004DFA002002F04AFA002002F047FA002059
:1057400002F044FA002002F041FA002002F03EFA92
:10575000002002F03BFA002002F038FA002002F0AC
:1057600035FA002002F032FA002002F02FFA002071
:1057700002F02CFA002002F029FA002002F026FAAA
:10578000002002F023FA002002F020FAB42002F0F8
:1057900029FA8B2002F01AFA002002F017FA96205C
:1057A00002F014FA002002F011FAA12002F00EFA21
:1057B000002002F00BFAB52002F014FA022002F0E9
:1057C00005FA002002F002FA032002F0FFF900209F
:1057D00002F0FCF9042002F0F9F9002002F0F6F9D9
:1057E000B62002F0FFF9002002F0F0F9002002F0EC
:1057F000EDF9B72002F0F6F9002002F0E7F90020F9
:1058000002F0E4F93F2002F0E1F9002002F0DEF9B5
:105810005E2002F0DBF9002002F0D8F9642002F0EB
:10582000D5F9002002F0D2F98C2002F0CFF9002047
:1058300002F0CCF9AC2002F0C9F9002002F0C6F960
:10584000DC2002F0C3F9002002F0C0F9702002F061
:10585000BDF9002002F0BAF9902002F0B7F900205B
:1058600002F0B4F9EB2002F0B1F9002002F0AEF939
:10587000DC2002F0ABF9002002F0A8F9B82002F019
:10588000B1F9002002F0A2F9002002F09FF90020F7
:1058900002F09CF9002002F099F9002002F096F93C
:1058A000002002F093F9002002F090F9002002F0AD
:1058B0008DF9BA2002F096F9242002F087F9002031
:1058C00002F084F9002002F081F9002002F07EF954
:1058D000C12002F087F9202002F078F9002002F0C0
:1058E00075F9542002F072F9002002F06FF9FF20E0
:1058F00002F06CF9002002F069F9C22002F072F99E
:105900000A2002F063F9002002F060F9042002F09E
:105910005DF9002002F05AF9C32002F063F93C203F
:1059200002F054F9002002F051F93A2002F04EF949
:10593000002002F04BF9392002F048F9002002F073
:1059400045F9372002F042F9002002F03FF93C20EF
:1059500002F03CF9002002F039F9362002F036F965
:10596000002002F033F9322002F030F9002002F07A
:105970002DF92F2002F02AF9002002F027F92C201F
:1059800002F024F9002002F021F9292002F01EF98A
:10599000002002F01BF9262002F018F9002002F086
:1059A00015F9242002F012F9002001E07C430024C4
:1059B00002F00CF9242002F009F9002002F006F9A7
:1059C000232002F003F9002002F000F93C2002F04D
:1059D000FDF8002002F0FAF8362002F0F7F8002077
:1059E00002F0F4F8322002F0F1F8002002F0EEF8B4
:1059F0002F2002F0EBF8002002F0E8F82C2002F053
:105A0000E5F8002002F0E2F8292002F0DFF800209B
:105A100002F0DCF8262002F0D9F8002002F0D6F8D7
:105A2000242002F0D3F8002002F0D0F8242002F065
:105A3000CDF8002002F0CAF8232002F0C7F80020B9
:105A400002F0C4F8C42002F0CDF8622002F0BEF8E3
:105A5000002002F0BBF8052002F0B8F8002002F0A8
:105A6000B5F8842002F0B2F8002002F0AFF8F02080
:105A700002F0ACF8002002F0A9F8182002F0A6F815
:105A8000002002F0A3F8A42002F0A0F8002002F009
:105A90009DF8182002F09AF8002002F097F85020A4
:105AA00002F094F8002002F091F80C2002F08EF839
:105AB000002002F08BF8172002F088F8002002F096
:105AC00085F8952002F082F8002002F07FF8F3209C
:105AD00002F07CF8002002F079F8E62002F076F877
