:10071000B3ACD6D82121210A004552524F522000B5
:10072000B5B1C7B0D6D8C1BF3A2025752067200D16
:100730000A0020006700B5B1C7B0D6D8C1BF3A2DB6
:1007400025752067200D0A002D00BBB6D3ADCAB9B0
:10075000D3C3B5E7D7D3B3D3BDCCB3CC210A00C044
:10076000B4D4B4A3BA68747470733A2F2F6E6D63E7
:10077000752E74616F62616F2E636F6D200A005772
:0F078000656C636F6D6520746F20757365210064
:10085E00045B00000000045F00000000045700006D
:10086E000000203024000000000000000000000006
:10087E00000000000000000000000000000000006A
:10088E00000000000000000000000000000000005A
:10089E0000000000000156080254138801220001D6
:0208AE00230025
:1009A300E4FDFCC3ED9FEC9E5015E4FBFA0BBB008A
:0F09B300010AEB647B4A70F50DBD00010C80E476
:0109C2002212
:1007FD00E4F562F561F560F55FF509E509C3955618
:10080D005033120940E50925E025E02424F81204AF
:10081D0089E50925E025E02424F812047DE5622F01
:10082D00F562E5613EF561E5603DF560E55F3CF53E
:10083D005F050980C6AF56AB07E4FAF9F8AF62AEB3
:10084D0061AD60AC5F1203B48F5A8E598D588C57C1
:01085D002278
:1009E30020B21B7F057E001209A320B21130B2FD95
:0F09F3001207FDC2977F327E001209A3D297220E
:10078F00E4F562F561F560F55F120940E52225E0B9
:10079F0025E02424F81204890522E522C39556404A
:1007AF0003E4F522E4FBEBC395565022EB25E0253D
:1007BF00E02424F812047DE5622FF562E5613EF531
:1007CF0061E5603DF560E55F3CF55F0B80D8AF629A
:1007DF00AE61AD60AC5FC007AF56AB07E4FAF9F896
:0D07EF00D0071203B48F628E618D608C5FA5
:0107FC0022DA
:10050A00C3E55E955AF55EE55D9559F55DE55C9541
:10051A0058F55CE55B9557F55BAF5EAE5DAD5CFC8F
:10052A0033405FE47B8B7A01F9F81208FCE48F5EB2
:10053A008E5DF55CF55BAE54AF55FCFDAB5EAA5D16
:10054A00A95CA85BD3120454401A7BFF7A0779107E
:10055A001200657FC1120A4D7BFF7A0779191209C9
:10056A007DC29722D2977BFF7A077920855D0C8519
:10057A005E0D1200657FC0120A4D7BFF7A07793241
:10058A008055AF5EAE5DAD5CAC5B1204468F5E8E8D
:10059A005D8D5C8C5BE47B8B7A01F9F81208FCE4D4
:1005AA008F5E8E5DF55CF55BFFFEFDFCAB5EAA5DC2
:1005BA00A95CA85BD312045450030206837BFF7A1A
:1005CA00077936855D0C855E0D1200657FC0120ABB
:1005DA004D7BFF7A07794812097DE47B107A27F967
:1005EA00F8AF5EAE5DAD5CAC5B1208FCAC00AD0171
:1005FA00AE02AF03E47BE87A03F9F81208FCEF24B1
:10060A0030FF120A62E47BE87A03F9F8AF5EAE5D66
:10061A00AD5CAC5B1208FCAC00AD01AE02AF03E40A
:10062A007B64FAF9F81208FCEF2430FF120A62E43C
:10063A007B64FAF9F8AF5EAE5DAD5CAC5B1208FCA8
:10064A00AC00AD01AE02AF03E47B0AFAF9F8120876
:10065A00FCEF2430FF120A62E47B0AFAF9F8AF5E73
:10066A00AE5DAD5CAC5B1208FCEB2430FF120A6293
:0A067A007BFF7A07793412097D2214
:100A020012078F8F5E8E5D8D5C8C5B0523E523C3A1
:0A0A120094024006E4F52312050AE1
:010A1C0022B7
:1008B100120A357BFF7A07794A1200657BFF7A07B6
:1008C100795F120065120A1D7F80120A4D7BFF7A43
:1008D10007797F12097D7FC87E001209A31207FDE7
:1008E100E4F5087F017E001209A31209E30508E57A
:0B08F10008C3946440ED120A0280E589
:020A840000224E
:10094000D2A1120A84C2A07F007E007D007C00201C
:10095000A1FDE4FBD2A0780112046AC2A030A10D6F
:10096000EF2401FFE43EFEE43DFDE43CFC0BBB183C
:0C097000E3D2A0ED6480FD120A84C2A056
:01097C002258
:1009C300E4FDFCC3ED9FEC9E5015E4FBFA0BBB006A
:0F09D300010AEB647B4A70F50DBD00010C80E456
:0109E20022F2
:100A4D00A907C2A57F017E001209C3D2A789801212
:050A5D0009C3C2A7223D
:100A6200A907D2A57F017E001209C38980D2A712ED
:050A720009C3C2A72228
:10097D008B098A0A890BAB09AA0AA90B12035FFF1F
:10098D00D394004010120A627401250BF50BE43567
:06099D000AF50A80E122C8
:100A1D00C2A7C2A67F38120A4D7F0C120A4D7F065F
:080A2D00120A4D7F01020A4D7F
:100A3500759850C29CE4F587758921758DFD758B78
:080A4500FDD28ED2AFC2AC223B
:080A77008F993099FDC299220C
:050A7F00AE07020A773A
:0300000002068471
:0C068400787FE4F6D8FD7581620206CB99
:10035F00BB010689828A83E0225002E722BBFE029C
:09036F00E32289828A83E49322CF
:1003780075F008758200EF2FFFEE33FECD33CDCC3C
:1003880033CCC58233C5829BED9AEC99E5829840BF
:100398000CF582EE9BFEED9AFDEC99FC0FD5F0D69C
:1003A800E4CEFBE4CDFAE4CCF9A88222B800C1B9C6
:1003B8000059BA002DEC8BF084CFCECDFCE5F0CB04
:1003C800F97818EF2FFFEE33FEED33FDEC33FCEB3D
:1003D80033FB10D703994004EB99FB0FD8E5E4F9F8
:1003E800FA227818EF2FFFEE33FEED33FDEC33FCE5
:1003F800C933C910D7059BE99A4007EC9BFCE99AD9
:10040800F90FD8E0E4C9FAE4CCFB2275F010EF2F1D
:10041800FFEE33FEED33FDCC33CCC833C810D7071D
:100428009BEC9AE899400AED9BFDEC9AFCE899F858
:0E0438000FD5F0DAE4CDFBE4CCFAE4C8F922EB
:1008FC00C2D5E830E70FB2D5E4C39BFBE49AFAE427
:10090C0099F9E498F8EC30E717B2D51209321203D2
:10091C00B4E4C39BFBE49AFAE499F9E498F88003F5
:10092C001203B430D50DE4C39FFFE49EFEE49DFD9D
:04093C00E49CFC2219
:0E044600C3E49FFFE49EFEE49DFDE49CFC22C7
:10045400EB9FF5F0EA9E42F0E99D42F0EC6480C81F
:0604640064809845F022BF
:10046A00E8600FEFC333FFEE33FEED33FDEC33FCF0
:03047A00D8F12294
:0C047D00E6FC08E6FD08E6FE08E6FF22AB
:0C048900ECF608EDF608EEF608EFF6229F
:10000300E518240CF8E60518227809300702780C65
:10001300E475F0011204D402035F2000EB7F2ED2BB
:10002300008018EF540F2490D43440D4FF30040BD5
:10003300EF24BFB41A0050032461FFE519600215D1
:1000430019051CE51C7002051B30070D7809E475C2
:10005300F0011204D4EF0204C2020A7F7403D20730
:100063008003E4C207F5188B098A0A890BE4F519A2
:10007300F51BF51CE51960077F2012003E80F5751E
:100083001AFFC201C200C202C203C205C206C208ED
:1000930012000CFF700D3007057F0012004FAF1CDC
:1000A300AE1B22B4255FC2D5C20412000CFF24D0BC
:1000B300B40A00501A75F00A781930D50508B6FF4E
:1000C3000106C6A426F620D5047002D20380D924E3
:1000D300CFB41A00EF5004C2E5D20402024FD2019A
:1000E30080C6D20080C0D20280BCD2D580BAD205ED
:1000F30080B47F2012003E2002077401B51900402E
:10010300F1120003FF12003E020077D208D20680EC
:1001130095120003FB120003FA120003F94A4B7015
:100123000679207A037BFF20022EE519602A7E00E0
:100133008E8275830012049560060EEE651A70F0C8
:10014300C2D5EBC0E0EAC0E0E9C0E0EE120296D00F
:10015300E0F9D0E0FAD0E0FB12035FFF60AAEBC046
:10016300E0EAC0E0E9C0E012003ED0E02401F9D0AB
:10017300E03400FAD0E0FBE51A0460DCD51AD9803C
:10018300877BFF7A027992D202809C791080027970
:1001930008C206C2088008D2D5790A8004790AC247
:1001A300D5E51A047002F51AE4FAFDFEFF12000306
:1001B300FC7B08200113120003FD7B1030000A12A0
:1001C3000003FE120003FF7B20EC3382D592D5504F
:1001D30013C3E43000069FFFE49EFEE42001039D69
:1001E300FDE49CFCE4CBF8C201EC700CCFCECDCC8B
:1001F300E824F8F870F38017C3EF33FFEE33FEED16
:1002030033FDEC33FCEB33FB994002FB0FD8E9EBF6
:10021300300105F8D0E0C448B201C0E00AEC4D4E0D
:100223004F78207B0070C2EAB51A0040BCC0E012D0
:100233000298D0F0D0E0200104C4C0E0C4B201C0F1
:10024300F0120027D0F0D5F0EB0200771204E4019E
:100253001453018E5800E54C00E14201924F019A7C
:0F02630044019A4900FA4301A0550184460184E1
:100272004501844703405000E92D00ED2E01102B6B
:1002820000F123010E2003292A00A94800000108D9
:100292003F3F3F00790AA2D5200314300509B91067
:1002A200020404B9080104A2D52006025001042068
:1002B20002689202B519005034C0E07F2030031961
:1002C2007F30A20272067205500F1202EFC202C202
:1002D20006C205C2087F30800F300503E9C0E01274
:1002E200003E300503D0E0F9D0E0B519CC30051757
:1002F2007F30B9100C12003E7F583004077F78809F
:1003020003B9080312003E3002057F2D02003E7F32
:10031200202008F87F2B2006F322920280CF286E3D
:10032200756C6C2900D2011200033001F8C2017809
:100332001930D50108F60200A92D50434958120080
:10034200032403B405004001E490033B9312002F01
:0D035200743A12002FD20375190402018EB7
:100690000208B1E493A3F8E493A34003F68001F2C7
:1006A00008DFF48029E493A3F85407240CC8C3336B
:1006B000C4540F4420C8834004F456800146F6DF3A
:1006C000E4800B010204081020408090085EE47E64
:1006D000019360BCA3FF543F30E509541FFEE4932F
:1006E000A360010ECF54C025E060A840B8E493A3F6
:1006F000FAE493A3F8E493A3C8C582C8CAC583CA21
:10070000F0A3C8C582C8CAC583CADFE9DEE780BED8
:0108B0000047
:10049500BB010CE58229F582E5833AF583E022501C
:1004A50006E92582F8E622BBFE06E92582F8E22266
:0D04B500E58229F582E5833AF583E4932280
:1004C200BB010689828A83F0225002F722BBFE0119
:0204D200F32213
:1004D400FAE6FB0808E6F925F0F618E6CA3AF62229
:1004E400D083D082F8E4937012740193700DA3A3A7
:1004F40093F8740193F5828883E4737402936860BB
:06050400EFA3A3A380DFBA
:00000001FF
