:020000040800F2
:1000000068040020010100080B110008011000081D
:1000100009110008DF040008231700080000000091
:100020000000000000000000000000002315000890
:10003000E104000800000000211500086515000813
:100040001B0100081B0100081B0100081B01000820
:100050001B0100081B0100081B0100081B01000810
:100060001B0100081B0100081B0100081B01000800
:100070001B0100081B0100081B0100081B010008F0
:100080001B0100081B0100081B0100081B010008E0
:100090001B0100081B0100081B0100081B010008D0
:1000A0001B0100081B0100081B0100081B010008C0
:1000B0001B0100081B0100081B0100081B010008B0
:1000C0001B0100081B0100081B0100081B010008A0
:1000D0001B0100081B0100081B0100081B01000890
:1000E0001B0100081B0100081B010008DFF80CD0F1
:1000F00000F0D4F900480047FD180008680400200B
:100100000648804706480047FEE7FEE7FEE7FEE7B1
:10011000FEE7FEE7FEE7FEE7FEE7FEE7C1150008A3
:10012000ED000008202A04DB203A21FA02F0002129
:10013000704721FA02F3D040C2F1200291400843F7
:1001400019467047D2B201E000F8012B491EFBD2DC
:1001500070470022F6E710B513460A4604461946D2
:10016000FFF7F0FF204610BD80EA010210B502F053
:100170000043400022D04A001FD0010E01EB126163
:10018000C0F35600C2F3560240F4000042F40002ED
:10019000A0FB022000047F39140400D0401C50EA68
:1001A000124001D44000491EC2B20C0604EBD0102C
:1001B000401C4008802A02D003E0002010BD20F03F
:1001C0000100002900DA0020184310BD2DE9F04D90
:1001D00081EA030404F0004B21F0004514464FF07F
:1001E000000A23F0004150EA050220D054EA01023F
:1001F0001DD0C5F30A570246C5F31303C1F313001C
:10020000C1F30A5640F4801543F48013A7EB0608A7
:10021000101BD64608F2FD3873EB050002D308F137
:10022000010801E092185B41B8F1000F03DA0020E9
:100230000146BDE8F08D00204FF48011064684464B
:100240000EE0171B73EB050705D3121B63EB0503C9
:1002500006434CEA010C49084FEA300092185B4112
:1002600050EA0107EDD152EA030012D082EA0400FD
:1002700083EA0501084305D0101BAB4106D20122D9
:10028000002306E000224FF0004302E06FF001027D
:1002900053101AEB06004CEB085110EB0A0041EB2F
:1002A0000B01BDE8F04D00F09CB8C10F80EAE07092
:1002B0000844CA079623002100F065B820F00040EA
:1002C000C10DC0F3160040F400007F2901DA0020C0
:1002D0007047962903DCC1F19601C84070479639F2
:1002E0008840704770B5C1F30A5201F00045002400
:1002F000C1F3130140F2FF3341F480119A4201DA55
:10030000002070BD40F233439A42A2F2334203DC34
:100310005242FFF707FF00E090402C43F1D04042EB
:1003200070BD00F0004230F000400AD0C10D01F570
:100330006071C0F3160042EA0151C2084007114340
:10034000704700200146704730B50B46014600203B
:100350002022012409E021FA02F59D4205D303FA87
:1003600002F5491B04FA02F52844151EA2F1010208
:10037000F1DC30BD0029A8BF7047401C490008BF10
:1003800020F00100704710B4B0FA80FC00FA0CF0C5
:1003900050EA010404BF10BC704749B1CCF12004FD
:1003A00021FA04F411FA0CF118BF0121214308438A
:1003B000A3EB0C01CB1D4FEA00614FEA102042BFB6
:1003C000002010BC704700EBC35010440029A4BFAC
:1003D00010BC7047401C490008BF20F0010010BC51
:1003E000704710B5141E73F1000408DA401C41F187
:1003F000000192185B411A4301D120F0010010BDA9
:100400002DE9F04D92469B4611B1B1FA81F202E01E
:10041000B0FA80F22032904600F052F804460F46BF
:1004200040EA0A0041EA0B0153465A46084313D0FA
:10043000114653EA010019D0C8F140025046FFF7B7
:1004400071FE05460E4650465946424600F038F8C1
:10045000084305D0012004E020463946BDE8F08D70
:100460000020054346EAE0762C4337430A986305AB
:10047000E40AA0EB08000022FD0A44EA47540A30CF
:1004800002D500200146E9E7010510196941DDE9BF
:10049000084500196941BDE8F04DA2E7064C074D3B
:1004A00006E0E06840F0010394E807009847103444
:1004B000AC42F6D3FFF71EFE481900086819000881
:1004C000202A04DB203A00FA02F100207047914014
:1004D000C2F1200320FA03F3194390407047FEE76E
:1004E0007047FEE710B500F03DFD0149486010BDC2
:1004F0000400002010B500F035FD114C206061684B
:10050000A1F1C80290421AD9401AFFF7CEFEFFF7B8
:1005100008FF00220B4BFFF759FEFFF7E3FE0146F1
:10052000A06009A001F0FEF8A068FFF7BEFE024639
:1005300006230021BDE81040052000F011BF10BDCA
:100540000400002000A87D40CAB5BCCAD6D8C1BFEF
:10055000CEAA2564670A0D0070B500240D4E25460D
:1005600000220821304600F014F96006040E8021B4
:10057000304600F009F908B1641CE4B201220821F8
:10058000304600F006F96D1CEDB2082DE8D3204688
:1005900070BD0000000C014070B5044600F0FEF88C
:1005A0000546601C02D004480078044400F0F6F8C8
:1005B000401BA042FAD370BD140000202DE9F84F73
:1005C000DFF8A491002409F1040A0AF1040B234680
:1005D0004FF00F080BF1040EBEE00127A7403A4090
:1005E000BA4272D1DFF884C14D68A5EB0C066545AF
:1005F0002BD00DDC032D34D005DC35B3012D19D003
:10060000022D2FD11BE0112D16D0122D2AD119E069
:10061000B6F5881F19D006DCB6F5803F15D0B6F5C3
:10062000801F1FD111E0B6F5001F0ED0B6F5041FD4
:1006300018D10AE0CB6815E0CB681B1D12E0CB682F
:1006400008330FE0CB680C330CE08B682BB1012B27
:100650004FF0080303D0476104E0042302E0076180
:1006600000E00023FF2A01D8064601E000F104065D
:100670004FEA840501D9A5F12005376808FA05FC81
:1006800027EA0C0703FA05F547EA050737604D68C6
:10069000ED0060D5364DAE6946F00106AE61AD693C
:1006A00024F0030605F001050095324D7719BE6868
:1006B000A5072D0F08FA05FC26EA0C06DFF8B8C0DE
:1006C000604503D14FF0000C17E044E0DFF8ACC008
:1006D000604502D14FF0010C0FE0DFF8A4C0604587
:1006E00002D14FF0020C08E0DFF898C0604502D15B
:1006F0004FF0030C01E04FF0040C0CFA05FC4CEA3F
:10070000060CC7F808C04D68D9F80060ED034D46E7
:1007100001D5164300E096432E604D68DAF800607C
:10072000AD03554601D5164300E096432E604D6853
:10073000DBF80060ED025D4601D5164300E096430C
:100740002E604D68DEF80060AD02754601D5164397
:1007500000E096432E60641C0A6832FA04F57FF4C8
:100760003CAFBDE8F88F000000040140000011100C
:10077000001002400000014000080140000C014050
:1007800000100140001401408068084000D00120A2
:1007900070470AB1016170470904FBE701488068AE
:1007A000704700001400002002488168027811445C
:1007B0008160704714000020074810B5016841F0BF
:1007C00010010160032000F067F8002000F006F837
:1007D00000F024F8002010BD0020024070B50D4D3F
:1007E00004464FF47A712878B1FBF0F00A490968A1
:1007F000B1FBF0F000F0E0FA48B9102C07D200226B
:100800002146501E00F028F800206C6070BD0120C9
:1008100070BD000014000020100000200C4808B536
:10082000816941F001018161816901F0010100915B
:10083000C16941F08051C161C069064900F0805032
:100840000090486820F0E06040F00070486008BD0B
:100850000010024000000140F0B40E4B1B68C3F3CF
:100860000223C3F10704042C00D904241D1D072D05
:1008700001D2002300E0DB1E012606FA04F56D1EFE
:100880000D409D409E40761E164045EA0601F0BC94
:1008900000F058BF0CED00E0064A00F007011068B8
:1008A0004FF6FF03184040EA012003490843106057
:1008B000704700000CED00E00000FA052DE9F0475C
:1008C0000D46040067D0DFF81881D8F8000000F06A
:1008D0000700A8420CD2D8F8001021F007012943E4
:1008E000C8F80010D8F8000000F00700A84252D164
:1008F00020683C4E810712D5400703D5706840F44C
:10090000E06070602078000703D5706840F46050A4
:1009100070607068A16820F0F00008437060207873
:10092000C00727D06068012810D03168022810D095
:10093000890700292FDA716821F0030101437160F2
:10094000FFF72CFF074641F288390CE03168890334
:10095000EFE78901EDE7FFF721FFC11B494502D908
:100960000320BDE8F0877068616800F00C00B0EB10
:10097000810FF0D1D8F80010404601F00701A942DC
:100980000BD9016821F0070129430160006800F0DC
:100990000700A84201D00120E3E72078400705D5F1
:1009A0007068E16820F4E060084370602078000718
:1009B00006D57068216920F4605040EAC10070607B
:1009C00000F038F87168084AC1F30311515CC8405F
:1009D0000649086006480068FFF700FF0020C0E7EE
:1009E00000200240001002403019000810000020D2
:1009F000180000200448054900684968044AC1F30A
:100A00000221515CC84070471000002000100240D5
:100A1000401900080448054900684968044AC1F3C0
:100A2000C221515CC84070471000002000100240F5
:100A30004019000812A085B00FC88DE80F0014A05F
:100A4000144B006804905968134801F00C02042A02
:100A500010D0082A0ED1C1F38342C9031DF8020049
:100A60000AD5596804AAC1F34041515C0A4A50436F
:100A7000B0FBF1F005B0704708494843FAE70000C1
:100A800002030405060708090A0B0C0D0E0F1010CF
:100A9000010200000010024000127A0000093D002F
:100AA0002DE9F84F04006FD02078BE4DC00747D025
:100AB0006868C0F38100012807D06868C0F381002E
:100AC000022809D16868C00306D52868800337D595
:100AD00060680028E7D033E06068B0F5803F0BD055
:100AE00010B1B0F5A02F11D0286820F48030286014
:100AF000286820F4802002E0286840F480302860D4
:100B0000606888B1FFF74AFE064609E0286840F4AD
:100B100080202860F0E7FFF741FE801B642873D82F
:100B200028688003F7D50BE0FFF738FE064604E09F
:100B3000FFF734FE801B6428F1D828688003F7D4BF
:100B40002078DFF8648280074FF0010A4FF0000937
:100B500039D5686810F00C0F07D06868C0F38100C1
:100B6000022809D16868C00306D42868800714D514
:100B70002069012808D110E02069B0B1C8F800A0B0
:100B8000FFF70CFE064605E007E1FFF707FE801BB6
:100B90000228C4D828688007F7D52868616920F042
:100BA000F80040EAC10028600DE0C8F80090FFF7A7
:100BB000F5FD064604E0FFF7F1FD801B022823D86F
:100BC00028688007F7D4207800072CD57748A169DA
:100BD000D9B1C0F800A0FFF7E1FD064604E0FFF739
:100BE000DDFD801B02280FD8686A8007F7D57048A2
:100BF0004FF4FA510068B0FBF1F0009000BF00988C
:100C0000411E0091FAD20EE07CE0C0F80090FFF7A0
:100C1000C5FD064604E0FFF7C1FD801B022871D820
:100C2000686A8007F7D4207840075BD5E869002719
:100C3000C00008D4E86940F08050E861E869012705
:100C400000F0805000905B480168C90511D401682C
:100C5000834641F480710160FFF7A0FD064604E081
:100C6000FFF79CFD801B64284CD8DBF80000C00512
:100C7000F6D5E06801280AD008B1052813D0286A03
:100C800020F001002862286A20F0040002E0286AAF
:100C900040F001002862E06841F2883B88B1FFF72C
:100CA0007DFD064609E0286A40F004002862EEE770
:100CB000FFF774FD811B59455BD8286A8007F7D57B
:100CC0000BE0FFF76BFD064604E0FFF767FD811BB5
:100CD00059454ED8286A8007F7D41FB1E86920F03B
:100CE0008050E861E069A8B36968C1F38101022915
:100CF00046D00228484606D0C8F86000FFF74EFDEF
:100D0000044639E035E04746C8F86000FFF746FD85
:100D1000064604E0FFF742FD801B022829D8286818
:100D20008001F7D4206AB0F5803F05D16868A168DA
:100D300020F4003008436860D4E90801084369687A
:100D400021F4741108436860C7F860A0FFF726FD1E
:100D5000044605E023E0FFF721FD001B022808D828
:100D600028688001F7D51AE0FFF718FD001B02285C
:100D700002D90320BDE8F88F28688001F4D40EE082
:100D80000128F7D06868226A00F48031914204D1CA
:100D9000616A00F47010884201D00120EAE7002067
:100DA000E8E7000000100240000042428004424296
:100DB000100000200070004010B5401EB0F1807F90
:100DC00001D3012010BD4FF0E02460610F216017B6
:100DD00000F0B8FC0020A06107202061002010BDB9
:100DE00070B5040004D094F83D00002510B106E071
:100DF000012070BD84F83C50204600F023F82420E8
:100E000084F83D002068C16821F40051C16020468B
:100E100000F0FAFB2068016921F49041016120682B
:100E2000416921F02A0141612068C16841F4005103
:100E3000C1602564202084F83D0084F83E00002035
:100E400070BD000030B585B0002400940194029478
:100E5000039400681449884224D11448816941F4FC
:100E600080418161816901F480410491816941F08F
:100E70000401816180690E4D00F0040004904FF47C
:100E800000700090022001900320039069462846DC
:100E9000FFF794FB2815CDE9000469462846029423
:100EA000FFF78CFB05B030BD003801400010024058
:100EB000000801402DE9F843044690F83D001F4624
:100EC00015460E4620284BD1C6B1BDB194F83C0062
:100ED000012845D0012084F83C004FF00008C4F8F8
:100EE0004080212084F83D00FFF758FCA58481460E
:100EF000E584A068B0F5805F03D004E00120BDE880
:100F0000F883206920B13546002684F83C800EE045
:100F10000025FAE78021204600F0D2FBA0B9ADB150
:100F200015F8010B21684860E08C401EE084E08CDD
:100F30004B464FF0000200970028EBD14FF04001E4
:100F4000204600F0BDFB30B10320D8E736F8020B95
:100F5000C0F30800E6E7202084F83D000020CEE73B
:100F60000220CCE72DE9F041234E002240213046FB
:100F7000FFF70FFC0024214F254620213046FFF7C4
:100F800003FC38B9012000F0A7FC20213046FFF710
:100F9000FBFB10B16D1CBD42EFDB012000F09CFC9F
:100FA0000025012240213046FFF7F3FB012000F02D
:100FB00093FC6400002240213046FFF7EAFB202129
:100FC0003046FFF7E1FB012800D1641C6D1CEDB237
:100FD000182DE6D3012240213046FFF7DAFB02202C
:100FE00000F07AFC84F40004002240213046FFF730
:100FF000D0FB2046BDE8F0810008014040420F00D0
:10100000FEE700002DE9F04385B000242D48009450
:10101000019402940394816941F010018161816916
:1010200001F010010491816941F020018161816921
:1010300001F020010491816941F00401816181691D
:1010400001F004010491816941F008018161806926
:10105000DFF8748000F00800049000224021404630
:10106000FFF797FBDFF864904FF4BC770022394616
:101070004846FFF78EFB2020CDE900046946404634
:101080000294FFF79BFA40200126CDE900060225D5
:1010900069464046CDE90245FFF790FACDE9007672
:1010A00069464846CDE90245FFF788FA8020CDE938
:1010B0000004694648460294FFF780FA05B0BDE88F
:1010C000F08300000010024000080140000C0140C5
:1010D0000C4810B50A4901604FF4E131416000212C
:1010E00081600C22C160C0E904128161C161FFF717
:1010F00077FE002803D0BDE81040FFF7F2B910BD1D
:101100000038014024000020FEE7704770B500253C
:1011100005F1B000C0B2002100F086F900211020D6
:1011200000F082F90021022000F07EF90024012164
:10113000002000F079F9641CE4B2802CF7D36D1C18
:10114000EDB2082DE4D370BD2DE9F04115460F46F0
:10115000804600263946404600F09EF90024287853
:10116000012100F061F9641CE4B26D1C102CF6D36F
:101170007F1C761CF6B2FFB2022EEBD3BDE8F081E5
:101180002DE9F04115460F46804600263946404677
:1011900000F082F900242878012100F045F9641C50
:1011A000E4B26D1C082CF6D37F1C761CF6B2FFB29D
:1011B000022EEBD3BDE8F0812DE9F0438DB0164649
:1011C0008946054600244FF020082B4F4DE0A0F142
:1011D000B00147290AD832195378A12B06D35E20D3
:1011E00041433960507801F2AD210CE0A0F1A1013A
:1011F00002291FD832195378A12B1BD35E204143FB
:1012000039605078A139084440013860C0F3074C78
:10121000C0F30721C2B201AB6046CDF8008000F0F8
:1012200051F901AA49462846FFF78EFF1035EDB265
:10123000A41C19E020385E2815D8104909AB01EB31
:101240000010C0F3074CC0F30721C2B23860102071
:101250000090604600F036F909AA49462846FFF793
:101260008FFF0835EDB2641CE4B2305D0028AED1CA
:101270000DB0BDE8F08300000000002080CF030027
:1012800010B5C820FFF788F90021AE2000F0CCF897
:101290000021022000F0C8F80021102000F0C4F85E
:1012A0000021402000F0C0F80021B02000F0BCF880
:1012B0000021812000F0B8F80021CF2000F0B4F820
:1012C0000021A12000F0B0F80021A62000F0ACF829
:1012D0000021A82000F0A8F800213F2000F0A4F889
:1012E0000021AD2000F0A0F800218B2000F09CF838
:1012F0000021332000F098F80021C82000F094F875
:101300000021D32000F090F80021084600F08CF86E
:101310000021D52000F088F80021802000F084F81A
:101320000021D92000F080F800211F2000F07CF877
:101330000021DA2000F078F80021122000F074F883
:101340000021DB2000F070F80021402000F06CF854
:10135000FFF7DCFE0021BDE81040AF2000F064B8CC
:101360002DE9F0411F4600EBC70008308846C4B2A3
:1013700021491046FEF7F8FEFEF7A0FF0646A4F14D
:101380001800C0B21DA24146FFF716FF00251EE05F
:101390000A20B6FBF0F100FB1161B6FBF0F6083C49
:1013A000E4B2022D01D1083CE4B20A290DD2DFE8F3
:1013B00001F00507121416181A1C1E2010A200E0D6
:1013C00010A241462046FFF7F7FE6D1CEDB2BD426C
:1013D000DED3BDE8F0810CA2F3E70CA2F1E70CA28A
:1013E000EFE70CA2EDE70CA2EBE70CA2E9E70CA2F9
:1013F000E7E70CA2E5E700000000C8422E0000006D
:101400003000000031000000320000003300000016
:1014100034000000350000003600000037000000F6
:10142000380000003900000070B51A4E054609B1B9
:10143000012200E0002220213046FFF7AAF9002215
:1014400040213046FFF7A5F900240022082130464C
:10145000FFF79FF9280601D5012200E000221021A4
:101460003046FFF796F9012208213046FFF791F93F
:101470006806641C050EE4B2082CE6D30122402164
:101480003046FFF786F93046BDE870400122202142
:10149000FFF77FB9000C014010B5801CC4B2B03119
:1014A000C8B20021FFF7C0FF102040EA141000214D
:1014B000FFF7BAFF04F00F00BDE810400021FFF76E
:1014C000B3BF00002DE9F047DFF8508091468A460F
:1014D00004464FF480771D46002239464046089E58
:1014E000FFF757F9032000F01DF8204600F01AF826
:1014F000504600F017F8484600F014F8002404E0C5
:10150000FFF72AF82855641CE4B2B442F8D33946F0
:101510004046BDE8F0470122FFF73BB9000C01400F
:101520007047704770B50E4E054600240022082112
:101530003046FFF72EF9280601D5012200E00022EF
:1015400010213046FFF725F96806050E0122082113
:101550003046FFF71EF9641CE4B2082CE6D370BDD8
:10156000000C0140FFF720B930B58FB02821684644
:10157000FEF7EFFD14210AA8FEF7EBFD01200104A0
:1015800000248DE8130004904FF4E010CDE908101A
:10159000022507956846FFF783FA00B1FEE70F20A2
:1015A000CDE90A054FF48060CDE90C4002210AA87C
:1015B0000E94FFF783F9002800D0FEE70FB030BD8E
:1015C0000D48016841F00101016041680B4A11407A
:1015D000416001680A4A11400160016821F48021DC
:1015E0000160416821F4FE0141604FF41F018160F8
:1015F0000449C00308607047001002400000FFF873
:10160000FFFFF6FE08ED00E070B5044600680169D2
:10161000E26821F4405111430161A168206901434E
:10162000606901432068C26841F20C639A430A432F
:10163000C26020684169A26921F44071114341618F
:101640001E492068884202D1FFF7E4F901E0FFF764
:10165000D1F900EBC00101EB001160686422800049
:10166000B1FBF0F3B3FBF2F36FF018067343B1FB79
:10167000F0F5B1FBF0F605EB8305322303EB05151E
:10168000B5FBF2F5B6FBF2F605F0F00505EB061535
:10169000B1FBF0F6B1FBF0F0B0FBF2F06FF0180127
:1016A000484306EB800003EB0010B0FBF2F021682A
:1016B00000F00F002844886070BD00000038014031
:1016C0002DE9F0411E46174688460446069D1CE05B
:1016D000681C1AD025B1FFF761F8801BA84214D905
:1016E0002068C16821F4D071C1602068416921F08F
:1016F00001014161202084F83D0084F83E00002073
:1017000084F83C000320BDE8F0812068016838EAD5
:10171000010004D00020B842DAD00020F3E7012015
:10172000F9E7FEE70FB4054B10B503A9044A029888
:1017300000F028F810BC5DF814FB0000E518000864
:10174000200000200907090E002804DB00F1E0203A
:1017500080F80014704700F00F0000F1E02080F8DE
:10176000141D704702E008C8121F08C1002AFAD1F0
:1017700070477047002001E001C1121F002AFBD111
:10178000704700002DE9FF4F89B09B4604460025B5
:1017900006E025280BD05A460B999047641C6D1C17
:1017A00020780028F5D10DB02846BDE8F08F00273D
:1017B000B8460122474900E0074314F8013F203BA7
:1017C00002FA03F00842F7D120782E2819D114F834
:1017D000010F47F004072A280ED06FF02F0220785F
:1017E000A0F1300109290CD808EB880102EB410176
:1017F00000EB0108641CF2E70A98641C50F8048BA3
:101800000A9020780028CED0642808D0692806D015
:1018100075281ED05A460B9990476D1C58E00A99BE
:101820004FF00A0901C90A91002802DA40422D212D
:1018300002E0390504D52B218DF82010012103E0A9
:10184000F90704D02021F7E78A4608AE0DE0002111
:10185000FAE70A994FF00A0901C90A91F7E74946E0
:10186000FEF772FD303106F8011D0028F7D1ADEB0F
:10187000060000F12009780701D44FF00108C8459F
:1018800002DDA8EB090000E000208046002706E00A
:1018900008A85A46C05D0B9990476D1C7F1C5745A0
:1018A000F6DB04E030205A460B9990476D1CB8F1E6
:1018B0000001A8F10108F5DC05E016F8010B5A4615
:1018C0000B9990476D1CB9F10001A9F10109F4DCF5
:1018D000641C65E70928010001E0401EC0B2002831
:1018E000FBD1704713B54FF6FF73012269460248DA
:1018F000FFF7E0FA00981CBD24000020FEF75CFF13
:10190000FFF732FEFFF77EFBFFF7E2FB00224021EC
:101910000648FEF73EFFFFF7B3FCFEF7E3FDFEF7D8
:10192000E9FDC820FEF738FEF9E700000008014095
:10193000000000000000000001020304060708097F
:1019400000000000010203046819000800000020E4
:1019500024000000641700088C19000824000020EF
:10196000440400007417000800000000000000009C
:10197000000000000000000000A24A040100000076
:0C1980001000000000000000000000004B
:04000005080000ED02
:00000001FF
